:020000040800F2
:1000000000800120657C00088D7A0008917A000844
:10001000957A0008997A00089D7A0008000000008F
:10002000000000000000000000000000A17A0008AD
:10003000A57A000800000000A97A0008AD7A00083F
:10004000B57C0008B57C0008B57C0008B57C0008CC
:10005000B57C0008B57C0008B57C0008B57C0008BC
:10006000B57C0008B57C0008B57C0008B57C0008AC
:10007000B57C0008B57C0008B57C0008B57C00089C
:10008000B57C0008B57C0008B57C000800000000C5
:10009000000000000000000000000000B57C000827
:1000A000B57C0008B57C0008B57C0008B57C00086C
:1000B000B57C0008B57C0008B57C0008B57C00085C
:1000C000B57C0008B57C0008B57C0008B57C00084C
:1000D000B57C0008B57C0008B57C00080000000075
:1000E000B57C0008B57C0008B57C00080000000065
:1000F000000000000000000000000000B57C0008C7
:1001000000000000B57C0008B57C0008B57C000844
:1001100000000000000000000000000000000000DF
:10012000B57C0008B57C0008B57C0008BD7A0008E5
:10013000B57C000800000000000000000000000086
:10014000000000000000000000000000B57C000876
:10015000B57C0008B57C0008B57C0008B57C0008BB
:10016000B57C0008B57C000800000000000000001D
:10017000000000000000000000000000000000007F
:1001800000000000B57C0008000000000000000036
:04019000B57C000832
:1001A000034613F8012B002AFBD1181A01387047B7
:1001B00001F0FF01102A2BDB10F0070F08D010F818
:1001C000013B013A8B422DD010F0070F42B3F6D11C
:1001D000F0B441EA012141EA014122F007047FF035
:1001E00000070023F0E80256083C85EA010586EA8C
:1001F000010685FA47F5A3FA87F586FA47F6A5FAC8
:1002000087F68EB9EED1F0BC01F0FF0102F00702D3
:1002100032B110F8013B013A83EA010313B1F8D17E
:100220000020704701387047002D06BF354603385F
:10023000073815F0010F07D1013015F4807F02BF98
:10024000013015F4C03F0130F0BC0138704700BFE9
:1002500081F0004102E000BF83F0004330B54FEA77
:1002600041044FEA430594EA050F08BF90EA020FE4
:100270001FBF54EA000C55EA020C7FEA645C7FEA77
:10028000655C00F0E2804FEA5454D4EB5555B8BF9A
:100290006D420CDD2C4480EA020281EA030382EA0B
:1002A000000083EA010180EA020281EA0303362D9D
:1002B00088BF30BD11F0004F4FEA01314FF4801C70
:1002C0004CEA113102D0404261EB410113F0004F82
:1002D0004FEA03334CEA133302D0524263EB430339
:1002E00094EA050F00F0A780A4F10104D5F1200ED7
:1002F0000DDB02FA0EFC22FA05F2801841F1000132
:1003000003FA0EF2801843FA05F359410EE0A5F105
:1003100020050EF1200E012A03FA0EFC28BF4CF036
:10032000020C43FA05F3C01851EBE37101F00045EC
:1003300007D54FF0000EDCF1000C7EEB00006EEBF9
:100340000101B1F5801F1BD3B1F5001F0CD3490883
:100350005FEA30004FEA3C0C04F101044FEA4452DA
:1003600012F5800F80F09A80BCF1004F08BF5FEA61
:10037000500C50F1000041EB045141EA050130BD41
:100380005FEA4C0C404141EB010111F4801FA4F1E4
:100390000104E9D191F0000F04BF01460020B1FA39
:1003A00081F308BF2033A3F10B03B3F120020CDA71
:1003B0000C3208DD02F1140CC2F10C0201FA0CF04F
:1003C00021FA02F10CE002F11402D8BFC2F1200CB4
:1003D00001FA02F120FA0CFCDCBF41EA0C0190406A
:1003E000E41AA2BF01EB0451294330BD6FEA0404B3
:1003F0001F3C1CDA0C340EDC04F11404C4F120029E
:1004000020FA04F001FA02F340EA030021FA04F3AF
:1004100045EA030130BDC4F10C04C4F1200220FA06
:1004200002F001FA04F340EA0300294630BD21FA44
:1004300004F0294630BD94F0000F83F4801306BF0A
:1004400081F480110134013D4EE77FEA645C18BFFE
:100450007FEA655C29D094EA050F08BF90EA020F95
:1004600005D054EA000C04BF1946104630BD91EA8D
:10047000030F1EBF0021002030BD5FEA545C05D190
:100480004000494128BF41F0004130BD14F58004CF
:100490003CBF01F5801130BD01F0004545F0FE4143
:1004A00041F470014FF0000030BD7FEA645C1ABF78
:1004B000194610467FEA655C1CBF0B46024650EAAF
:1004C000013406BF52EA033591EA030F41F40021DB
:1004D00030BD00BF90F0000F04BF0021704730B561
:1004E0004FF4806404F132044FF000054FF0000136
:1004F00050E700BF90F0000F04BF0021704730B5F7
:100500004FF4806404F1320410F0004548BF4042CB
:100510004FF000013EE700BF42004FEAE2014FEA20
:1005200031014FEA02701FBF12F07F4393F07F4FFB
:1005300081F06051704792F0000F14BF93F07F4F2D
:10054000704730B54FF4607401F0004521F0004170
:1005500020E700BF50EA010208BF704730B54FF0F6
:1005600000050AE050EA010208BF704730B511F0FB
:10057000004502D5404261EB41014FF4806404F133
:1005800032045FEA915C3FF4DCAE4FF003025FEAB5
:10059000DC0C18BF03325FEADC0C18BF033202EB3D
:1005A000DC02C2F1200300FA03FC20FA02F001FA97
:1005B00003FE40EA0E0021FA02F11444C1E600BF36
:1005C00070B54FF0FF0C4CF4E06C1CEA11541DBFE9
:1005D0001CEA135594EA0C0F95EA0C0F00F0DEF8B4
:1005E0002C4481EA030621EA4C5123EA4C5350EA99
:1005F000013518BF52EA033541F4801143F48013EA
:1006000038D0A0FB02CE4FF00005E1FB02E506F07A
:100610000042E0FB03E54FF00006E1FB03569CF0CF
:10062000000F18BF4EF0010EA4F1FF04B6F5007FD5
:1006300064F5407404D25FEA4E0E6D4146EB060647
:1006400042EAC62141EA55514FEAC52040EA5E50D0
:100650004FEACE2EB4F1FD0C88BFBCF5E06F1ED87A
:10066000BEF1004F08BF5FEA500E50F1000041EBB1
:10067000045170BD06F0004646EA010140EA02005E
:1006800081EA0301B4EB5C04C2BFD4EB0C0541EA80
:10069000045170BD41F480114FF0000E013C00F395
:1006A000AB8014F1360FDEBF002001F0004170BDB9
:1006B000C4F10004203C35DA0C341BDC04F11404D2
:1006C000C4F1200500FA05F320FA04F001FA05F25E
:1006D00040EA020001F0004221F0004110EBD3702B
:1006E00021FA04F642EB06015EEA430E08BF20EA57
:1006F000D37070BDC4F10C04C4F1200500FA04F3FA
:1007000020FA05F001FA04F240EA020001F000418B
:1007100010EBD37041F100015EEA430E08BF20EAFE
:10072000D37070BDC4F1200500FA05F24EEA020E46
:1007300020FA04F301FA05F243EA020321FA04F075
:1007400001F0004121FA04F220EA020000EBD3702C
:100750005EEA430E08BF20EAD37070BD94F0000F2C
:100760000FD101F00046400041EB010111F4801F60
:1007700008BF013CF7D041EA060195F0000F18BF11
:10078000704703F00046520043EB030313F4801F4D
:1007900008BF013DF7D043EA0603704794EA0C0F07
:1007A0000CEA135518BF95EA0C0F0CD050EA41061D
:1007B00018BF52EA4306D1D181EA030101F000419A
:1007C0004FF0000070BD50EA410606BF10461946C2
:1007D00052EA430619D094EA0C0F02D150EA0136CE
:1007E00013D195EA0C0F05D152EA03361CBF10460F
:1007F00019460AD181EA030101F0004141F0FE41AE
:1008000041F470014FF0000070BD41F0FE4141F431
:10081000780170BD70B54FF0FF0C4CF4E06C1CEA31
:1008200011541DBF1CEA135594EA0C0F95EA0C0FE6
:1008300000F0A7F8A4EB050481EA030E52EA0335A1
:100840004FEA013100F088804FEA03334FF08055C2
:1008500045EA131343EA12634FEA022245EA1115EF
:1008600045EA10654FEA00260EF000419D4208BFA0
:10087000964244F1FD0404F5407402D25B084FEA4D
:100880003202B61A65EB03055B084FEA32024FF4F9
:1008900080104FF4002CB6EB020E75EB030E22BF56
:1008A000B61A754640EA0C005B084FEA3202B6EB16
:1008B000020E75EB030E22BFB61A754640EA5C00C5
:1008C0005B084FEA3202B6EB020E75EB030E22BF55
:1008D000B61A754640EA9C005B084FEA3202B6EB56
:1008E000020E75EB030E22BFB61A754640EADC0015
:1008F00055EA060E18D04FEA051545EA16754FEA77
:1009000006164FEAC30343EA52734FEAC2025FEA94
:100910001C1CC0D111F4801F0BD141EA00014FF023
:1009200000004FF0004CB6E711F4801F04BF0143F4
:100930000020B4F1FD0C88BFBCF5E06F3FF6AFAE10
:10094000B5EB030C04BFB6EB020C5FEA500C50F1A0
:10095000000041EB045170BD0EF0004E4EEA113123
:1009600014EB5C04C2BFD4EB0C0541EA045170BD2A
:1009700041F480114FF0000E013C90E645EA060E6E
:100980008DE60CEA135594EA0C0F08BF95EA0C0F9C
:100990003FF43BAF94EA0C0F0AD150EA01347FF4E4
:1009A00034AF95EA0C0F7FF425AF104619462CE7BB
:1009B00095EA0C0F06D152EA03353FF4FDAE10461E
:1009C000194622E750EA410618BF52EA43067FF46F
:1009D000C5AE50EA41047FF40DAF52EA43057FF4FF
:1009E000EBAE12E74FF0FF3C06E000BF4FF0010C0A
:1009F00002E000BF4FF0010C4DF804CD4FEA410C6E
:100A00007FEA6C5C4FEA430C18BF7FEA6C5C1BD03A
:100A100001B050EA410C0CBF52EA430C91EA030FBB
:100A200002BF90EA020F0020704710F1000F91EA18
:100A3000030F58BF994208BF90422CBFD8176FEAE6
:100A4000E37040F0010070474FEA410C7FEA6C5CB4
:100A500002D150EA013C07D14FEA430C7FEA6C5CBB
:100A6000D6D152EA033CD3D05DF8040B704700BFE7
:100A70008446104662468C461946634600E000BF35
:100A800001B5FFF7B7FF002848BF10F1000F01BD07
:100A90004DF808EDFFF7F4FF0CBF012000205DF8D2
:100AA00008FB00BF4DF808EDFFF7EAFF34BF012057
:100AB00000205DF808FB00BF4DF808EDFFF7E0FFF0
:100AC00094BF012000205DF808FB00BF4DF808ED41
:100AD000FFF7CEFF94BF012000205DF808FB00BFA8
:100AE0004DF808EDFFF7C4FF34BF012000205DF88A
:100AF00008FB00BF4FEA410C7FEA6C5C02D150EA70
:100B0000013C0AD14FEA430C7FEA6C5C02D152EA05
:100B1000033C02D14FF0000070474FF001007047D6
:100B20004FEA410212F5001215D211D56FF4787315
:100B3000B3EB625212D94FEAC12343F0004343EAB8
:100B4000505311F0004F23FA02F018BF4042704793
:100B50004FF00000704750EA013005D111F000401D
:100B600008BF6FF0004070474FF00000704700BFB3
:100B700010B5054C227832B9044B13B10448AFF3D9
:100B800000800123237010BDB0070020000000008A
:100B900044BC0008074B10B51BB107490748AFF329
:100BA00000800748036823B1064B13B1BDE810402D
:100BB000184710BD00000000B407002044BC000826
:100BC000B00700200000000038B5224B2248196908
:100BD0000122026669BB596AA9B99A6B5ABBDA6CE1
:100BE0005ABB1A6E5ABB5A6F5ABBD3F8882052BBF5
:100BF000D3F89C204ABBD3F8B0201AB9D3F8C4204C
:100C00002ABB38BD0822154C15492568154802EB4A
:100C1000820203EB820305EB850201EB8202DB68B3
:100C2000D3601146956004F053FF236801332360BD
:100C300038BD0022E7E70222E5E70322E3E70422CA
:100C4000E1E70522DFE70622DDE70722DBE70922ED
:100C5000D9E700BFCC57002068300120945800200D
:100C6000CC070020382E012038B50B4D0B4BD5F8A2
:100C7000D81002221A6669B1803501E021464CB1D4
:100C80000B694C68002BF9D0284604F03DFF214643
:100C9000002CF5D138BD00BFB82D012068300120EF
:100CA00000B50648064983B090E80C0080680090C3
:100CB000044807F0BDFC03B05DF804FBFC580020BD
:100CC00060BC0008985800202DE9F04F8BB05E4BB7
:100CD0005E4DDFF8BC91DFF8BCB100248846C82720
:100CE0000968059303204FF4A0738DE888000494ED
:100CF0002246039002950A23554805F04BF8554AC1
:100D0000554B1268029205F1040A23260393534AB5
:100D10000594642304945146484606920196009334
:100D20000A22A32304F00CFC4D4A4E4B12684B4997
:100D30000691642051460594049401960090029215
:100D400009F16C0003937322A32304F0F9FB464BD3
:100D500046481B68D8F8001002934FF49B72019626
:100D60003B46039000924248DFF82C91414F052208
:100D700005F09AF80A2605F120084FF0280A962572
:100D80003D4B0694049441465846079303963346D8
:100D9000324602978DE82004CDF8149004F04AFE04
:100DA0003A1D0C2334490791069404940396009548
:100DB000414602920BF1700032460193CDF8149037
:100DC0003C2304F037FE2C4B079308371222642390
:100DD000029706940494039301950BF5A87041467D
:100DE00033460092CDF81490AA2204F023FE234843
:100DF000234B00954146324603900293CDF804A060
:100E00005023204804F004FC1F4A204B51690991EB
:100E10009169C3F88410D169176856689568D468D9
:100E20001069C3F89810116A526AC3F8C020099A71
:100E3000C3F8AC10DF601E625D639C64D8651A67FE
:100E40000BB0BDE8F08F00BF4C0000206401002013
:100E50006830012034010020C90B00080000002088
:100E600060010020690C0008E4000020B8010020A7
:100E700070320120FC580020E8000020980000207B
:100E800098580020D030012038010020CC57002095
:100E9000B82E0120682C0120A10C00082DE9F04F8C
:100EA000524E534C3370534B22608BB0524D534CC7
:100EB00019704B1E149A03930023814601912860F8
:100EC00022600293029B039A93423ADA019903EB60
:100ED000430B0133DBB209EBCB0B0846984202937C
:100EE000BBF80E20EED91C4604EB440309EBC30308
:100EF00004AFB3F80EA0013492455E46BC461D46D1
:100F00009846DE46E4B215D20FCD0FC795E8030030
:100F100087E803000FCEA8E80F0096E8030085E8F5
:100F20000300BCE80F00AEE80F0097E8030086E876
:100F300003005246019BA342D6D1029B039A9342DF
:100F4000C4DB019B83B12E4D002404EB440309EB69
:100F5000C3032846DA89596807F052FB254B013450
:100F60001B78E4B2A342F0D82648002208210546A7
:100F700000F0F2FC082400221021284600F0ECFCCE
:100F800000222021284600F0E7FC012210212846FB
:100F900000F0E2FC631E13F0FF04ECD119480122BB
:100FA0000821054600F0D8FC22460821284600F01A
:100FB000D3FC082400221021284600F0CDFC00229A
:100FC0002021284600F0C8FC01221021284600F00C
:100FD000C3FC631E13F0FF04ECD10A480122082170
:100FE0000BB0BDE8F04F00F0B7BC00BF28330120C4
:100FF00034330120303301202C33012038330120D9
:10100000B4BE0008000402402DE9F84F954B1C784F
:10101000002C00F02581944A00231268984601258F
:1010200005E00133D9B28C4202F10C0214D91178D7
:1010300098B20029F5D011898142F2D1917A05FA4E
:1010400003F0002900F0E0800133D9B28C4248EA75
:10105000000802F10C02EAD8844B1A78002A00F04A
:10106000DC80DFF81492824F0025AA4240F3D18041
:101070002EB2D9F8000006EB460300EBC3030024B0
:10108000D98902E0DB898B4209D10134E4B204EB57
:10109000050A0AEB4A03524500EBC303F2DC511E7A
:1010A000C9B2D9F80030013101EB410106EB46002D
:1010B0001A4603EBC10103EBC0001378A3B1D38937
:1010C000B0F80EE092F810C0AEEB030EBEFA8EFE42
:1010D0004FEA5E1EE6454FF0010E0EFA03F30CBF19
:1010E00048EA030828EA030818329142E5D10022B1
:1010F0000821384600F030FC4FF0070B0022102189
:10110000384600F029FC28FA0BF202F001022021F7
:10111000384600F021FC0BF1FF3B0122102138463C
:1011200000F01AFCBBF1FF3FE8D10122082138464C
:1011300000F012FC002C31D00135013C55FA84F549
:1011400005EB450506EB4606ED00F60002E0183615
:10115000B54223D0D9F800403444A189A06800F0FA
:10116000F5FB237C003318BF01238342637C20D02E
:10117000002BECD04FF00003637400F0B7F8626905
:10118000821AB2F5FA7F24D93A4B1B68002BDED0C5
:101190006068042118369847B542DBD1334B1A7882
:1011A0005FFA8AF5AA423FF660AF002A35D0BDE863
:1011B000F88FC3B100F09AF86269821AB2F5FA7F2B
:1011C00018D92C4B1B68002BC1D0606808219847A8
:1011D000BDE71E2ABBD9274B1B68002BB7D0606820
:1011E00001219847B3E74FF00103637400F07EF8E4
:1011F0006061ACE71E2AAAD91E4B1B68002BA6D043
:10120000606802219847A2E705FA03F128EA01087D
:1012100007E70024AA462EB241E71548002208211C
:10122000054600F099FB072400221021284600F013
:1012300093FB28FA04F202F001022021284600F074
:101240008BFB013C01221021284600F085FB631C2A
:10125000EAD1012208210648BDE8F84F00F07CBB26
:10126000A046F9E628330120343301203033012031
:1012700000040240383301202C330120084B094A76
:101280001B6810B5A2FB03230446980900F096F8EA
:10129000214600224FF0FF3000F04EF8002010BD34
:1012A000DC050020D34D621008B50B4B1A6842F4E0
:1012B00000721A601A6842F480621A601A6842F476
:1012C00080721A60032000F025F80020FFF7D6FF97
:1012D00006F0ACFB002008BD003C0240024A136847
:1012E00001331360704700BF3C330120014B186885
:1012F000704700BF3C33012010B582B00190FFF76A
:10130000F5FF0446FFF7F2FF019B001B9842F9D35B
:1013100002B010BD074AD3684FF6FF010B40000230
:1013200043F0BF6300F4E06043F400330343D36051
:10133000704700BF00ED00E0184B70B4DC68C4F3E8
:101340000224C4F10706042E04F1040328BF042676
:10135000062B17D9033C0125A540013D2A40012356
:10136000B340013B1940A140002841EA02010CDBD7
:1013700000F1604000F561400901C9B280F8001336
:1013800070BC704700221446E9E7054B00F00F00DF
:1013900009010344C9B2197670BC704700ED00E042
:1013A000FCEC00E000F01F0101234009024A8B40E1
:1013B00042F82030704700BF00E100E00138B0F192
:1013C000807F0ED2084B10B4084C5860F02084F88F
:1013D00023000022072110469A6019605DF8044B33
:1013E00070470120704700BF10E000E000ED00E012
:1013F000044A136804280CBF43F0040323F00403D9
:101400001360704710E000E0704700BF08B5FFF7B9
:10141000FBFF08BDF8B50446FFF768FF002C6FD04E
:101420000222236884F835201A68002122F0010284
:1014300084F8341005461A6005E0FFF757FF401B9B
:1014400005283BD823681A68D107F6D4A7686268D4
:10145000E66825696169A0693A4332432A430A4331
:10146000E169256A1F68344E02430A43616A2A43D0
:101470003E40042942EA060227D01A605A6922F047
:1014800007021143DAB22D4D5961103AA5FB021241
:1014900012092B4823F47F73815CE16523F0030379
:1014A000032A88BF04333F228A4001250021A36517
:1014B00008469A60616584F83550F8BD0323202200
:1014C0006265184684F83530F8BDE66A216BA56A76
:1014D00031430A431A605A6945F0040122F00702B9
:1014E000114378B9012D23D001D3022DCAD1F201C5
:1014F000C8D5012340226265184684F83530F8BD0E
:101500000120F8BDB0F5005F04D0022DF1D9032D04
:10151000B8D1ECE7032DB5D801A252F825F000BFF1
:10152000F3140008EF140008F31400083115000844
:10153000B6F1C07FA6D1DCE73F8010F0ABAAAAAA23
:10154000BCBE0008F0B490F83440012C0DD090F8E7
:101550003540866D0125AC4280F8345008D0002318
:1015600080F834300220F0BC70470220F0BC704795
:1015700004680227002580F835704565256887686E
:1015800025F48025402F256063600ABFA260A1601A
:10159000E160C16D18BFE2603F238B40026CB36015
:1015A000236843F016032360636943F0800363619B
:1015B0001AB1236843F008032360236843F0010352
:1015C00023600020CFE700BFF0B583B00023876D14
:1015D0000193C36D3D68624908229A401542044652
:1015E0000E6803D001680868400776D45D4A9A40C7
:1015F000154203D021684969080668D45A4A9A40BE
:10160000154203D02168096889075AD410229A40EC
:10161000154203D02168086800073FD420229A4071
:10162000154203D021680868C00625D4636D0BB34A
:10163000636DDA071AD50523216884F835300B6805
:101640004A4A23F00103A2FB06020B60920A02E061
:101650000B68DB0704D5019B01339A420193F7D253
:101660000022012384F8342084F83530E36C0BB178
:101670002046984703B0F0BDBA6094F83520052A9B
:101680003BD00B6813F4802F0B6854D019035FD53F
:10169000E36B002BCAD020469847C7E7BA600A68B8
:1016A00012F4802F0A6822D1D20503D40A6822F0EE
:1016B00008020A60226C002AB0D020469047E36DF1
:1016C000ACE7BA60626D42F0040262659EE7BA6000
:1016D000626D42F00202626590E7086820F0040043
:1016E0000860BA60626D42F0010262657EE7110334
:1016F000E0D5A26C002AE0D190E70A68206C22F0C5
:1017000016020A604A6922F080024A6120B30A6820
:1017100022F008020A603F22216D02FA03F3002042
:101720000122BB6084F8340084F835200029A1D060
:10173000204688479EE713F48073A9D10A680120E8
:1017400022F010020A6084F8343084F835009FE7F4
:10175000636C002B9FD169E7A26C002AD7D1DAE72E
:10176000DC0500200100800004008000B5814E1BD4
:101770002DE9F04FD1F800C0DFF8CCE183B00025AF
:101780004FF0010803E00135102D00F0878008FAC2
:1017900005F303EA0C029342F5D14E6826F0100AD5
:1017A000BAF1020F7DD04FEA45090324D0F800B00A
:1017B00004FA09F4E44306F003070BEA040B07FA02
:1017C00009F70AF1FF3A47EA0B07BAF1010F076080
:1017D00040F28E80C7688B683C4003FA09F32343CC
:1017E000C360F300CFD500230193524B514C5B6C87
:1017F00043F480436364636C25F0030707F180477B
:1018000003F4804307F59C37019305F00303019C23
:10181000D7F808909B000F249C4029EA040A464C04
:10182000A04278D004F58064A04276D0434CA04218
:1018300076D0434CA04278D0424CA0420CBF4FF02F
:1018400004094FF0070909FA03F343EA0A03BB60EE
:10185000DEF80030D443F70354BF23401343CEF8DF
:101860000030DEF80430B70354BF23401343CEF8F2
:101870000430DEF80830F70254BF23401343CEF89B
:101880000830DEF80C30B60205F1010554BF2340E4
:101890001343102DCEF80C307FF479AF03B0BDE8C0
:1018A000F08F4FEAD50900EB890905F00704D9F854
:1018B0002070A4004FF00F0B0BFA04FB27EA0B0A71
:1018C0000F6907FA04F444EA0A04C9F820404FEA11
:1018D00045090324D0F800A004FA09F4E44306F013
:1018E00003070AEA040A07FA09F747EA0A07076042
:1018F000876807EA040ACF6807FA09F747EA0A0780
:101900008760D0F804A0C6F300172AEA0303AF40AB
:101910001F4347605EE7002397E708FA03F394E765
:101920004FF0020909FA03F38FE74FF0030909FAB0
:1019300003F38AE70038024000000240000802403A
:10194000000C024000100240003C014003691942B3
:1019500014BF01200020704702B90904816170475B
:10196000F8B504460D46164623685869C04310F082
:10197000020026D05A69510511D51A6800216FF46A
:10198000806742F40072042620251A6001205F61FE
:10199000266484F83C10216384F83D50F8BD6A1C2D
:1019A000E3D045B900232022236384F83C3084F837
:1019B0003D200320F8BDFFF799FC801B8542D3D260
:1019C000F0E7F8BD00286CD0F8B590F83D3004463B
:1019D00003F0FF02002B4FD02268334D242384F8FC
:1019E0003D30136823F00103136000F0CBFE2F4A53
:1019F00061682368A2FB0062920CA9425A6026D853
:101A00004900B0FBF1F0C0F30B01013203291A6267
:101A100098BF0420E569D4F820E02169E76862698D
:101A2000A669D86145EA0E05394332431D609960C5
:101A3000DA601968002241F0010120251960104682
:101A4000226484F83D50226384F83E20F8BD4FF4B0
:101A50009675174FA66805FB02F2A7FB0252920982
:101A600001321A626EB901EB4101B0FBF1F0C0F333
:101A70000B029AB90120CDE780F83C2005F03AFC32
:101A8000AAE701EB810101EB8101B0FBF1F0C0F3AA
:101A90000B02002AEED040F44040BBE740F4004087
:101AA000B8E70120704700BFA086010083DE1B431A
:101AB000D34D62102DE9F043044683B01E4688469C
:101AC0001746FFF713FC94F83D30202B03D002207B
:101AD00003B0BDE8F083814606E0FFF707FCA0EB0A
:101AE0000900192800F2988023689A69D24312F0FD
:101AF0000205F2D094F83C20012AE8D01A680121AE
:101B0000D20784F83C1002D41A680A431A601A6893
:101B1000A14922F400621A60212284F83D2010229B
:101B200084F83E20002222646685E162618DE26ACB
:101B30006762042A218500F0AD80012A00F0AA80A6
:101B400012F5803F00F0A680226B122A00F0A280DE
:101B50000A9A013240F08E805A69D507FCD5226975
:101B6000B2F5804F40F0C38008F0FE021A610A9A75
:101B7000013204D0DCE05A69520500F190805A69C4
:101B80009107F8D5002201925A6901929A6901924F
:101B9000019A228D002A00F09D800A9A013245D1D7
:101BA0005A69100614D45A695105F9D500226FF408
:101BB0008065042020215D61206484F83C2022633C
:101BC00084F83D10236C042B00F0DF8003207FE7B6
:101BD000616A208D4A1C62620A781A61628D013A3C
:101BE00092B262855A69451E570725850AD54EB1BE
:101BF0008A1C62624A781A61628D013A023892B296
:101C0000208562850A9A013222D15A695007C0D4D0
:101C10005A695105CAD4F8E72023256384F83C505B
:101C200084F83D30022084F83E5051E75A6912068C
:101C3000CED45A695505B9D40A9B002B6CD0FFF756
:101C400055FB0A9BA0EB0900834265D32368A4E7F8
:101C50005A6952079DD45A695505A7D40A9B002B8F
:101C60005AD0FFF743FB0A9BA0EB0900834253D3F2
:101C70002368C7E75A69D0073FF571AF0A9B002B6D
:101C800079D0FFF733FB0A9BA0EB0900834272D3A4
:101C900023685DE71A6842F480721A6058E71A6890
:101CA00000216FF4806642F40072042520201A603F
:101CB0005E61256484F83C10216384F83D00236C48
:101CC000236C042B4FF0000384F83C307FF47EAF8C
:101CD0000120FDE61968202541F4007119601046C5
:101CE00084F83D5084F83C2084F83E20F0E64FEA2A
:101CF000E81202F0060242F0F0021A610A9A01327A
:101D000003D027E05A695705C9D45A691207F9D593
:101D10005FFA88F21A612AE7236C002243F020035D
:101D20002021236484F83C20226384F83D1049E795
:101D30005A6997073FF526AF5A695005AFD40A9BF9
:101D400063B3FFF7D3FA0A9BA0EB0900834225D3C4
:101D500023680CE75A691507DAD45A6951059ED4ED
:101D60000A9BDBB1FFF7C2FA0A9BA0EB0900834292
:101D700014D32368C2E700232022236384F83C3075
:101D800084F83D2084F83E309AE72268136843F4D3
:101D9000007313609CE700BF0000FFFF00232022B8
:101DA000236384F83C3084F83D2088E72DE9F04730
:101DB000044686B09846894617460E9DFFF796FA68
:101DC00094F83D30202B03D0022006B0BDE8F08708
:101DD000064604E0FFF78AFA801B192864D82368B6
:101DE0009A69D24312F0020A1946F3D094F83C20C3
:101DF000012AE9D01A680120D20784F83C0002D4F5
:101E00001A6802431A601A689D4822F400621A6038
:101E1000222284F83D20102284F83E2000222264F1
:101E2000A4F82A80E062B4F82AE0E06A1A686762DF
:101E300042F480620428A4F828E01A604ED00128F9
:101E40004CD010F5803F49D0226B112A46D06F1C30
:101E500035D15A69D007FCD52269B2F5804F40F0E0
:101E6000058149F00102D2B21A616A1C04D052E124
:101E70005A69500500F170815A699707F8D5228D8B
:101E80008ABB01925A6901929A690192019A1A6871
:101E900042F400721A600020202384F83D3084F858
:101EA0003C0084F83E0090E72023C4F830A084F87A
:101EB0003CA084F83D30022084F83EA085E75A69B2
:101EC000D207C9D4002D00F06781FFF70FFA801BFD
:101ED0008542C0F0618123681946B8E71A6842F468
:101EE00080721A60B3E7012A196800F04681022A5D
:101EF00000F05C8141F48061002019600490596910
:101F00000491996904910499032A76D8012A00F072
:101F1000D480022A46D0681C50D15A695107FCD59A
:101F20001A68616A22F480621A601B694A1C626244
:101F30000B70638D228D013B9BB2013A6385228534
:101F40006B1C226845D153695F07FCD51368616A31
:101F500043F40073136013694A1C62620B70638D53
:101F6000228D606A2168013B9BB263850969531E1B
:101F7000421C238562620170228D638D013A013B10
:101F800092B29BB222856385002A84D02368BBE786
:101F90005A6957070BD42DB3FFF7A8F9801B854268
:101FA00020D32368691CF3D15A695207FCD51A68FB
:101FB000616A42F400721A601B69CDE75A695207E0
:101FC000AED47DB1FFF792F9801B85420AD3236816
:101FD000A1E753695807B9D425B1FFF787F9801BEA
:101FE0008542ADD200232022236384F83C3084F85C
:101FF0003D20032084F83E30E7E64DB922E05A69DF
:10200000D70668D4FFF772F9801B854220D3236876
:102010005A695206F3D5626A1B69511C61621370DA
:10202000618D2368228D013989B261855969013A30
:1020300092B249072285A7D5626A1B69511C616269
:10204000137099E75A695006E5D45A69D10642D40B
:10205000236C202213430021236484F83C1084F86D
:102060003D20236C202B26D00120AEE64FEAE91755
:1020700007F0060747F0F0021A61681C05D03AE045
:102080000000FFFF4B695B0555D44B691A07F9D572
:102090005FFA89F30B61324629462046FFF760FC60
:1020A000002800F09280236C236C042B4FF0000377
:1020B00084F83C30D8D0032087E635B917E0FFF725
:1020C00015F9801B8542C3D323685A695206B3D4DD
:1020D0005A69D706F3D500226FF01000202158610D
:1020E000226484F83C20226384F83D10B9E75A69E1
:1020F0005006AAD5A0E74B691807C9D44B695B0500
:1021000019D4002D00F08180FFF7F0F8801B854284
:102110007BD32168B1E75A6991073FF5B0AE5A69A0
:10212000510519D4002D70D0FFF7E0F8801B8542CF
:102130006BD3236899E60B6800226FF4806643F442
:102140000073042520200B604E61256484F83C2038
:10215000226384F83D00A6E71A6800216FF48066C8
:1021600042F40072042520201A605E61256484F820
:102170003C10216384F83D0095E721F48061002044
:10218000196002905969029199690291029919683E
:1021900041F400711960B7E600232022236384F81C
:1021A0003C3084F83D2084F83E307DE721F48061A6
:1021B00019601968002041F40061196003905969A1
:1021C00003919969039103999EE6236805905A69E2
:1021D00005929A690592059A1A6842F480721A600B
:1021E000691C06D15A69D207FCD547F0F1071F6177
:1021F0003BE65A69D007F8D4002DCDD0FFF776F82A
:10220000801B8542C8D32368EAE70023202223638A
:1022100084F83C3084F83D2045E700BFF0B5036802
:10222000DD0783B004462FD5A3498A6802F00C026B
:10223000042A00F0F4808A6802F00C02082A00F0F8
:10224000EA806368B3F5803F00F02C81B3F5A02FDE
:1022500000F00081984D2A6822F480322A602A68B2
:1022600022F480222A60002B40F0FD80FFF73EF828
:10227000064605E0FFF73AF8801B642800F2AA80C2
:102280002B689B03F6D423689F072DD58A4A916853
:1022900011F00C0F00F0A580916801F00C010829E5
:1022A00000F09B80E368002B00F0EB80834B824DB5
:1022B00001221A60FFF71AF8064605E0FFF716F844
:1022C000801B022800F286802B689807F6D52968C3
:1022D000F82292FAA2F22369B2FA82F221F0F8010E
:1022E00093400B432B6023681A0720D4590734D43A
:1022F000A369CBB1704DAA6802F00C02082A77D00E
:10230000022B6F4B4FF000021A6000F0D180FEF7F5
:10231000EDFF2C46054604E0FEF7E8FF401B0228CF
:1023200058D823689B01F7D4002003B0F0BD63693F
:10233000002B60D0634B604D01221A60FEF7D6FF80
:10234000064604E0FEF7D2FF801B022842D86B6FDE
:102350009F07F7D523685907CAD5574B5A4D002216
:1023600001921A6C42F080521A641B6C03F0805385
:102370000193019B2B6843F480732B60FEF7B6FF3B
:10238000064604E0FEF7B2FF801B022822D82B6825
:10239000DA05F7D5A368012B00F0F180052B00F0DA
:1023A000D580454D2A6F22F001022A672A6F22F05C
:1023B00004022A67002B40F0D280FEF797FF41F21B
:1023C000883607462B6F980792D5FEF78FFFC01B04
:1023D000B042F7D9032003B0F0BD526856023FF572
:1023E00061AF354A1268950723D5E268012A20D0EB
:1023F000012003B0F0BD334A2F4D1360FEF776FF86
:10240000064604E0FEF772FF801B0228E2D86B6FDD
:102410009807F7D49EE74A6850027FF512AF264A24
:10242000126891037FF530AF6268002A7FF42CAF09
:10243000DEE7214DF821286891FAA1F12269B1FA6D
:1024400081F120F0F8008A4002432A601A077FF5E4
:102450004DAF6CE7184B1A6842F480221A601A6874
:1024600042F480321A60FEF741FF134D064604E045
:10247000FEF73CFF801B6428ACD82B689A03F7D585
:1024800001E70E4A0C4D1360FEF730FF064604E0EC
:10249000FEF72CFF801B02289CD82B689907F7D4E5
:1024A000236821E7044A136843F480331360DAE7B2
:1024B000FEF71CFF06460FE00038024000004742CE
:1024C00060004742800E474200700040FEF70EFF5A
:1024D000801B02283FF67EAF2B689901F6D447F6A1
:1024E000C07696FAA6F64FF44032B6FA86F692FA1D
:1024F000A2F24FF07061B2FA82F091FAA1F1A26AF1
:10250000676AE369D4F820E0E46A520843EA0E03FC
:1025100007FA06F6013A8240B1FA81F1334304FA30
:1025200001F11343194A1A4C0B4301216B601160EE
:10253000FEF7DCFE054605E0FEF7D8FE401B02284C
:102540003FF648AF23689A01F6D5EDE6104B1A6FB7
:1025500042F004021A671A6F42F001021A67FEF78E
:10256000C5FE0B4D074641F288362B6F9B073FF5A2
:10257000BFAEFEF7BBFEC01BB042F6D92AE7044A45
:10258000136F43F001031367E9E700BF60004742A0
:1025900000380240194A936803F00C03042B2BD037
:1025A000082B27D15168536801F03F0113F4800FC5
:1025B000536847F6C07292FAA2F0B0FA80F003EACC
:1025C000020323FA00F314BF0D480E48B0FBF1F0EC
:1025D00000FB03F0094B4FF440325B6892FAA2F221
:1025E000B2FA82F203F44033D34001335B00B0FB14
:1025F000F3F07047034870470148704700380240C5
:1026000000127A000024F400574A136803F00F0305
:102610008B4208D2CBB21370136803F00F039942B8
:1026200001D00120704703689A072DE9F04106D5D3
:102630004E4C8568A26822F0F0022A43A260DF07B0
:1026400006460C4626D54268012A00F08780931E74
:10265000012B464B1B687BD9990728D5434DAB68A6
:1026600023F003031343AB60FEF740FE7368012BB6
:10267000074641F288384FD0022B58D0032B05D1A2
:1026800060E0FEF733FEC01B404564D8AB6813F032
:102690000C0FF6D1344A136803F00F039C4209D2A1
:1026A000E3B21370136803F00F039C4202D00120C1
:1026B000BDE8F08133685A0706D52C49F0688A686E
:1026C00022F4E05202438A601B0707D5274A31698A
:1026D000936823F4604343EAC1039360FFF75AFF12
:1026E000224B0146F0229B6892FAA2F2B2FA82F2E1
:1026F00003F0F003D3401E481E4AC35C002021FAB9
:1027000003F31360FEF7BAFD0020BDE8F081FEF789
:10271000EDFDC01B40451ED8AB6803F00C03042B35
:10272000F5D1B7E7FEF7E2FDC01B404513D8AB6813
:1027300003F00C03082BF5D1ACE7FEF7D7FDC01B67
:10274000404508D8AB6803F00C030C2BF5D1A1E78A
:10275000980183D4ABE70320BDE8F081034B1B68ED
:102760009D033FF57BAFA2E7003C024000380240EA
:10277000C4BE0008DC050020014B1868704700BF8C
:10278000DC050020084B4FF4E0529B6892FAA2F25D
:10279000B2FA82F203F4E053D3400449044ACB5C1A
:1027A0001068D840704700BF00380240C4BE00081F
:1027B000DC050020084B4FF460429B6892FAA2F2BD
:1027C000B2FA82F203F46043D3400449044ACB5C7A
:1027D0001068D840704700BF00380240C4BE0008EF
:1027E000DC050020F0B5436A87B0044600221B04D4
:1027F0004FF00D0E0D460068019340274FF48066A0
:1028000001A900920492CDF808E00397059601F023
:1028100097FF2068436B13F0450FFBD0436B5E07B7
:1028200004D504238363032007B0F0BD466B16F084
:10283000010604D001238363184607B0F0BD01F000
:1028400093FF0D2802D0102007B0F0BD236840F29E
:10285000FF529A63304601F08BFF0090009B334893
:10286000009AC3F3432310402B700028DCD0009B58
:10287000002B04DB009B590003D50920D4E71C2062
:10288000D2E7009B9A0001D50A20CDE7009BDB0030
:1028900001D50B20C8E7009B1F0101D50C20C3E721
:1028A000009B5E0101D50D20BEE7009BDD0101D537
:1028B0000E20B9E7009B1C0201D50F20B4E7009B56
:1028C0005902C0D4009B9A0201D51120ACE7009BAD
:1028D000DB0201D51220A7E7009B1F0301D51320BF
:1028E000A2E7009B5E0301D514209DE7009B9D039A
:1028F00001D5152098E7009BDC0301D5162093E74E
:10290000009B190401D517208EE7009B5A0401D5BE
:10291000182089E7009B9B0401D5192084E7009BC0
:1029200013F0080F0CBF00201A207DE708E0FFFD20
:1029300008B5036840F2FF529A63002001F018FFC7
:10294000294B03403BB1002803DB420005D5092099
:1029500008BD1C2008BD184608BD830001D50A200B
:1029600008BDC10001D50B2008BD020101D50C2016
:1029700008BD430101D50D2008BDC10101D50E20C0
:1029800008BD020201D50F2008BD430201D5102069
:1029900008BD810201D5112008BDC20201D5122057
:1029A00008BD030301D5132008BD410301D5142040
:1029B00008BD820301D5152008BDC30301D516202B
:1029C00008BD010401D5172008BD420401D5182017
:1029D00008BD830401D5192008BD10F0080F0CBFF5
:1029E00000201A2008BD00BF08E0FFFD38B50268CE
:1029F000536B13F0450FFBD0536B5C0703D50423D7
:102A00009363032038BD536BDB0702D5012090632D
:102A100038BD044610460D4601F0A6FEA84201D07E
:102A2000102038BD2046BDE83840FFF781BF00BF09
:102A30002DE9F0418EB000230446019302930693E2
:102A400040224FF480630D460068059203A90827D1
:102A5000102603970496079301F072FE2068436BDB
:102A600013F0450FFBD0436B5A0706D5042383634D
:102A7000032630460EB0BDE8F081436BDB0705D579
:102A80000126866330460EB0BDE8F08101F06CFE91
:102A9000102804D0102630460EB0BDE8F081204644
:102AA000FFF746FF06460028E3D1636A20681B044F
:102AB000372203A90393049201F042FE2068436B7E
:102AC00013F0450FFBD0436B5F07CFD4436BDE079A
:102AD000D6D401F049FE3728DCD12046FFF728FF85
:102AE000074606460028C4D14FF0FF3308213020A6
:102AF000022208930991012308A90A9020680B92E9
:102B00000D930C9701F040FE332303A9206803972F
:102B1000049301F015FE2068436B13F0450FFBD0C2
:102B2000436B5907A2D4436BDA07A9D401F01CFE0A
:102B30003328AFD12046FFF7FBFE0646002898D188
:102B40000DF1040840F22A67206801E09B0209D4D5
:102B5000436B3B42436BF9D01C0708D508238363C2
:102B6000042686E701F0DAFD48F8040BECE7436B36
:102B7000990702D5022686637BE7436B9A0603D545
:102B800020238363062674E7436B9B0504D54FF42B
:102B90000073836307266CE7019A029B12BA40F226
:102BA000FF511BBA81636A602B6062E72DE9F04335
:102BB000044691B0D4F820E00068189E0025BEF1CC
:102BC000020FC56217460D4626D0102240230192FF
:102BD000029300224FF480636946009603920493A7
:102BE00001F0AEFD2068436B13F0450FFBD0436B43
:102BF0005A0707D5042383634FF00308404611B0FA
:102C0000BDE8F083436BDB070CD501239846836353
:102C1000404611B0BDE8F083570A47EAC3574FF466
:102C20000076D2E701F0A0FD102805D04FF0100883
:102C3000404611B0BDE8F0832046FFF779FE034619
:102C400080460028DAD1199A0E934FF0FF31902078
:102C5000012302FB06F60A9102220AA90C902068C1
:102C60000F930B960D9201F08FFD199B012B694676
:102C700043D9122320680097019301F061FD206879
:102C8000436B13F0450FFBD0436B5E07B2D4436B2D
:102C9000D907BAD401F068FD1228C7D12046FFF742
:102CA00047FE80460028A9D140F22A37236802E077
:102CB0005A6B120413D45A6B3A42F9D05A6BD205AC
:102CC00002D5226A022A57D95A6B11073FD54FF015
:102CD0000408082240469A6311B0BDE8F0832E1F15
:102CE00005F11C0900E02368184601F017FD46F8BD
:102CF000040F4E45F7D12035D8E7112320680097FF
:102D0000019301F01DFD2068436B13F0450FFBD0CC
:102D1000436B5E073FF56EAF436BD9073FF575AF69
:102D200001F022FD112881D12046FFF701FE8046E7
:102D300000287FF463AF40F22A67236802E05A6BF1
:102D400012040BD45A6B3A42F9D05A6BBCE75A6B57
:102D500092072CD502229A6390464FE72E1F05F169
:102D60001C0900E02368184601F0D8FC46F8040F5F
:102D7000B145F7D12035E0E718464FF480620023D3
:102D80000C27402605A905930893069707960992F4
:102D900001F0D6FC23685A6B12F0450FFBD05A6B3A
:102DA000560715D504229A634FF003088CE75A6B37
:102DB000970604D520229A634FF006081EE75A6B47
:102DC00096050CD54FF400729A634FF0070815E78B
:102DD0005A6BD00719D501229A63904674E75A6B53
:102DE000900248BF4FF0FF3602D40AE0013E08D0FF
:102DF000184601F093FC236845F8040B5A6B9102C6
:102E0000F4D440F2FF529A63F8E6184601F0ACFCA5
:102E10000C2803D023684FF0100855E72046FFF731
:102E200087FD236880464FE72DE9F047054692B0BD
:102E3000D5F820E000681A9F0024BEF1020FC4629A
:102E40008DF807400E4691461B9C26D01022402349
:102E50000392049300224FF4806302A90297059223
:102E6000069301F06DFC2868436B13F0450FFBD00F
:102E7000436B590707D5042383634FF0030840468B
:102E800012B0BDE8F087436BDA070DD501239846F1
:102E90008363404612B0BDE8F0874FEA522949EA01
:102EA000C3594FF40077D1E701F05EFC102805D03C
:102EB0004FF01008404612B0BDE8F0872846FFF7F3
:102EC00037FD80460028DAD1012C02A95AD91923EE
:102ED0002868CDF80890039301F032FC2868436B12
:102EE00013F0450FFBD0436B5B07C4D4436BD9078A
:102EF000CCD401F039FC1928DAD12846FFF718FDA7
:102F000080460028BBD14FF0FF31902201230F9063
:102F100010900C9104FB07F70CA928680D970E92EE
:102F2000119301F031FC012C28685FD940F21A346A
:102F300002E0436B590414D4436B2342F9D0436B32
:102F4000DB0503D52B6A022B40F28280436B1E0700
:102F500045D508234FF004088363404612B0BDE80E
:102F6000F087A7EB08031F2B26D9B1462036494628
:102F700009F1040901F0D6FB4E452868F7D108F1A4
:102F80002008D9E718232868CDF80890039301F0AA
:102F9000D7FB2868436B13F0450FFBD0436B5A07F0
:102FA0003FF569AF436BDB073FF570AF01F0DCFB2A
:102FB00018287FF47DAFA0E79A0733D19B08BBD0D8
:102FC0004FEA830A06EB0A0900E028683146043616
:102FD00001F0A8FB4E45F8D1D0442868ACE7436B1C
:102FE0009C074DD502238363984648E740F21A694F
:102FF00002E0436B590405D4436B13EA090FF8D080
:10300000436BA3E7A7EB08031F2B0ED934462036EA
:103010002146043401F086FBB4422868F8D108F157
:103020002008E9E79B080133CAE79A0730D19B08DB
:10303000E2D04FEA830A06EB0A0400E02868314632
:10304000043601F06FFBB442F8D1D0442868D3E7CE
:1030500000234FF480620C26402407A907930A93AB
:10306000089609940B9201F06BFB2868436B13F0F0
:10307000450FFBD0436B5B0716D50423836365E7DD
:10308000436BD90607D5102383634FF00508F6E696
:103090009B080133CDE7436B9A0511D54FF40073BC
:1030A00083634FF00708EAE6436BDF0702D501238D
:1030B00083634BE701F058FB0C281CD0286845E7D8
:1030C00040F2FF5383630DF107012846FFF78AFBA7
:1030D000804600287FF4D3AE9DF80730063B012BD5
:1030E0003FF6CDAE0DF107012846FFF77BFB002828
:1030F000F2D08046C3E62846FFF71AFCDEE700BFA1
:103100002DE9F043056A81F85650836A0246406A09
:10311000A1F85400980F0870C3F38367C3F30166E6
:10312000C3F30744C3F30720DBB24F708E70CC703B
:1031300008714B71D46A230E1B01CB80C888C4F37D
:10314000035680B2C4F307233043C4F30346C88058
:10315000DF090E72C3F34010C3F380164F72012DC6
:103160008E72C3F30017C8724FF000000F734873DC
:1031700040F2A280022D00F0DD80156B29205B005B
:1031800003F07E034E768B768B7EC5F3C01423430B
:1031900005F07F058B76CD76536B9C0DDF0FC3F367
:1031A0004176C3F3826504F00C040F774E778D7778
:1031B000CC77CC7FC3F381552C43C3F34057C3F383
:1031C00000450026CC77C3F3C03881F82070C3F3E4
:1031D000803C81F82160C3F3403E81F82250C3F364
:1031E0000037C3F38126C3F301250124C3F346034B
:1031F00081F8238081F824C081F825E081F82670C9
:1032000081F8276081F8285081F8293081F82A4018
:10321000956BC5F307432E0E1B0281F82C60CB85FE
:10322000CE8DD36BC5F30727B6B23E432D06CE85B0
:103230000D630D6B1E0E45EA06450D630E6B1D0AF0
:1032400005F47F4535430D630E6BC3F30725354306
:10325000DBB20D6381F83430136C1D0C1E0E2D068D
:1032600081F835608D638E6B526C1D0205F47F050D
:1032700035438D638D6B1B029BB22B438B638B6B32
:1032800043EA12638B6391F83C50C2F30356130A6E
:10329000354303F4706381F83C50CB87CB8FC2F386
:1032A00007259BB22B43C2F34602CB8781F840200F
:1032B00081F84140BDE8F0839B0203F440630B6159
:1032C0000B69156BA40004F47F741C430C610C693A
:1032D000EB0B44EA9574C5F3425703F00603C5F3BC
:1032E0008246C5F3C26CC5F3026E0C6181F814C04E
:1032F00081F815E08F75CE750B760B7EC5F3C03463
:1033000023430B760E690F7E0C7A012306EB03082C
:1033100003FA04F4BE1CB340A8FB0489A8FB0367AE
:1033200003FB0977C5F30723C1E912670C65C3F3F3
:10333000801624E7240404F47C14156B0C610B69DB
:103340002C0E43EA04230B610C69C5F307432343A6
:103350000B610E690027013647F10007FC0444EABF
:103360005634C5F30723F6044FF400778E64CC641B
:10337000C3F380160F6502E72DE9F043002691B0F4
:10338000067704460D468DF8126004F0B1FA7623F4
:103390000F930D960E9610AB13E90700D4F800E0DA
:1033A0000A968DE807000B960C96AB4F0AAB0ECB36
:1033B000704601F097F98DF8136020683E6001F0C7
:1033C000B7F90120FDF798FF01233B6020680596BF
:1033D0004FF4806305A9099306960796089601F0B5
:1033E000AFF92068436B1B0600F1B780436B4FF6C3
:1033F000FF72C3F3C013002B40F0AF80436B013A60
:10340000C3F3C013F7D103238DF813309DF81330A5
:10341000002B40F0AD80402308224FF4D57605A95B
:1034200007930596069201F08BF92068436B13F021
:10343000450F40F090814FF4803302E0002B00F004
:103440005C81426B12F0450F03F1FF33F6D0426B03
:10345000002B40F0CE800423836303238DF81330C8
:103460009DF81330002B00F0BF80DFF8F0810022C0
:10347000372305A90592069301F062F92068436B92
:1034800013F0450FFBD0436B5E0740F1DD80042352
:10349000836303208DF813009DF8133003F0FF06BB
:1034A000002B65D137464FF001094FF0370E40220F
:1034B0004FF4806305A9206805970897CDF818E0B8
:1034C0000792099301F03CF92068436B13F0450F14
:1034D000FBD0436B5A0740F19C8004238363032095
:1034E0008DF813009DF8133003F0FF02002B3FD13D
:1034F0004FF0290C4FF0400E4FF4806305A920686F
:103500000892CDF81480CDF818C0CDF81CE00993CE
:1035100001F016F92268536B13F0450FFBD0536B83
:1035200013F0040371D00423936303238DF8133045
:103530009DF8133003F0FF00D3B901F019F900280A
:103540006EDB01364FF6FF739E42AED11B238DF822
:1035500013309DF81330DBB20DE040F2FF5383636C
:1035600000238DF813309DF81330002B3FF453AF38
:103570009DF81330DBB28DF812309DF8123003F055
:10358000FF062BB19DF81200C0B211B0BDE8F08368
:10359000206801F0D1F8002864D125268DF812604A
:1035A0009DF81230002BEDD129462046FFF7A8FDEB
:1035B0008DF812009DF8123003F0FF02002B00F08E
:1035C000A980256804F1100393E807008DE807003F
:1035D0000434284694E80E0001F084F89DF81200A7
:1035E000C0B211B0BDE8F08301232362DFF8708020
:1035F0003DE702F00403002B7FF42DAF426B57062A
:1036000046BF40228263292328E740F2FF5191639D
:103610008CE7436BDB070CD5C0F8389001205FE7DF
:103620004FF6FE739E4291D0400044BF02232362B6
:103630009EE701F099F8372818BF10207FF450AFAB
:103640002046FFF775F94BE7436BD90757D50123A0
:10365000836318461EE700BFA0802542000010804B
:10366000000010C0236A042B98D0C0224FF480635E
:10367000022705A9206807920596089606970993E0
:1036800001F05EF82268536B13F0450FFBD0536BCB
:1036900059072ED4506B10F0010059D140F2FF535E
:1036A000936301F065F8A063042001F061F8E06322
:1036B000082001F05DF820640C2001F059F8236A1D
:1036C0006064022B01D9062B59D10322402305A99E
:1036D00020680692079301F033F82068436B13F0DB
:1036E000450FFBD0436B5B073CD504238363032664
:1036F00054E704239363032650E7436BABE601F0E2
:1037000033F8372818BF10207FF4C4AE2046FFF7E7
:103710000FF9BFE6B5F8543008921B0440254FF46A
:1037200080622068079505A90726059306960992E9
:1037300001F006F825686B6B13F0450FFBD06B6B3F
:103740005A0716D50423AB6303208DF8120039E71E
:103750000126966322E7436B03F00403002B7FF4FA
:103760007AAE4BE7466B16F0010636D0012686632B
:1037700014E76B6BDB0736D50120A863E5E7012072
:10378000042B38D00304C0226062092605A92068F2
:1037900007920593069600F0D3FF2268536B13F04F
:1037A000450FFBD0536B5907A3D4566B16F0010697
:1037B000CED140F2FF539363304600F0D9FFA062B0
:1037C000042000F0D5FFE062082000F0D1FF206364
:1037D0000C2000F0CDFF6063E0E600F0C5FF032899
:1037E0000BD01026DAE6284600F0BEFF072812D0DC
:1037F00025681020A9E70026D0E6236840F2FF5292
:1038000030469A6300F0B4FF10F4604F0ED0870486
:1038100006D51326C2E62046FFF78AF8256894E706
:103820004604DED4000404D50F26B7E6000C236A54
:10383000A6E7236A0120A3E72DE9F041036A032BE1
:103840008CB00FD0022B12D8B1F5805F0AD0B1F541
:10385000006F0D46044618D071B1262630460CB0D4
:10386000BDE8F081272630460CB0BDE8F081002687
:1038700030460CB0BDE8F08108460491059100F097
:1038800077FF820115D50E26EDE700231846049335
:10389000059300F06DFF8001F5D404A92046FFF7E1
:1038A000C7F806460028DED1059B59034CD42526CF
:1038B000D9E704A92046FFF7BBF806460028D2D175
:1038C000059BDB03F3D5636A09961B0406AF372615
:1038D000402239460693206807964FF48063089289
:1038E0000A9300F02DFF31462046FFF77FF8064689
:1038F0000028B8D14FF00608394620680696CDF862
:103900001C8000F01DFF41462046FFF76FF8064679
:10391000002EA8D16269A36909950B930A920CAB9A
:1039200013E907006368A5680693E36824680795B0
:103930008DE807000893204697E80E0000F0D2FEBD
:1039400030460CB0BDE8F081636A09961B0406AFEF
:103950003726402239460693206807964FF4806345
:1039600008920A9300F0ECFE31462046FFF73EF83D
:10397000064600287FF477AF0223062639462068E2
:103980000693079600F0DCFE31462046FFF72EF83E
:103990000646BDE770B5436A86B004460D22029222
:1039A0001B044FF48062006801934026002501A9A2
:1039B00003960495059200F0C3FE2068436B13F054
:1039C000450FFBD0436B5A0704D5042383630220C1
:1039D00006B070BD436BDB0702D501238363F6E7B6
:1039E00000F0C2FE0D28F2D12046FEF7A1FF00280C
:1039F000EDD100F0BDFEC0F34320043818BF012014
:103A000006B070BD00283AD090F85120F8B50025D6
:103A1000044602F0FF0185625AB3A7686368E6684E
:103A200020696269E1693B43334303431343266AD8
:103A3000A0692768626A0B43022184F85110396833
:103A4000334300F40076000C334300F004002B43B2
:103A5000024321F0400139603B607A60FB6900223B
:103A600023F400630121FB611046626584F8511064
:103A7000F8BD80F8501003F091FFA56ACDE7012052
:103A8000704700BF2DE9F041044690F8500001282E
:103A900082B003D1022002B0BDE8F0811E460123AE
:103AA00084F850300D461746FDF720FC804694F808
:103AB0005100C0B2012809D002200122002384F85D
:103AC000512084F8503002B0BDE8F081002DF4D0D0
:103AD000002FF2D0A268256300230321B2F5004F26
:103AE00084F85110A7866365A363E786A3876364A0
:103AF0002364E387226800F0118113685B0603D416
:103B0000136843F040031360E368B3F5006F636824
:103B100000F0B980002B00F0AD80E38E9BB2012B4A
:103B200000F0A880771C27D0002E41D0E38E9BB2F6
:103B30006BB19368980744D4FDF7D8FBA0EB08005D
:103B400086423CD9E38E22689BB2002BF1D1771CD0
:103B500040D193689D07FCD593681B06FCD4A368ED
:103B60002BB90193D368019393680193019B606D16
:103B7000003018BF0120A0E7E38E9BB2002BE6D0F7
:103B800093689907F8D515F8013B1373E38E226803
:103B9000013B9BB2E386E38E9BB2002BF0D1D6E7CC
:103BA00015F8013B1373E38E2268013B9BB2E38659
:103BB000E38E9BB2002BCAD093689B07F0D40320FE
:103BC0007BE715F8013B1373E38E2268013B9BB240
:103BD000E386ABE79368980728D436B1FDF786FBF8
:103BE000A0EB080086422268B1D85368616823F0D0
:103BF000E003B1F5827F536000F09D80A36AB3F5C6
:103C0000005F08D113684DF6FF710B401360136815
:103C100043F400531360012384F85130CFE7FDF7DC
:103C200065FBA0EB08008642226804D99368190658
:103C300095D5002EF3D15368616823F0E003B1F508
:103C4000827F536000F08480A36AB3F5005F08D1DF
:103C500013684DF6FF710B401360136843F4005373
:103C60001360012084F85100636D202213436365C3
:103C7000626522E715F8013B1373E38E2268013B6E
:103C80009BB2E3864EE7002B4DD0E38E9BB2012B17
:103C900049D0771C15D0002E2ED0E38E9BB2002B7E
:103CA0003FF455AF9368980730D4FDF71FFBA0EBA6
:103CB0000800864283D9E38E22689BB2002BF1D1A3
:103CC00045E7E38E9BB2002B3FF441AF9368990721
:103CD000F7D535F8023BD360E38E013B9BB2E38618
:103CE000E38E9BB2002BF1D131E735F8023BD36074
:103CF000E38E013B9BB2E386E38E9BB2002B3FF445
:103D000026AF93689B077FF55AAFEEE735F8023B85
:103D1000D360E38E013B9BB2E386BEE7136843F4B6
:103D200080431360E9E635F8023BD360E38E013B44
:103D30009BB2E386ADE7A368B3F5004F03D0B3F5BC
:103D4000806F7FF45BAF136823F04003136055E787
:103D5000A368B3F5004F03D0B3F5806F7FF474AF61
:103D6000136823F0400313606EE700BFF8B590F8C6
:103D70005030012B0DD0044690F851000123C0B201
:103D8000984284F8503006D00220002384F8503046
:103D9000F8BD0220F8BD0029F7D0002AF5D0A068B0
:103DA000A28600230325B0F5004F84F8515021630B
:103DB0006365A363E28663642364A387E387226861
:103DC0001FD0A06CE38E114D0564114F114EC763D7
:103DD00000250C329BB2C6640565FDF7B3FB236872
:103DE0001A68520603D41A6842F040021A605A68F0
:103DF00042F020025A605A6842F002025A600020E3
:103E0000C3E7136843F480431360DAE7193E000800
:103E10004D3E0008293E000808B5806B03F0D0FC39
:103E200008BD00BF704700BF08B5836B19684A68BA
:103E300022F003024A605A6D012142F010025A65D5
:103E4000184683F85110FFF7EDFF08BD70B5064620
:103E500082B0846BFDF74AFA33681B68D90517D422
:103E600023685A6822F0020205465A609A681206D0
:103E700013D4A2682AB90192DA6801929B6801936F
:103E8000019B01230022E28684F85130636D5BB907
:103E9000204603F0A3FC02B070BDFDF727FA401BDB
:103EA000632806D82368E1E72046FFF7BBFF02B08E
:103EB00070BD236861685A68B1F5827F22F0E00224
:103EC0005A60A2681DD0A16AB1F5005F08D11968D7
:103ED0004DF6FF7001401960196841F400511960F6
:103EE000012184F85110616D41F020016165616D1F
:103EF000002041F02001616584F85000002AC0D103
:103F0000B9E7B2F5004F02D0B2F5806FDBD1196886
:103F100021F040011960D6E70168022210B480F850
:103F200039200A680124034622430A60002083F8EE
:103F300039405DF8044B7047002858D0F8B590F828
:103F40003930044603F0FF02002B3BD02368294997
:103F5000022284F839208B421A6838D0B3F1804F9E
:103F600022D0A1F57C418B421ED001F580618B42AD
:103F70001AD001F580618B4216D001F59A318B423F
:103F800016D001F580618B4212D001F580618B4221
:103F90000ED0E06861681A60D862996201225A61A5
:103FA000002084F83920F8BDA16822F070020A438D
:103FB0002569E068616822F440722A431A60D86279
:103FC0009962EBE780F8382003F0F0FDBEE7A668C1
:103FD0002069E7686568616922F07002324322F463
:103FE000407202431A60DF629D621963D6E70120C6
:103FF000704700BF0000014003680122186A02FAFE
:1040000001F120EA010010B418621A6A084C114349
:10401000A342196207D01A685DF8044B42F001020E
:1040200000201A6070475A6C42F400425A64F2E76A
:104030000000014090F83830012B44D0F0B5022345
:10404000012480F8384080F839300C2A33D8DFE872
:1040500002F06732323207323232913232323C0071
:1040600003688F681D6A0E68DFF8C0C125F010056F
:104070001D621A6AD3F804E09C6922F0200224F43D
:10408000E644634542EA071244EA062400F0B180A0
:104090004D68C3F804E09C619D631A629C690D69D8
:1040A00044F400649C61996921F4806199619A6982
:1040B00042EA05229A610023012280F8392080F823
:1040C00038301846F0BD0220704703688F681D6ABB
:1040D0000E68DFF858E125F480551D621A6AD3F89E
:1040E00004C0DC6922F4005224F4E644734542EA39
:1040F000073244EA062467D04D68C3F804C0DC6187
:104100001D641A62DC690D6944F40064DC61D969DC
:1041100021F48061D961DA6942EA0522DA61CAE7ED
:104120000368D1F808C01D6A0F68404E25F00105EC
:104130001D621A6AD3F804E09C6922F0020224F09E
:104140007304B34242EA0C0244EA070460D04D68AB
:10415000C3F804E09C615D631A629C690D6944F0D8
:1041600008049C61996921F0040199619A692A43C4
:104170009A61A0E703688F681D6A0E68DFF8ACC01B
:1041800025F480751D621A6AD3F804E0DC6922F414
:10419000007224F07304634542EA072244EA0604ED
:1041A00018D04D68C3F804E0DC61DD631A62DC6995
:1041B0000D6944F00804DC61D96921F00401D9617A
:1041C000DA692A43DA6176E74D692CF4804C4CEACF
:1041D000851C91E74F698D69CE6822F400622EF448
:1041E000405E42EA06223D4322F480624EEA051E0A
:1041F000D7E74F698D69CE6822F080022EF4406EB9
:1042000042EA06123D4322F040024EEA850E3FE7A5
:10421000CF684D698E6922F008022EF4407E3A4341
:10422000354322F0040245EA0E0E90E700000140FB
:1042300090F83830012B1ED002460220136870B46B
:1042400082F839005C6824F0700491E860005C60DA
:10425000586828435860986820F0800098609968F2
:104260000024012531439960204682F8395082F8B4
:10427000384070BC70470220704700BF2DE9F047FE
:10428000046822698246C068DAF81C10DAF808303F
:10429000DAF81060DAF8145022F440520243226136
:1042A000E268DAF81800334322F416422B4322F076
:1042B0000C020B431343E360636923F4407303432D
:1042C000B1F5004F6361AB4B61D09C4200F00181BE
:1042D00003F580639C4200F0FC80FEF753FAA64F82
:1042E000DAF8043000EB800000EB80009B00B0FBAC
:1042F000F3F3A7FB03235B091D01FEF743FADAF88A
:10430000043000EB80009B0000EB8000B0FBF3F674
:10431000FEF738FADAF8042000EB8000930000EB97
:104320008000B0FBF3F3A7FB03234FF064095B09A4
:1043300009FB13631B013233A7FB03235B0903F063
:10434000F006FEF71FFADAF8042000EB8000930075
:1043500000EB8000B0FBF3F8FEF714FADAF8043053
:1043600000EB80009B0000EB8000B0FBF3F0A7FBAC
:104370000030400909FB10831B013233A7FB0323E4
:10438000C3F3431333432B44A360BDE8F0879C423F
:104390005DD003F580639C4259D0FEF7F3F9764F68
:1043A000DAF8043000EB800000EB80005B00B0FB2B
:1043B000F3F3A7FB03235B091E01FEF7E3F9DAF829
:1043C000043000EB80005B0000EB8000B0FBF3F5F5
:1043D000FEF7D8F9DAF8042000EB8000530000EB78
:1043E0008000B0FBF3F3A7FB03235B094FF06409E4
:1043F00009FB1353DB003233A7FB03231B0903F430
:10440000F875FEF7BFF9DAF8042000EB800000EB46
:1044100080005300B0FBF3F8FEF7B4F9DAF804308B
:1044200000EB800000EB80005B00B0FBF3F3A7FB28
:1044300003235B0909FB1383DB003233A7FB032350
:10444000C3F3421333442B44A360BDE8F087FEF767
:10445000B1F9494FDAF8043000EB800000EB80003E
:104460005B00B0FBF3F3A7FB03235B091E01FEF720
:10447000A1F9DAF8043000EB80005B0000EB80006B
:10448000B0FBF3F5FEF796F9DAF8042000EB8000B4
:10449000530000EB8000B0FBF3F3A7FB03234FF0C6
:1044A00064095B0909FB1353DB003233A7FB0323C9
:1044B0001B0903F4F875FEF77DF9DAF8042000EB28
:1044C0008000530000EB8000B0FBF3F8FEF772F9B8
:1044D000A4E7FEF76FF9284FDAF8043000EB80000C
:1044E00000EB80009B00B0FBF3F3A7FB03235B0909
:1044F0001D01FEF75FF9DAF8043000EB80009B0045
:1045000000EB8000B0FBF3F6FEF754F9DAF8042074
:1045100000EB8000930000EB8000B0FBF3F3A7FBFF
:1045200003234FF064095B0909FB13631B0132335A
:10453000A7FB03235B0903F0F006FEF73BF9DAF86B
:10454000042000EB8000930000EB8000B0FBF3F848
:10455000FEF730F9DAF8043000EB800000EB800061
:104560009B00B0FBF3F3A7FB03235B0909FB138359
:1045700002E700BF001001401F85EB5160B338B562
:1045800090F83930044603F0FF0203B32268242375
:1045900084F83930D36823F40053D3602046FFF702
:1045A0006DFE23681A6922F490421A615A6922F05A
:1045B0002A025A61DA680025202142F40052DA60AA
:1045C0002846E56384F8391084F83A1038BD80F83D
:1045D000382003F01FFBD9E701207047F0B50E46E5
:1045E00090F83910202983B002D0022003B0F0BD2A
:1045F0005EB352B31F4690F83830012B0446F4D016
:10460000002001212123E06384F8381084F8393038
:104610000192FCF76BFE019AA28405462068E284B1
:10462000E38C9BB2002B35D0E28CA168013A92B2A8
:10463000B1F5805FE28415D0791C37D1026812068B
:10464000FCD5337843600136EAE70120CEE7036802
:104650001B060CD4002F33D0FCF748FE401B8742CA
:1046600020682DD3791CF2D102681206FCD533885C
:104670002269C3F308034360002AE4D10236CFE77E
:1046800003685B060BD4DFB1FCF730FE401B8742AA
:10469000206815D3791CF3D103685A06FCD5202372
:1046A000002084F8393084F838009FE703681B063F
:1046B000C7D42FB1FCF71AFE401B87422068BBD23B
:1046C000C36823F4D073C3604369202223F001033D
:1046D0000021436184F83920032084F8381084F8DD
:1046E0003A2083E784B070B404AC84E80E00059EE1
:1046F000069A079D089C0B46334313432B4342689D
:104700000999234370BC22F4FD420B4322F07F023F
:104710001343436004B00020704700BFD0F880000E
:10472000704700BF0B68C0F880300020704700BFA2
:104730000323036000207047006800F00300704707
:104740000B6830B483608D684B68CC68C2680969B7
:104750002B43234322F47F6222F00F020B431343C7
:10476000C36030BC002070470069C0B2704700BF12
:10477000044B82B00344002201920193019B18680C
:1047800002B07047142C01400A1D30B42CCA0C68CA
:1047900044620C698262C26A49692B43234322F056
:1047A000F7020B431343C36230BC0020704700BFC5
:1047B000F0B48C88CD88416005FB04F39B00002693
:1047C00086600260086023F0070110608B424FEAA8
:1047D000D3004FF00F074FF0040688BF0130D5809B
:1047E0009480977216811061F0BC704743681B6A11
:1047F000184700BFF0B5C5888D4222D984889442FD
:104800001FD90489DFF844E00E4FC668807A05FBA3
:10481000021204FB02F20C49CEF80020550902F006
:104820001F023D600A6056F8251021FA02F4044088
:104830009C4206D0904021EA000193400B4346F889
:104840002530F0BD4433012040330120483301209E
:104850002DE9F04FD0F8049083B0B9F81A80002900
:1048600041D1B9F8083043440193019AA9F81A30AC
:104870008A460368D988B3F808B00BFB01FB08FB34
:104880000BFB90454FEA5B1B2AD2B9F80A1007468A
:10489000002401B34FEA4A060025D968987A51F8F6
:1048A0002B30E340184000F041F83B6819890C4474
:1048B000D9F8101080B28853B9F80A101F2C05F1EE
:1048C000010584BF0BF1010B0024A9420AF1010A82
:1048D00006F10206E1D8019A08F101084245D8D153
:1048E00003B0BDE8F08F012905D002290CD04FF0AC
:1048F000000A019ABDE7B9F8083008EB53034FF0FE
:10490000000A01931A46B4E7B9F80810D9F8144020
:1049100043460B44A9F81A3001EB080301934FEA10
:10492000940A08EB51081A46A3E700BF024B1B6824
:1049300053F82000704700BF440200202DE9F04FDB
:1049400087B04FF6FF74DDF844B0BDF94060A34571
:1049500000F09280002BC0F2D680B0F806E07345DC
:1049600002DB8E4540F38880002EC0F2D08087881D
:10497000BE4280F2848022EAE27A8146781E26EAEC
:10498000E6768245A8BF8246B042A8BF3046AAEB71
:104990000006002E23EAE37521EAE1740EF1FF33ED
:1049A000B8BF76429C42A8BF1C4636B29D42A8BF03
:1049B0001D46002E67D1B9F80810202393FBF1F3B0
:1049C000002B00F0B78099F80A803246374608EA93
:1049D0000B08013208FA06FC9A4247EA0C070E441B
:1049E000F7D1B4FBF3F203FB1242D2B1AC4235D89B
:1049F00086B24FF0200801E0AC422FD8A1B25B464E
:104A0000324601344846FFF7F5FEB9F8081098FB26
:104A1000F1F3B4FBF3F203FB1242002AECD1B9F834
:104A200006E00EFB0A4E01FB0EF1AC424FEA5111BB
:104A300014D82A1B9A4211D3D9F80C001A19AE1AAD
:104A400000EB810103E0B34208D806461A44AA42AB
:104A500041F8047B1446A6EB0300F4D9013CAC42B8
:104A60000AD81FFA8AFAA1B25B4652464846013478
:104A7000FFF7C0FEAC42F6D907B0BDE8F08F974211
:104A80003FF779AFF8E72A1B03B2002AB8BF5242BA
:104A9000194628B20FFA8AFA059324B24FF6FF732B
:104AA0008A45ACBF194601218442B8BF0123B242F6
:104AB000019004920291009330DD134655105B4241
:104AC000A7B21FFA8AF803935B4642463946484626
:104AD000FFF790FE019A009B94423B4424D0039A36
:104AE0009542C8BF1CB2029AC6BFA7B2AB1B2B46E9
:104AF000B542424405DA0FFA82FA049A1FFA8AF89C
:104B000013441D46E0E70029BFF627AFB4E7002AAB
:104B1000B2DB8788BE42FFF62EAFB0E706EBD67554
:104B20006D106D421346CAE7059A9245D7D107B07A
:104B3000BDE8F08F1F4654E72DE9F0430C46C188CD
:104B400083B08C42BDF82870DDF82C804CDA154615
:104B5000828895420646AE4646DA4FF6FF7CE0452F
:104B600042D0002C20463CDB002D40DB1844814223
:104B700002DC4B1E1B1B9BB2BE44724502DC571E5F
:104B80007F1BBFB283B37FB304F1FF394B440FFAED
:104B900083F94B462A46214630468DE82001FFF72F
:104BA000CDFE6B1E1F443FB24B463A46214630466F
:104BB000CDF804800097FFF7C1FE234621462A4620
:104BC00030468DE88001FFF7B9FE2A4630464B4655
:104BD00049460A97CDF82C8003B0BDE8F043FFF7B3
:104BE000ADBE604298420BDD03B0BDE8F083C5F175
:104BF000000EBE45F8DC2F440025BFB2AE46B5E737
:104C0000234400249BB22046AEE700BF2DE9F04FBD
:104C100085B04FF6FF74DDF840A0BDF83860DDF8D0
:104C20003C80A2457FD09146C288914207460D46FE
:104C300076DA9E46838899454C4671DA002978DBFE
:104C4000B9F1000F7EDB71448A4203DC013A521B4A
:104C50001FFA82FE3219934203DC5E1EA6EB0906A0
:104C6000B6B2BEF1000F5BD0002E59D00EF1FF326C
:104C70004FF6FF73013E92B29845B6B202922DD024
:104C8000531906EB090B0FFA8BFB1BB24A46294658
:104C90003846CDF80480CDF800900393FFF74EFE20
:104CA000039BCDF804805A4629463846CDF800B01B
:104CB000FFF744FE2B464A4629463846CDF800B059
:104CC000CDF80480FFF73AFE039BCDF800B0CDF895
:104CD00004804A4619463846FFF730FE4FF6FF7308
:104CE0002644B8EB030804F1010418BF4FF0010893
:104CF000B44215DA1FFA88F8ADB2029AA5EB0803A0
:104D00001A4445442DB20FFA82F822B28DE8040409
:104D10000134434629463846FFF710FEB442F4D129
:104D200005B0BDE8F08F0E9605B0BDE8F04FFFF777
:104D300003BF49427145F3DCAE4400251FFA8EFEE5
:104D400029467DE7C9F10000B042E9DC4E444FF04E
:104D50000009B6B24C4676E72DE9F04F85B08346A0
:104D60009DF83C40BDF838500095012C00F095802E
:104D7000022C00F0CB80032C61D00193002A5BD081
:104D80000B78002B58D010988A180392C0884A1CC0
:104D90000292109A118A528A5B1A109993428F8854
:104DA0008ABF00225A00134617B98968CF5C109950
:104DB000109B0E68DB68BDF804A09B5A1E440B468E
:104DC00060B34FF0000917B3009B002503EB0908FF
:104DD0002C461FFA88F806E00135AF4215D0072CA3
:104DE00084BF013600243378234113F0010F04F10E
:104DF0000104F1D00AEB050189B2119B42465846E5
:104E00000135FFF7F7FCAF42E9D1109BD88809F1D3
:104E10000109814506F10106D5D3109B9B8A029AB0
:104E200003991F44019B8A423B44019304D012F82A
:104E3000013B0292002BACD105B0BDE8F08F002AF7
:104E400000F0A3800C78002C00F0A9801098109D31
:104E50008088B5F810E0B5F812C0AE8A00287AD183
:104E6000AF6801EB02084D1C02E015F8014B4CB194
:104E7000A4EB0E04644588BF0024A8453C5D34447F
:104E80002044F2D1C0F34F00109C1B1AE488009814
:104E9000001B80B29BB200906FE7002A7DD00C7897
:104EA000002C78D01098109D8088B5F810E0B5F8E7
:104EB00012C0AE8AE8B9AF6801EB02084D1C02E0EF
:104EC00015F8014B4CB1A4EB0E04644588BF0024D7
:104ED000A8453C5D34442044F2D1C0F34F00109CFF
:104EE0001B1AE4880098A0EB540080B29BB200909B
:104EF00043E706444C1C8D18002003E014F8017BA6
:104F0000002FEAD0AC423044F8D1E6E7002A40D086
:104F10000C78002C3BD01098109D8088B5F810E0DC
:104F2000B5F812C0AE8A18BBAF6801EB02084D1C81
:104F300002E015F8014B4CB1A4EB0E04644588BFA8
:104F40000024A8453C5D34442044F2D1C0F34F0016
:104F50001B1A9BB211E706444C1C8D18002003E07D
:104F600014F8017B002F8DD0A5423044F8D189E799
:104F700006444C1C8D18002003E014F8017B002F20
:104F8000E4D0A5423044F8D1E0E710467CE7204663
:104F9000DEE71046DCE72046A1E710469FE7204603
:104FA00072E700BF2DE9F04F8BB0BDF8604006946A
:104FB000BDF85040BDF85450BDF858600394002A25
:104FC0007BD00C78002C78D017468346C819059002
:104FD000481C0399179A089331440791D28804908A
:104FE0005919099102930A2C6AD00D2C68D0179B8D
:104FF0001798198A87885B8A641A9C4288BF0024A4
:105000000FB983681F5D029B0999FB188B420AD96F
:10501000069B0399D31819445318039107998B429F
:105020004BD8089B0293179B1799DB680E6833F8DF
:105030001430BDF808A01E44BDF80C3001935AB3DB
:1050400057B34FF00009019B002503EB09082C46DC
:105050001FFA88F806E00135AF4215D0072C84BF4F
:10506000013600243378234113F0010F04F10104C9
:10507000F1D00AEB050189B2199B42465846013529
:10508000FFF7B8FBAF42E9D1179BDA8809F10109B4
:10509000914506F10106D6D3179B9B8A1F44029BBC
:1050A0003B440293059B0499184688420B4604D062
:1050B00013F8014B0493002C95D10BB0BDE8F08F91
:1050C000069B0399D31819445318039107998B42EF
:1050D000F3D8089B0293E5E7024B1868421C1A605C
:1050E000704700BF08590020006800F05BB800BF9F
:1050F00010B485B001AC84E80E0094E80E0000689E
:1051000005B05DF8044B00F093B800BF70B30429FC
:1051100070B50D46044608D0266926B194F83030A3
:1051200043B9022070BD032070BD836C002BF3D007
:105130009847F1E715F0080313D0706810B12946BD
:10514000FFF7E4FF306984420ED010B10421FFF76D
:10515000DDFFA36C34613BB129462046BDE87040B9
:105160001847042D08BF3361012070BD032070472C
:105170008268086182B1C3682BB10022D9608B605C
:10518000CA60C16070471346D268002AF5D0134642
:10519000D268002AF7D1F0E78160C1600261CA607D
:1051A0008A60704788B138B58468002C2BD043687A
:1051B0000D4663B1022928D02046294600F0DCF8CC
:1051C000E468002CF8D1012038BD03207047022983
:1051D000F2D110E05B688BB1986AD96AA269E36981
:1051E00002440B44A262E3622046022100F0C4F8AC
:1051F000E468002CE7D02369002BEBD1A269E369B6
:10520000A262E362F0E7032038BD1A6952B1526826
:1052100042B1956AD06A9969DA692944024499626F
:10522000DA62E8E79969DA699962DA62E3E700BF6E
:1052300030B484B001AC84E80E0040B1006950B1D4
:1052400094E80E00456CAC4604B030BC60470320C7
:1052500004B030BC7047012004B030BC704700BFC0
:10526000F8B138B505460069E8B1836C9BB11021EF
:10527000984701280FD02B69DC6814B90DE0E46869
:105280005CB194F83030002BF9D018212046FFF79C
:105290003DFF0128F3D1012038BD6B68A3B1022086
:1052A00038BD03207047AC681CB9F8E7E468002CEF
:1052B000F5D094F83030002BF8D018212046FFF7B5
:1052C00025FF0128F2D1E6E7AC681CB9E7E7E468FE
:1052D000002CE4D094F83030002BF8D01821204670
:1052E000FFF714FF0128F2D1D5E700BFF8B138B5B8
:1052F00005460069E8B1836C9BB1202198470128DD
:105300000FD02B699C6814B90DE0A4685CB194F8C7
:105310003030002BF9D028212046FFF7F7FE012876
:10532000F3D1012038BD6B68A3B1022038BD032042
:105330007047EC681CB9F8E7A468002CF5D094F825
:105340003030002BF8D028212046FFF7DFFE01285F
:10535000F2D1E6E7EC681CB9E7E7A468002CE4D0DA
:1053600094F83030002BF8D028212046FFF7CEFEED
:105370000128F2D1D5E700BF38B1012907D00229B1
:1053800009D003290BD00220704703207047836B9C
:10539000002BF8D01847C36B002BF4D01847036CD0
:1053A000002BF7D1EFE700BF30B585B001AC84E842
:1053B0000E0038B1456C45B194E80E00A8470020B6
:1053C00005B030BD032005B030BD284605B030BD66
:1053D000F0B5154685B02E680B89B1F91420AF6879
:1053E0000C46B1F910100296A6898DE8C000064659
:1053F000FFF70CFCAB898BB1E068A3686269216997
:10540000AC680194041FA4B2043B0232023130465E
:1054100000949BB212B209B2FFF78EFB05B0F0BD4B
:1054200038B50B0705460C46406B0FD590F8683031
:10543000012B04D0436E13B108219847686B0123F8
:1054400080F86830202C0FD1022038BD0429F9D112
:1054500090F868301BB1436E0BB19847686B00231E
:1054600080F86830012038BD102C14BF01200220C4
:1054700038BD00BF70B5054684B001AC84E80E00AD
:105480001048EA6A696803F0BBF86D6B2E6E26B1AE
:1054900094E80E002846B04730B1BDF8042040F231
:1054A00001139A4202D0012004B070BDEB6D002BB5
:1054B000F9D0284698470223002085F8683004B0C8
:1054C00070BD00BFE4F8000870B5426B92F8683018
:1054D000956D84B00446002B2FD0012B17BF03F12C
:1054E000FF332C3582F868303C3523682A4618682B
:1054F00004F11801FFF76CFF666B22686B68716D31
:10550000656A1068E26A0393236AB66DA46A7668D6
:10551000029605EBD57502EB650203EBD37392B2ED
:1055200004EB6303012400929BB201944FF0FF321D
:10553000FFF712FC204604B070BD1C35D5E700BF54
:105540002DE9F84F0446086823620A9B60600D4607
:1055500000201949636201260B9BDFF86880174F12
:10556000E261C4F83C80A764E164A362A4632064A0
:10557000606420652676DDF830B0DDF834A0DDF813
:105580003890DDF83C80109FFFF7A6FD211DA0603C
:1055900084F834602846C4F854B0C4F85CA0C4F859
:1055A0006090C4F86480A765FFF7E2FDA168044835
:1055B000BDE8F84F03F024B82154000875540008E2
:1055C000F8F80008C954000830B5426B0368956DBF
:1055D000044685B000F1180105F11C021868FFF7B8
:1055E000F7FE636B20682A6A596D006803929A6D12
:1055F000A36A5268A48D02920233002201929BB2E8
:1056000000944FF0FF32FFF7A7FB012005B030BD3B
:105610002DE9F84F044608686060A4630846211D20
:10562000002593469A46DDF82890DDF82C800C9FE3
:105630000D9EFFF79DFD0F49E1630122C4F81CB0E8
:10564000C4F820A0C4F82490C4F8288022762564E9
:105650006564A564E5642565FFF73EFD84F8345074
:10566000A06001466765A6650348BDE8F84F02F0F3
:10567000C7BF00BFC95500080CF9000838B50B07B3
:1056800005460C46406B0FD590F86C30012B04D0CA
:10569000836E13B108219847686B012380F86C3042
:1056A000202C0FD1022038BD0429F9D190F86C309C
:1056B0001BB1836E0BB19847686B002380F86C3088
:1056C000012038BD102C14BF0120022038BD00BFBE
:1056D00030B585B004AC04E90E0004461C48E26A0B
:1056E00061689DF8045002F08BFF9DF80530606BF7
:1056F000012B08D0836DC26D9B1A142B1ADD029BFF
:10570000B3F5C87F16D9226A636A9A4215DB032D66
:1057100017D00223AB420DD1436DC16D1A688A4286
:10572000C8BF02F1FF31426E196002B190470020FC
:1057300005B030BD012005B030BD042D01D00523DA
:10574000E8E7436D816D1A688A42ECDA511CEAE79A
:10575000E4F800082DE9F043466B96F86C3085B00C
:105760000446002B40F0AE80376E1C3723683A4663
:10577000186804F11801FFF72BFE236A626A93424E
:10578000C0F2A680706D616BD0F80080D6F85CC066
:10579000B56D91F86CE02068B4F928100068A8EBAA
:1057A0000C06053B03FB06F31FFA82F8A5EB0C057C
:1057B000B4F92C2093FBF5F57B68BEF1000F40F0A7
:1057C0002D813E6802960193CDF800800323FFF7F8
:1057D0001DFA626B216AA06A236892F86C60D3F8A4
:1057E00000C0B4F92C20B4F824E07B680844C11E42
:1057F00009B2002E40F014813E6802966046019383
:10580000CDF800E00323FFF701FA666A884B606B6E
:10581000E26AA16A90F86CE0206883FB068CACEB2E
:10582000E67CB60083FB0683A3EBE6736244023199
:10583000ADB29BB212B209B200687E68BEF1000F31
:1058400040F0F480D7F800E08DE848402B46FFF7A1
:10585000DDF9666A764A236AA16A20684FEA860CF7
:1058600082FB0C8EAEEBEC7E82FB0682D4F82CC061
:105870000068A3F10508A2EBE6727B68019303318F
:105880001FFA8EF66244A8EB05032944009612B273
:105890009BB209B2FFF750F9E26A616AA36A206815
:1058A0007C680068019402338C182B44013C1BB2C5
:1058B00024B21946009412B2FFF740F8012005B057
:1058C000BDE8F083012B0ABF376E00272C374DE768
:1058D000716DD6F85C800D68616BB66D91F86CE007
:1058E0002068B4F928100068A5EB080C551FA6EB3A
:1058F000080605FB0CF595FBF6F5551B9BB2053D1F
:10590000B4F92C207E68BEF1000F40F08580D7F8F6
:1059100000C001964FF0030ECDF800E0CDF808C0AE
:10592000FFF774F9616B626AE06A236891F86CE0D2
:10593000D3F80080B4F92810238C7E681044C21E6E
:1059400012B2BEF1000F6FD1D7F800C0CDF808C079
:105950004FF0030E40460196CDF800E0FFF756F9F0
:105960002368D4F820E0DFF8C88018687B68A16A53
:10597000E26A01934FEA8E0C88FB0E36A6EBEE76B8
:1059800088FB0C93ADB2A3EBEC73314402329BB2B3
:1059900009B212B20095FFF7CFF8236A606BE26A92
:1059A000666AA16A90F86CE0206888FB039C4FEA65
:1059B0008309ACEBE37C033288FB0983053E614439
:1059C000A3EBE9732A44761BD0F800C078689BB239
:1059D00009B212B2B6B2BEF1000F23D1D7F800E07F
:1059E000CDF808E0019000966046FFF70FF9E26AF3
:1059F000A16A236A20687C680068019402322A4404
:105A00000B4412B2013B00921BB209B2FEF796FFA3
:105A1000012005B0BDE8F083B4467AE71E46D1E622
:105A20001E46EAE68646DBE7B4468FE7B6460BE756
:105A3000ABAAAA2A2DE9F04F83B004460C9D20485A
:105A4000204F214EDDF848B0DDF84CA088460968AB
:105A500061604FF001090021236265620D9BE261E4
:105A60000EAD119AA764E664A362E0CD216461647F
:105A70002165A463E06384F818900192FFF72CFB82
:105A800084F83490A060A665E7652B68019A656587
:105A90009E42BCBF33462E609F42C8BF2F60211D6F
:105AA00040466266C4F868B0C4F860A0FFF760FBC7
:105AB000A168064803B0BDE8F04F02F0A1BD00BFE9
:105AC00055570008D15600087D56000820F90008F7
:105AD00090F85C307BB9826D72B110B400E01A4668
