:020000040800F2
:1000000000800120B1560008C9540008CD540008F2
:10001000D1540008D5540008D9540008000000004D
:10002000000000000000000000000000DD54000897
:10003000E154000800000000E5540008E9540008FD
:100040000157000801570008015700080157000830
:100050000157000801570008015700080157000820
:100060000157000801570008015700080157000810
:100070000157000801570008015700080157000800
:100080000157000801570008015700080000000050
:100090000000000000000000000000000157000800
:1000A00001570008015700080157000801570008D0
:1000B00001570008015700080157000801570008C0
:1000C00001570008015700080157000801570008B0
:1000D0000157000801570008015700080000000000
:1000E00001570008015700080157000800000000F0
:1000F00000000000000000000000000001570008A0
:1001000000000000015700080157000801570008CF
:1001100000000000000000000000000000000000DF
:10012000015700080157000801570008F95400085A
:10013000015700080000000000000000000000005F
:10014000000000000000000000000000015700084F
:10015000015700080157000801570008015700081F
:1001600001570008015700080000000000000000CF
:10017000000000000000000000000000000000007F
:10018000000000000157000800000000000000000F
:04019000015700080B
:1001A000034613F8012B002AFBD1181A01387047B7
:1001B00001F0FF01102A2BDB10F0070F08D010F818
:1001C000013B013A8B422DD010F0070F42B3F6D11C
:1001D000F0B441EA012141EA014122F007047FF035
:1001E00000070023F0E80256083C85EA010586EA8C
:1001F000010685FA47F5A3FA87F586FA47F6A5FAC8
:1002000087F68EB9EED1F0BC01F0FF0102F00702D3
:1002100032B110F8013B013A83EA010313B1F8D17E
:100220000020704701387047002D06BF354603385F
:10023000073815F0010F07D1013015F4807F02BF98
:10024000013015F4C03F0130F0BC0138704700BFE9
:1002500081F0004102E000BF83F0004330B54FEA77
:1002600041044FEA430594EA050F08BF90EA020FE4
:100270001FBF54EA000C55EA020C7FEA645C7FEA77
:10028000655C00F0E2804FEA5454D4EB5555B8BF9A
:100290006D420CDD2C4480EA020281EA030382EA0B
:1002A000000083EA010180EA020281EA0303362D9D
:1002B00088BF30BD11F0004F4FEA01314FF4801C70
:1002C0004CEA113102D0404261EB410113F0004F82
:1002D0004FEA03334CEA133302D0524263EB430339
:1002E00094EA050F00F0A780A4F10104D5F1200ED7
:1002F0000DDB02FA0EFC22FA05F2801841F1000132
:1003000003FA0EF2801843FA05F359410EE0A5F105
:1003100020050EF1200E012A03FA0EFC28BF4CF036
:10032000020C43FA05F3C01851EBE37101F00045EC
:1003300007D54FF0000EDCF1000C7EEB00006EEBF9
:100340000101B1F5801F1BD3B1F5001F0CD3490883
:100350005FEA30004FEA3C0C04F101044FEA4452DA
:1003600012F5800F80F09A80BCF1004F08BF5FEA61
:10037000500C50F1000041EB045141EA050130BD41
:100380005FEA4C0C404141EB010111F4801FA4F1E4
:100390000104E9D191F0000F04BF01460020B1FA39
:1003A00081F308BF2033A3F10B03B3F120020CDA71
:1003B0000C3208DD02F1140CC2F10C0201FA0CF04F
:1003C00021FA02F10CE002F11402D8BFC2F1200CB4
:1003D00001FA02F120FA0CFCDCBF41EA0C0190406A
:1003E000E41AA2BF01EB0451294330BD6FEA0404B3
:1003F0001F3C1CDA0C340EDC04F11404C4F120029E
:1004000020FA04F001FA02F340EA030021FA04F3AF
:1004100045EA030130BDC4F10C04C4F1200220FA06
:1004200002F001FA04F340EA0300294630BD21FA44
:1004300004F0294630BD94F0000F83F4801306BF0A
:1004400081F480110134013D4EE77FEA645C18BFFE
:100450007FEA655C29D094EA050F08BF90EA020F95
:1004600005D054EA000C04BF1946104630BD91EA8D
:10047000030F1EBF0021002030BD5FEA545C05D190
:100480004000494128BF41F0004130BD14F58004CF
:100490003CBF01F5801130BD01F0004545F0FE4143
:1004A00041F470014FF0000030BD7FEA645C1ABF78
:1004B000194610467FEA655C1CBF0B46024650EAAF
:1004C000013406BF52EA033591EA030F41F40021DB
:1004D00030BD00BF90F0000F04BF0021704730B561
:1004E0004FF4806404F132044FF000054FF0000136
:1004F00050E700BF90F0000F04BF0021704730B5F7
:100500004FF4806404F1320410F0004548BF4042CB
:100510004FF000013EE700BF42004FEAE2014FEA20
:1005200031014FEA02701FBF12F07F4393F07F4FFB
:1005300081F06051704792F0000F14BF93F07F4F2D
:10054000704730B54FF4607401F0004521F0004170
:1005500020E700BF50EA010208BF704730B54FF0F6
:1005600000050AE050EA010208BF704730B511F0FB
:10057000004502D5404261EB41014FF4806404F133
:1005800032045FEA915C3FF4DCAE4FF003025FEAB5
:10059000DC0C18BF03325FEADC0C18BF033202EB3D
:1005A000DC02C2F1200300FA03FC20FA02F001FA97
:1005B00003FE40EA0E0021FA02F11444C1E600BF36
:1005C00070B54FF0FF0C4CF4E06C1CEA11541DBFE9
:1005D0001CEA135594EA0C0F95EA0C0F00F0DEF8B4
:1005E0002C4481EA030621EA4C5123EA4C5350EA99
:1005F000013518BF52EA033541F4801143F48013EA
:1006000038D0A0FB02CE4FF00005E1FB02E506F07A
:100610000042E0FB03E54FF00006E1FB03569CF0CF
:10062000000F18BF4EF0010EA4F1FF04B6F5007FD5
:1006300064F5407404D25FEA4E0E6D4146EB060647
:1006400042EAC62141EA55514FEAC52040EA5E50D0
:100650004FEACE2EB4F1FD0C88BFBCF5E06F1ED87A
:10066000BEF1004F08BF5FEA500E50F1000041EBB1
:10067000045170BD06F0004646EA010140EA02005E
:1006800081EA0301B4EB5C04C2BFD4EB0C0541EA80
:10069000045170BD41F480114FF0000E013C00F395
:1006A000AB8014F1360FDEBF002001F0004170BDB9
:1006B000C4F10004203C35DA0C341BDC04F11404D2
:1006C000C4F1200500FA05F320FA04F001FA05F25E
:1006D00040EA020001F0004221F0004110EBD3702B
:1006E00021FA04F642EB06015EEA430E08BF20EA57
:1006F000D37070BDC4F10C04C4F1200500FA04F3FA
:1007000020FA05F001FA04F240EA020001F000418B
:1007100010EBD37041F100015EEA430E08BF20EAFE
:10072000D37070BDC4F1200500FA05F24EEA020E46
:1007300020FA04F301FA05F243EA020321FA04F075
:1007400001F0004121FA04F220EA020000EBD3702C
:100750005EEA430E08BF20EAD37070BD94F0000F2C
:100760000FD101F00046400041EB010111F4801F60
:1007700008BF013CF7D041EA060195F0000F18BF11
:10078000704703F00046520043EB030313F4801F4D
:1007900008BF013DF7D043EA0603704794EA0C0F07
:1007A0000CEA135518BF95EA0C0F0CD050EA41061D
:1007B00018BF52EA4306D1D181EA030101F000419A
:1007C0004FF0000070BD50EA410606BF10461946C2
:1007D00052EA430619D094EA0C0F02D150EA0136CE
:1007E00013D195EA0C0F05D152EA03361CBF10460F
:1007F00019460AD181EA030101F0004141F0FE41AE
:1008000041F470014FF0000070BD41F0FE4141F431
:10081000780170BD70B54FF0FF0C4CF4E06C1CEA31
:1008200011541DBF1CEA135594EA0C0F95EA0C0FE6
:1008300000F0A7F8A4EB050481EA030E52EA0335A1
:100840004FEA013100F088804FEA03334FF08055C2
:1008500045EA131343EA12634FEA022245EA1115EF
:1008600045EA10654FEA00260EF000419D4208BFA0
:10087000964244F1FD0404F5407402D25B084FEA4D
:100880003202B61A65EB03055B084FEA32024FF4F9
:1008900080104FF4002CB6EB020E75EB030E22BF56
:1008A000B61A754640EA0C005B084FEA3202B6EB16
:1008B000020E75EB030E22BFB61A754640EA5C00C5
:1008C0005B084FEA3202B6EB020E75EB030E22BF55
:1008D000B61A754640EA9C005B084FEA3202B6EB56
:1008E000020E75EB030E22BFB61A754640EADC0015
:1008F00055EA060E18D04FEA051545EA16754FEA77
:1009000006164FEAC30343EA52734FEAC2025FEA94
:100910001C1CC0D111F4801F0BD141EA00014FF023
:1009200000004FF0004CB6E711F4801F04BF0143F4
:100930000020B4F1FD0C88BFBCF5E06F3FF6AFAE10
:10094000B5EB030C04BFB6EB020C5FEA500C50F1A0
:10095000000041EB045170BD0EF0004E4EEA113123
:1009600014EB5C04C2BFD4EB0C0541EA045170BD2A
:1009700041F480114FF0000E013C90E645EA060E6E
:100980008DE60CEA135594EA0C0F08BF95EA0C0F9C
:100990003FF43BAF94EA0C0F0AD150EA01347FF4E4
:1009A00034AF95EA0C0F7FF425AF104619462CE7BB
:1009B00095EA0C0F06D152EA03353FF4FDAE10461E
:1009C000194622E750EA410618BF52EA43067FF46F
:1009D000C5AE50EA41047FF40DAF52EA43057FF4FF
:1009E000EBAE12E74FF0FF3C06E000BF4FF0010C0A
:1009F00002E000BF4FF0010C4DF804CD4FEA410C6E
:100A00007FEA6C5C4FEA430C18BF7FEA6C5C1BD03A
:100A100001B050EA410C0CBF52EA430C91EA030FBB
:100A200002BF90EA020F0020704710F1000F91EA18
:100A3000030F58BF994208BF90422CBFD8176FEAE6
:100A4000E37040F0010070474FEA410C7FEA6C5CB4
:100A500002D150EA013C07D14FEA430C7FEA6C5CBB
:100A6000D6D152EA033CD3D05DF8040B704700BFE7
:100A70008446104662468C461946634600E000BF35
:100A800001B5FFF7B7FF002848BF10F1000F01BD07
:100A90004DF808EDFFF7F4FF0CBF012000205DF8D2
:100AA00008FB00BF4DF808EDFFF7EAFF34BF012057
:100AB00000205DF808FB00BF4DF808EDFFF7E0FFF0
:100AC00094BF012000205DF808FB00BF4DF808ED41
:100AD000FFF7CEFF94BF012000205DF808FB00BFA8
:100AE0004DF808EDFFF7C4FF34BF012000205DF88A
:100AF00008FB00BF4FEA410C7FEA6C5C02D150EA70
:100B0000013C0AD14FEA430C7FEA6C5C02D152EA05
:100B1000033C02D14FF0000070474FF001007047D6
:100B20004FEA410212F5001215D211D56FF4787315
:100B3000B3EB625212D94FEAC12343F0004343EAB8
:100B4000505311F0004F23FA02F018BF4042704793
:100B50004FF00000704750EA013005D111F000401D
:100B600008BF6FF0004070474FF00000704700BFB3
:100B700010B5054C227832B9044B13B10448AFF3D9
:100B800000800123237010BDF80100200000000048
:100B90005C7E0008074B10B51BB107490748AFF34F
:100BA00000800748036823B1064B13B1BDE810402D
:100BB000184710BD00000000FC0100205C7E00080A
:100BC000F401002000000000084B094A1B6810B522
:100BD000A2FB03230446980900F096F82146002260
:100BE0004FF0FF3000F04EF8002010BD2000002034
:100BF000D34D621008B50B4B1A6842F400721A60AC
:100C00001A6842F480621A601A6842F480721A60AC
:100C1000032000F025F80020FFF7D6FF04F024FCA5
:100C2000002008BD003C0240024A136801331360F3
:100C3000704700BF386B0020014B1868704700BF39
:100C4000386B002010B582B00190FFF7F5FF044625
:100C5000FFF7F2FF019B001B9842F9D302B010BDD1
:100C6000074AD3684FF6FF010B40000243F0BF6311
:100C700000F4E06043F400330343D360704700BFE7
:100C800000ED00E0184B70B4DC68C4F30224C4F13A
:100C90000706042E04F1040328BF0426062B17D9E7
:100CA000033C0125A540013D2A400123B340013BFF
:100CB0001940A140002841EA02010CDB00F160402C
:100CC00000F561400901C9B280F8001370BC70479B
:100CD00000221446E9E7054B00F00F000901034428
:100CE000C9B2197670BC704700ED00E0FCEC00E082
:100CF00000F01F0101234009024A8B4042F82030D6
:100D0000704700BF00E100E00138B0F1807F0ED2F3
:100D1000084B10B4084C5860F02084F823000022DF
:100D2000072110469A6019605DF8044B7047012056
:100D3000704700BF10E000E000ED00E0044A1368D7
:100D400004280CBF43F0040323F00403136070472E
:100D500010E000E0704700BF08B5FFF7FBFF08BDDB
:100D6000F8B50446FFF768FF002C6FD00222236815
:100D700084F835201A68002122F0010284F834102A
:100D800005461A6005E0FFF757FF401B05283BD8D2
:100D900023681A68D107F6D4A7686268E6682569EF
:100DA0006169A0693A4332432A430A43E169256AEB
:100DB0001F68344E02430A43616A2A433E400429B5
:100DC00042EA060227D01A605A6922F0070211434C
:100DD000DAB22D4D5961103AA5FB021212092B48C7
:100DE00023F47F73815CE16523F00303032A88BF4A
:100DF00004333F228A4001250021A36508469A60FA
:100E0000616584F83550F8BD0323202262651846D9
:100E100084F83530F8BDE66A216BA56A31430A4390
:100E20001A605A6945F0040122F00702114378B9AB
:100E3000012D23D001D3022DCAD1F201C8D501233F
:100E400040226265184684F83530F8BD0120F8BDAF
:100E5000B0F5005F04D0022DF1D9032DB8D1ECE735
:100E6000032DB5D801A252F825F000BF3F0E0008AF
:100E70003B0E00083F0E00087D0E0008B6F1C07F53
:100E8000A6D1DCE73F8010F0ABAAAAAA787E0008C2
:100E9000F0B490F83440012C0DD090F83540866DB8
:100EA0000125AC4280F8345008D0002380F834305B
:100EB0000220F0BC70470220F0BC70470468022793
:100EC000002580F8357045652568876825F48025FC
:100ED000402F256063600ABFA260A160E160C16D20
:100EE00018BFE2603F238B40026CB360236843F07D
:100EF00016032360636943F0800363611AB12368BA
:100F000043F008032360236843F0010323600020BB
:100F1000CFE700BFF0B583B00023876D0193C36DA9
:100F20003D68624908229A40154204460E6803D083
:100F300001680868400776D45D4A9A40154203D09C
:100F400021684969080668D45A4A9A40154203D074
:100F50002168096889075AD410229A40154203D0A3
:100F60002168086800073FD420229A40154203D028
:100F700021680868C00625D4636D0BB3636DDA077A
:100F80001AD50523216884F835300B684A4A23F0C6
:100F90000103A2FB06020B60920A02E00B68DB076A
:100FA00004D5019B01339A420193F7D20022012319
:100FB00084F8342084F83530E36C0BB12046984730
:100FC00003B0F0BDBA6094F83520052A3BD00B6819
:100FD00013F4802F0B6854D019035FD5E36B002BFB
:100FE000CAD020469847C7E7BA600A6812F4802F33
:100FF0000A6822D1D20503D40A6822F008020A60E6
:10100000226C002AB0D020469047E36DACE7BA606E
:10101000626D42F0040262659EE7BA60626D42F062
:101020000202626590E7086820F004000860BA6078
:10103000626D42F0010262657EE71103E0D5A26CA9
:10104000002AE0D190E70A68206C22F016020A60BC
:101050004A6922F080024A6120B30A6822F008023D
:101060000A603F22216D02FA03F300200122BB60D7
:1010700084F8340084F835200029A1D02046884720
:101080009EE713F48073A9D10A68012022F01002B0
:101090000A6084F8343084F835009FE7636C002BD5
:1010A0009FD169E7A26C002AD7D1DAE7200000209F
:1010B0000100800004008000B5814E1B2DE9F04F37
:1010C000D1F800C0DFF8CCE183B000254FF0010873
:1010D00003E00135102D00F0878008FA05F303EADC
:1010E0000C029342F5D14E6826F0100ABAF1020FB5
:1010F0007DD04FEA45090324D0F800B004FA09F482
:10110000E44306F003070BEA040B07FA09F70AF1B8
:10111000FF3A47EA0B07BAF1010F076040F28E80F1
:10112000C7688B683C4003FA09F32343C360F300AC
:10113000CFD500230193524B514C5B6C43F4804359
:101140006364636C25F0030707F1804703F4804371
:1011500007F59C37019305F00303019CD7F808902D
:101160009B000F249C4029EA040A464CA04278D0F8
:1011700004F58064A04276D0434CA04276D0434C24
:10118000A04278D0424CA0420CBF4FF004094FF06F
:10119000070909FA03F343EA0A03BB60DEF80030EB
:1011A000D443F70354BF23401343CEF80030DEF896
:1011B0000430B70354BF23401343CEF80430DEF8A5
:1011C0000830F70254BF23401343CEF80830DEF84E
:1011D0000C30B60205F1010554BF23401343102D16
:1011E000CEF80C307FF479AF03B0BDE8F08F4FEA52
:1011F000D50900EB890905F00704D9F82070A4008F
:101200004FF00F0B0BFA04FB27EA0B0A0F6907FAE2
:1012100004F444EA0A04C9F820404FEA45090324CB
:10122000D0F800A004FA09F4E44306F003070AEA40
:10123000040A07FA09F747EA0A070760876807EA16
:10124000040ACF6807FA09F747EA0A078760D0F867
:1012500004A0C6F300172AEA0303AF401F43476008
:101260005EE7002397E708FA03F394E74FF00209DB
:1012700009FA03F38FE74FF0030909FA03F38AE74A
:10128000003802400000024000080240000C02400A
:1012900000100240003C014002B90904816170471E
:1012A00043695940416170472DE9F843074690462C
:1012B0009946C1F307468DB23C68012E1FD0A06944
:1012C00035EA000314BF0120002000B36069430524
:1012D0001FD4B8F1FF3FF0D0B8F1000F05D0FFF7F1
:1012E000ABFCA0EB09008045E6D2002320223B6343
:1012F00087F83C3087F83D200320BDE8F883626919
:1013000035EA020314BF012000200028DED1BDE829
:10131000F883236800226FF4806643F40073042589
:1013200020212360012066613D6487F83C203A63F8
:1013300087F83D10BDE8F8832DE9F0418046174657
:101340001D46C1F307468CB2D8F8001009E0886941
:1013500034EA00030CBF01200020B8420BD16B1C03
:101360000CD1012EF3D14B6934EA03030CBF0120E9
:101370000020B842F3D00020BDE8F0812DB1FFF786
:101380005BFC069BC01A8542DED200232022C8F8EF
:10139000303088F83C3088F83D20032088F83E3013
:1013A000BDE8F081F8B504460E461746206843694B
:1013B00013F0040324D145696A050CD56FF48065E8
:1013C00004212022456121640120236384F83C30FC
:1013D00084F83D20F8BD731CE9D026B1FFF72CFC42
:1013E000C01B8642E2D2236C002243F0200320215E
:1013F000236484F83C202263032084F83D10F8BD68
:101400000020F8BD70B505460C46164608E0516947
:10141000C90617D45CB1FFF70FFC801B844206D3CA
:101420002A68536913F04003F1D0002070BD2B6C83
:101430002022134300212B6485F83C1085F83D20C1
:10144000032070BD6FF01000202150612B6401203B
:101450002B6385F83C3085F83D1070BDF8B5044627
:101460000E4617462068436913F0800324D145696E
:101470006A050CD56FF48065042120224561216442
:101480000120236384F83C3084F83D20F8BD731CB0
:10149000E9D026B1FFF7D0FBC01B8642E2D2236C15
:1014A000002243F020032021236484F83C2022639F
:1014B000032084F83D10F8BD0020F8BD00286CD052
:1014C000F8B590F83D30044603F0FF02002B4FD0F2
:1014D0002268334D242384F83D30136823F0010340
:1014E000136000F085FD2F4A61682368A2FB00624B
:1014F000920CA9425A6026D84900B0FBF1F0C0F323
:101500000B01013203291A6298BF0420E569D4F85F
:1015100020E02169E7686269A669D86145EA0E059D
:10152000394332431D609960DA601968002241F046
:101530000101202519601046226484F83D50226381
:1015400084F83E20F8BD4FF49675174FA66805FB4A
:1015500002F2A7FB0252920901321A626EB901EB44
:101560004101B0FBF1F0C0F30B029AB90120CDE7C5
:1015700080F83C2003F07EFCAAE701EB810101EB3F
:101580008101B0FBF1F0C0F30B02002AEED040F471
:101590004040BBE740F40040B8E70120704700BF7F
:1015A000A086010083DE1B43D34D62102DE9F0437A
:1015B000044685B01F4688461546FFF73DFB94F864
:1015C0003D30202B04D00225284605B0BDE8F0832D
:1015D000064600901923012266492046FFF7ACFE1B
:1015E0000028F0D194F83C30012BECD023681A6825
:1015F0000121D20784F83C1002D41A680A431A6009
:101600001A685D4922F400621A60212284F83D20A4
:10161000102284F83E20002222646785E162618DF9
:10162000E26A6562042A218519D0012A17D012F5D1
:10163000803F14D0226B122A11D000960C9B0022FE
:101640004FF001112046FFF777FE68B1236C042BA1
:1016500000F08480002384F83C300325B4E71A6846
:1016600042F480721A60E8E72369B3F5804F60D1D5
:10167000236808F0FE021A6133460C9A3F4920465F
:10168000FFF712FE054608B1236CDFE723680390DD
:101690005A6903929B690393039B32E0FFF7DEFED6
:1016A00032460C9900283FD1D4F824E0D4F800C089
:1016B000B4F828800EF1010363629EF80030CCF884
:1016C0001030638D013B9BB26385DCF8143008F168
:1016D000FF395B072046A4F828900FD50EF10203CE
:1016E00067B163629EF80130CCF81030638D013B26
:1016F000A8F102089BB2A4F828806385FFF752FE88
:1017000090B9238D0C9932462046002BC6D1216812
:101710000A68202042F400720A6084F83D0084F8D0
:101720003C3084F83E304FE7236C042B1BD003255C
:101730004AE74FEAE8132268114903F0060343F031
:10174000F0031361204633460C9AFFF7ADFD0028E5
:101750009AD122685FFA88F313618DE7002384F839
:101760003C30012530E72268136843F400731360AE
:10177000012529E7020010000000FFFF0200010020
:10178000080001002DE9F041044688B098460D4656
:101790001746FFF751FA94F83D30202B04D002256C
:1017A000284608B0BDE8F0810646009019230122C2
:1017B000A2492046FFF7C0FD0028F0D194F83C3044
:1017C000012BECD023681A680121D00784F83C1063
:1017D00002D41A680A431A601A68994922F400620E
:1017E0001A60222284F83D20102284F83E20002234
:1017F0002264A4F82A80E162608DE16A1A68676257
:1018000042F48062042920851A6019D0012917D07A
:1018100011F5803F14D0226B112A11D000960E9B37
:1018200000224FF001112046FFF786FD68B1236CBE
:10183000042B00F0F980002384F83C300325AFE747
:101840001A6842F480721A60E8E72369B3F5804FA2
:1018500040F0B38045F001032268DBB213613346E8
:101860000E9A78492046FFF71FFD054608B1236C04
:10187000DDE7238D9BB9236803955A6903929A6922
:101880000392039A1A6842F400721A60002320221D
:1018900084F83D2084F83C3084F83E3080E72268AC
:1018A000012B116800F0D480022B00F0DF8041F49E
:1018B0008061116006955169069192690692069AB7
:1018C000614F032B4CD8012B69D0022B00960E9B45
:1018D0004FF00002394620461CD0FFF72DFD0028AE
:1018E00069D12368D4F824E0196821F48061196073
:1018F0001B690EF1010262628EF80030638D218D4A
:101900000096013B9BB2013963850E9B21850246FF
:1019100039462046FFF710FD00284CD12368616A44
:101920001A6842F400721A601B694A1C62620B70EA
:10193000638D218D606A2268013B9BB263851269C9
:101940004B1E411C238561620270238D628D013B19
:10195000013A9BB292B223856285002BB1D195E703
:1019600032460E992046FFF74DFD002861D1636A8B
:101970002268591C126961621A70628D2168238D78
:10198000013A92B262854A69013B9BB252072385B4
:10199000E3D5636A0A69591C61621A70D5E7324659
:1019A0000E992046FFF72EFD002842D1636A226877
:1019B000591C1269F0E70325F2E6EF112368234969
:1019C00007F0060747F0F0021A61204633460E9AE8
:1019D000FFF76AFC00287FF44AAF23680E9A194982
:1019E000EDB21D6120463346FFF75EFC024600283B
:1019F0007FF43DAF23680790596907919969079172
:101A00000799196841F48071196020460E9B009671
:101A10004FF00111FFF790FC00287FF408AF236816
:101A200047F0F1071F611AE7002384F83C300125D5
:101A3000B6E6236C202BBED00125B1E602001000D3
:101A40000000FFFF02000100040001000800010087
:101A500021F48061116004955169049191690491A8
:101A60000499116841F40071116029E721F4806143
:101A70001160116841F4006111600595516905918B
:101A800092690592059A1BE7F0B50368DD0783B0FC
:101A900004462FD5A3498A6802F00C02042A00F0FC
:101AA000F4808A6802F00C02082A00F0EA80636879
:101AB000B3F5803F00F02C81B3F5A02F00F000813A
:101AC000984D2A6822F480322A602A6822F4802203
:101AD0002A60002B40F0FD80FFF7AEF8064605E0D7
:101AE000FFF7AAF8801B642800F2AA802B689B03EA
:101AF000F6D423689F072DD58A4A916811F00C0F00
:101B000000F0A580916801F00C01082900F09B808D
:101B1000E368002B00F0EB80834B824D01221A60BA
:101B2000FFF78AF8064605E0FFF786F8801B0228D3
:101B300000F286802B689807F6D52968F82292FA79
:101B4000A2F22369B2FA82F221F0F80193400B432A
:101B50002B6023681A0720D4590734D4A369CBB16A
:101B6000704DAA6802F00C02082A77D0022B6F4B46
:101B70004FF000021A6000F0D180FFF75DF82C46AC
:101B8000054604E0FFF758F8401B022858D82368A0
:101B90009B01F7D4002003B0F0BD6369002B60D037
:101BA000634B604D01221A60FFF746F8064604E0D9
:101BB000FFF742F8801B022842D86B6F9F07F7D5CA
:101BC00023685907CAD5574B5A4D002201921A6C07
:101BD00042F080521A641B6C03F080530193019B06
:101BE0002B6843F480732B60FFF726F8064604E069
:101BF000FFF722F8801B022822D82B68DA05F7D5D8
:101C0000A368012B00F0F180052B00F0D580454D35
:101C10002A6F22F001022A672A6F22F004022A6743
:101C2000002B40F0D280FFF707F841F288360746D4
:101C30002B6F980792D5FEF7FFFFC01BB042F7D974
:101C4000032003B0F0BD526856023FF561AF354A3C
:101C50001268950723D5E268012A20D0012003B03D
:101C6000F0BD334A2F4D1360FEF7E6FF064604E051
:101C7000FEF7E2FF801B0228E2D86B6F9807F7D4CB
:101C80009EE74A6850027FF512AF264A1268910318
:101C90007FF530AF6268002A7FF42CAFDEE7214D7C
:101CA000F821286891FAA1F12269B1FA81F120F0B6
:101CB000F8008A4002432A601A077FF54DAF6CE7AF
:101CC000184B1A6842F480221A601A6842F4803273
:101CD0001A60FEF7B1FF134D064604E0FEF7ACFFB5
:101CE000801B6428ACD82B689A03F7D501E70E4A0D
:101CF0000C4D1360FEF7A0FF064604E0FEF79CFFC4
:101D0000801B02289CD82B689907F7D4236821E709
:101D1000044A136843F480331360DAE7FEF78CFF5C
:101D200006460FE00038024000004742600047428C
:101D3000800E474200700040FEF77EFF801B0228A5
:101D40003FF67EAF2B689901F6D447F6C07696FA37
:101D5000A6F64FF44032B6FA86F692FAA2F24FF0A7
:101D60007061B2FA82F091FAA1F1A26A676AE3693E
:101D7000D4F820E0E46A520843EA0E0307FA06F6B4
:101D8000013A8240B1FA81F1334304FA01F113437D
:101D9000194A1A4C0B4301216B601160FEF74CFF8E
:101DA000054605E0FEF748FF401B02283FF648AF16
:101DB00023689A01F6D5EDE6104B1A6F42F0040243
:101DC0001A671A6F42F001021A67FEF735FF0B4DD2
:101DD000074641F288362B6F9B073FF5BFAEFEF7F3
:101DE0002BFFC01BB042F6D92AE7044A136F43F019
:101DF00001031367E9E700BF600047420038024073
:101E0000194A936803F00C03042B2BD0082B27D11D
:101E10005168536801F03F0113F4800F536847F68F
:101E2000C07292FAA2F0B0FA80F003EA020323FA39
:101E300000F314BF0D480E48B0FBF1F000FB03F0B7
:101E4000094B4FF440325B6892FAA2F2B2FA82F286
:101E500003F44033D34001335B00B0FBF3F0704731
:101E600003487047014870470038024000127A006A
:101E70000024F400574A136803F00F038B4208D282
:101E8000CBB21370136803F00F03994201D0012005
:101E9000704703689A072DE9F04106D54E4C8568D6
:101EA000A26822F0F0022A43A260DF0706460C4631
:101EB00026D54268012A00F08780931E012B464BED
:101EC0001B687BD9990728D5434DAB6823F00303E2
:101ED0001343AB60FEF7B0FE7368012B074641F277
:101EE00088384FD0022B58D0032B05D160E0FEF785
:101EF000A3FEC01B404564D8AB6813F00C0FF6D1AD
:101F0000344A136803F00F039C4209D2E3B2137002
:101F1000136803F00F039C4202D00120BDE8F0815A
:101F200033685A0706D52C49F0688A6822F4E052D3
:101F300002438A601B0707D5274A3169936823F457
:101F4000604343EAC1039360FFF75AFF224B014607
:101F5000F0229B6892FAA2F2B2FA82F203F0F00346
:101F6000D3401E481E4AC35C002021FA03F31360CD
:101F7000FEF72AFE0020BDE8F081FEF75DFEC01BE3
:101F800040451ED8AB6803F00C03042BF5D1B7E72E
:101F9000FEF752FEC01B404513D8AB6803F00C039C
:101FA000082BF5D1ACE7FEF747FEC01B404508D82B
:101FB000AB6803F00C030C2BF5D1A1E7980183D497
:101FC000ABE70320BDE8F081034B1B689D033FF5A1
:101FD0007BAFA2E7003C024000380240807E000850
:101FE00020000020014B1868704700BF200000202F
:101FF000084B4FF4E0529B6892FAA2F2B2FA82F2D6
:1020000003F4E053D3400449044ACB5C1068D84041
:10201000704700BF00380240807E0008200000208A
:10202000084B4FF460429B6892FAA2F2B2FA82F235
:1020300003F46043D3400449044ACB5C1068D840A1
:10204000704700BF00380240807E0008200000205A
:10205000F0B5436A87B0044600221B044FF00D0E12
:102060000D460068019340274FF4806601A9009255
:102070000492CDF808E00397059601F0BBFD2068B7
:10208000436B13F0450FFBD0436B5E0704D504236D
:102090008363032007B0F0BD466B16F0010604D041
:1020A00001238363184607B0F0BD01F0B7FD0D288A
:1020B00002D0102007B0F0BD236840F2FF529A63AF
:1020C000304601F0AFFD0090009B3348009AC3F307
:1020D000432310402B700028DCD0009B002B04DB36
:1020E000009B590003D50920D4E71C20D2E7009BB0
:1020F0009A0001D50A20CDE7009BDB0001D50B201B
:10210000C8E7009B1F0101D50C20C3E7009B5E01BF
:1021100001D50D20BEE7009BDD0101D50E20B9E7FA
:10212000009B1C0201D50F20B4E7009B5902C0D4CC
:10213000009B9A0201D51120ACE7009BDB0201D580
:102140001220A7E7009B1F0301D51320A2E7009BE5
:102150005E0301D514209DE7009B9D0301D515204A
:1021600098E7009BDC0301D5162093E7009B190438
:1021700001D517208EE7009B5A0401D5182089E766
:10218000009B9B0401D5192084E7009B13F0080FE6
:102190000CBF00201A207DE708E0FFFD0268536BAA
:1021A00013F0450FFBD0536B5B0703D504239363F8
:1021B0000320704770B5566B16F0010602D001205F
:1021C000906370BD044610460D4601F027FDA842FD
:1021D00001D0102070BD236840F2FF529A63304650
:1021E00001F020FD284B03402BB1002805DB450002
:1021F00005D5092070BD184670BD1C2070BD840037
:1022000001D50A2070BDC10001D50B2070BD0201AF
:1022100001D50C2070BD430101D50D2070BDC60154
:1022200001D50E2070BD050201D50F2070BD4402FE
:10223000CFD4810201D5112070BDC20201D5122078
:1022400070BD030301D5132070BD460301D51420D2
:1022500070BD850301D5152070BDC40301D51620BE
:1022600070BD010401D5172070BD420401D51820AE
:1022700070BD830401D5192070BD10F0080F0CBF8C
:1022800000201A2070BD00BF08E0FFFD2DE9F041DD
:102290008EB000231025402204460193029306933A
:1022A0000E464FF4806303A9006804950827059241
:1022B0000793039701F09EFC29462046FFF76EFF27
:1022C000054618B128460EB0BDE8F081636A206863
:1022D0001B04372503A90393049501F08BFC2946C1
:1022E0002046FFF75BFF05460028EBD14FF0FF319A
:1022F00030200222012308910A9008A920680B923D
:102300000D9309970C95332701F098FC03A92068D9
:102310000395049701F06EFC39462046FFF73EFF17
:1023200005460028CED10DF1040840F22A67206846
:1023300001E09B0209D4436B3B42436BF9D01C077D
:1023400008D5082383630425BCE701F041FC48F865
:10235000040BECE7436B990702D502258563B1E7CF
:10236000436B9A0603D5202383630625AAE7436BB4
:102370009B0504D54FF4007383630725A2E7019AF8
:10238000029B12BA40F2FF511BBA81637260336044
:1023900098E700BF2DE9F043056A81F85650836A3B
:1023A0000246406AA1F85400980F0870C3F383678F
:1023B000C3F30166C3F30744C3F30720DBB24F70D6
:1023C0008E70CC7008714B71D46A230E1B01CB80C8
:1023D000C888C4F3035680B2C4F307233043C4F360
:1023E0000346C880DF090E72C3F34010C3F38016A2
:1023F0004F72012D8E72C3F30017C8724FF00000A8
:102400000F73487340F2A280022D00F0DD80156B3F
:1024100029205B0003F07E034E768B768B7EC5F31E
:10242000C014234305F07F058B76CD76536B9C0D4E
:10243000DF0FC3F34176C3F3826504F00C040F771A
:102440004E778D77CC77CC7FC3F381552C43C3F384
:102450004057C3F300450026CC77C3F3C03881F85A
:102460002070C3F3803C81F82160C3F3403E81F8C3
:102470002250C3F30037C3F38126C3F3012501249F
:10248000C3F3460381F8238081F824C081F825E056
:1024900081F8267081F8276081F8285081F829306A
:1024A00081F82A40956BC5F307432E0E1B0281F875
:1024B0002C60CB85CE8DD36BC5F30727B6B23E43D8
:1024C0002D06CE850D630D6B1E0E45EA06450D6388
:1024D0000E6B1D0A05F47F4535430D630E6BC3F388
:1024E00007253543DBB20D6381F83430136C1D0CC6
:1024F0001E0E2D0681F835608D638E6B526C1D02A9
:1025000005F47F0535438D638D6B1B029BB22B4316
:102510008B638B6B43EA12638B6391F83C50C2F37D
:102520000356130A354303F4706381F83C50CB879C
:10253000CB8FC2F307259BB22B43C2F34602CB8756
:1025400081F8402081F84140BDE8F0839B0203F40C
:1025500040630B610B69156BA40004F47F741C438A
:102560000C610C69EB0B44EA9574C5F3425703F018
:102570000603C5F38246C5F3C26CC5F3026E0C6157
:1025800081F814C081F815E08F75CE750B760B7E3F
:10259000C5F3C03423430B760E690F7E0C7A0123FA
:1025A00006EB030803FA04F4BE1CB340A8FB04893D
:1025B000A8FB036703FB0977C5F30723C1E912678B
:1025C0000C65C3F3801624E7240404F47C14156B13
:1025D0000C610B692C0E43EA04230B610C69C5F3F3
:1025E000074323430B610E690027013647F10007BB
:1025F000FC0444EA5634C5F30723F6044FF400778D
:102600008E64CC64C3F380160F6502E72DE9F04FAA
:10261000002691B0067704460D468DF8126002F050
:1026200085FE76230D960E960F9310AB13E90700E7
:10263000D4F800E00A968DE807000B960C96B84F88
:102640000AAB0ECB704601F0A7FA8DF81360206834
:102650003E6001F0C7FA0120FEF7F4FA01233B6067
:10266000206805964FF4806305A90696079608969C
:10267000099301F0BFFA2068436B1E0600F1A780A2
:10268000436B4FF6FF72C3F3C013002B40F09F80E3
:10269000436B013AC3F3C013F7D103238DF8133012
:1026A0009DF81330002B40F09D80402308224FF40A
:1026B000D57605A907930596069201F09BFA206846
:1026C000436B13F0450F40F054814FF4803302E028
:1026D000002B00F02B81426B12F0450F03F1FF330A
:1026E000F6D0426B002B40F0BB80042383630323AE
:1026F0008DF813309DF81330002B00F0AC804FF0B4
:1027000000080023372605A90593069601F072FA02
:1027100031462046FFF742FD8DF813009DF8133037
:1027200003F0FF06002B5DD148F0004848F4801804
:1027300037464FF0370905A94FF0400B4FF4806A38
:10274000206805970897CDF81890CDF81CB0CDF803
:1027500024A001F04FFA49462046FFF71FFD8DF8EF
:1027600013009DF8133003F0FF02002B3AD1292308
:1027700005A920680892CDF81480CDF81CB0CDF8DA
:1027800024A0069301F036FA2268536B13F0450F2C
:10279000FBD0536B13F004036ED004239363032325
:1027A0008DF813309DF8133003F0FF00D3B901F01A
:1027B00039FA002864DB01364FF6FF739E42B8D128
:1027C0001B238DF813309DF81330DBB20DE040F27F
:1027D000FF53836300238DF813309DF81330002BD3
:1027E0003FF463AF9DF81330DBB28DF812309DF8E3
:1027F000123003F0FF062BB19DF81200C0B211B0E9
:10280000BDE8F08F206801F0F1F9002841D12526BC
:102810008DF812609DF81230002BEDD1294620462C
:10282000FFF7B8FD8DF812009DF8123003F0FF029B
:10283000002B7DD0231D54F8105B94E807008DE831
:10284000070028460ECB01F0A7F99DF81200C0B290
:1028500011B0BDE8F08F012323624FF0804850E7AC
:1028600002F00403002B7FF440AF426B510646BFD9
:102870004022826329233BE740F2FF5191638FE7B7
:102880004FF6FE739E429BD0420044BF0223236258
:10289000A8E7236A042BBBD0C0224FF48063022731
:1028A00005A920680792059608960697099301F0F6
:1028B000A1F92268536B13F0450FFBD0536B5B07F4
:1028C00030D4506B10F0010049D140F2FF539363B4
:1028D00001F0A8F9A063042001F0A4F9E063082046
:1028E00001F0A0F920640C2001F09CF9236A6064D7
:1028F000022B01D9062B43D10322402305A92068CE
:102900000692079301F076F92068436B13F0450FA8
:10291000FBD0436B5F0725D504238363032677E74A
:10292000A080254204239363032671E7436BDCE612
:10293000B5F8543008921B044FF4806205A90725AE
:1029400020680593402609920695079601F052F9F2
:1029500029462046FFF722FC8DF812006AE701267F
:10296000966355E7466B16F0010637D0012686635D
:102970004EE7436B03F00403002B7FF4B6AE74E71D
:102980000120042B30D00304C0226062092605A96F
:10299000206807920593069601F02CF92268536B84
:1029A00013F0450FFBD0536B5B07BBD4566B16F08F
:1029B0000106D4D140F2FF539363304601F032F95F
:1029C000A062042001F02EF9E062082001F02AF94B
:1029D00020630C2001F026F9606319E701F01EF96D
:1029E000032803D0102613E7002611E7236840F2DE
:1029F000FF5230469A6301F015F910F4604F03D08E
:102A0000860404D5132603E7000C236AB9E74104C2
:102A1000E8D4020401D50F26FAE6236A0120B0E7C4
:102A20002DE9F041036A032B8CB00FD0022B12D892
:102A3000B1F5805F0AD0B1F5006F0D46044618D09D
:102A400071B1262630460CB0BDE8F081272630460D
:102A50000CB0BDE8F081002630460CB0BDE8F08136
:102A600008460491059101F0DDF8820115D50E2686
:102A7000EDE7002318460493059301F0D3F8800195
:102A8000F5D404A92046FFF701FC06460028DED154
:102A9000059B59034CD42526D9E704A92046FFF706
:102AA000F5FB06460028D2D1059BDB03F3D5636A0C
:102AB00009961B0406AF3726402239460693206844
:102AC00007964FF4806308920A9301F093F8314619
:102AD0002046FFF763FB06460028B8D14FF00608F2
:102AE000394620680696CDF81C8001F083F84146EF
:102AF0002046FFF753FB0646002EA8D16269A36962
:102B000009950B930A920CAB13E907006368A5685B
:102B10000693E368246807958DE80700089320462C
:102B200097E80E0001F038F830460CB0BDE8F081AF
:102B3000636A09961B0406AF37264022394606937E
:102B4000206807964FF4806308920A9301F052F8C8
:102B500031462046FFF722FB064600287FF477AF78
:102B600002230626394620680693079601F042F8AC
:102B700031462046FFF712FB0646BDE770B586B02A
:102B800000234FF4806204460C2501A9402600680A
:102B90000193049305920295039601F02BF82946C0
:102BA0002046FFF7FBFA06B070BD00BF2DE9F043E9
:102BB00004468DB0256A00680026022DC66288464C
:102BC0001746149E53D040231025002201A90393D9
:102BD0004FF48063029504920593019601F00AF880
:102BE00029462046FFF7DAFA054618B128460DB007
:102BF000BDE8F083159B0A954FF0FF31902003FB51
:102C000006F6022201230691089006A920680B937C
:102C10000796099201F012F8159B012B01A93CD9E6
:102C2000122520680295019700F0E4FF294620460E
:102C3000FFF7B4FA05460028D8D140F22A372368B6
:102C400002E05A6B160418D45A6B3A42F9D05A6B08
:102C5000D20502D5226A022A55D95A6B110735D5F9
:102C60000425082228469A630DB0BDE8F083570A70
:102C700047EAC3574FF40076A5E7A8F1040608F128
:102C80001C0900E02368184600F0A2FF46F8040F74
:102C90004E45F7D108F12008D1E7112520680295AB
:102CA000019700F0A7FF29462046FFF777FA05466F
:102CB00000289BD140F22A67236802E05A6B100477
:102CC0000AD45A6B3A42F9D05A6BC6E75A6B92074C
:102CD00012D502259D6389E7A8F1040608F11C09B5
:102CE00000E02368184600F073FF46F8040F4E45D5
:102CF000F7D108F12008DFE75A6B970609D52022A3
:102D00009A63062572E72046FFF738FF23680546D9
:102D1000A3E75A6B960504D54FF400729A63072512
:102D200064E75A6B900248BF4FF0FF3602D40AE0C6
:102D3000013E08D0184600F04BFF236848F8040B0A
:102D40005A6B9102F4D440F2FF529A634EE700BFEF
:102D50002DE9F04704468CB0D4F820E00068149FB9
:102D60000026BEF1020FC6620D4691468DF8036043
:102D700057D040231026002201A903934FF480630B
:102D8000029604920593019700F034FF31462046E5
:102D9000FFF704FA064688B9159B2068CDF8049021
:102DA000012B8CBF1926182601A9029600F022FFDC
:102DB00031462046FFF7F2F9064618B130460CB00E
:102DC000BDE8F087159B09904FF0FF3103FB07F832
:102DD000902201230A90069120680B9306A9CDF852
:102DE0001C80089200F02AFF159B2068012B1FD938
:102DF00040F21A3702E0436B590424D4436B3B4240
:102E0000F9D0436BDB0502D5236A022B73D9436BE0
:102E10001E073CD508230426836330460CB0BDE86A
:102E2000F0874FEA522949EAC3594FF40077A0E7E7
:102E300040F21A6702E0436B59042ED4436B3B42C5
:102E4000F9D0436BE3E7A8EB06031F2B0BD9A94688
:102E50002035494609F1040900F0BEFEA945206865
:102E6000F7D12036CAE79A072ED15FEA9309C5D079
:102E70004FEA890905EB090A00E020682946043574
:102E800000F0AAFE5545F8D14E442068B6E7436BE2
:102E90009D0729D50226866390E7A8EB06031F2B22
:102EA00016D89A072CD19B08C8D04FEA830905EBA6
:102EB000090A00E020682946043500F08DFE5545DA
:102EC000F8D14E442068B9E79B0803F10109CFE728
:102ED000A9462035494609F1040900F07DFEA945BF
:102EE0002068F7D12036A9E7436BD9060BD510230C
:102EF0008363052662E72046FFF740FE206886E7E9
:102F00009B080133D1E7436B9A0504D54FF4007356
:102F10008363072652E740F2FF5383630DF10301F9
:102F20002046FFF795F8064630B147E70DF103015B
:102F30002046FFF78DF828B99DF80330063B012B9A
:102F4000F4D93BE7064639E7F0B5436A87B0044653
:102F50000D251B044FF4806201A9006802954027EB
:102F60000026019303970496059200F043FE29463C
:102F70002046FFF713F910B1022007B0F0BD00F0B2
:102F800051FEC0F34320043818BF012007B0F0BD44
:102F90002DE9F04180460F4616461D46D8F8004000
:102FA00001E06B1C0AD1A06837EA00030CBF0120C6
:102FB00000208642F5D10020BDE8F0813DB1FDF74B
:102FC0003BFE069BC01A8542E8D8D8F800406368EB
:102FD000D8F8042023F0E003B2F5827F636017D0B5
:102FE000D8F82830B3F5005F08D00122002388F814
:102FF000512088F850300320BDE8F08123684DF659
:10300000FF7213402360236843F400532360ECE70E
:10301000D8F80830B3F5004F02D0B3F5806FDFD198
:10302000236823F040032360DAE700BF00283AD08A
:1030300090F85120F8B50025044602F0FF018562A2
:103040005AB3A7686368E66820696269E1693B432F
:10305000334303431343266AA0692768626A0B431C
:10306000022184F851103968334300F40076000CD3
:10307000334300F004002B43024321F04001396048
:103080003B607A60FB69002223F400630121FB614D
:103090001046626584F85110F8BD80F8501002F0B7
:1030A0009BF9A56ACDE70120704700BF2DE9F041EB
:1030B000044690F85000012884B003D1022004B0E7
:1030C000BDE8F0811D46012384F850300E4690463D
:1030D000FDF7B2FD074694F85100C0B2012809D0AF
:1030E00002200122002384F8512084F8503004B0DB
:1030F000BDE8F081002EF4D0B8F1000FF1D0A26845
:10310000266300230321B2F5004F84F85110A36316
:103110006365A38763642364A4F83680A4F83480CD
:10312000E38723685DD01A68520603D41A6842F018
:1031300040021A60E268B2F5006F62682BD052B1AB
:10314000E28E92B2012A06D0E38E9BB273B123685D
:103150009A68920715D516F8012B1A73E38E013B76
:103160009BB2E386E38E9BB2002BF0D100972B46F7
:10317000012202212046FFF70BFF002836D0032052
:10318000AFE7002DFBD06B1CDED0FDF755FDC01B5B
:103190008542D9D8F3E75AB1E28E92B2012A07D01C
:1031A000E38E9BB2002BE1D023689A6890070ED57E
:1031B00036F8022BDA60E38E013B9BB2E386E38EA6
:1031C0009BB2002BD2D023689A689007F0D4002DD0
:1031D000D5D0691CE4D0FDF72FFDC01B8542DFD898
:1031E000CDE71A6842F480421A609CE702460097D5
:1031F0002B4680212046FFF7CBFE30B1636D2022A5
:1032000013436365012062656BE7A36833B92268E5
:103210000393D368039393680393039B606D00301B
:1032200018BF01205DE700BFF8B590F85030012BC2
:103230000DD0044690F851000123C0B2984284F8A2
:10324000503006D00220002384F85030F8BD022010
:10325000F8BD0029F7D0002AF5D0A068A286002387
:103260000325B0F5004F84F8515021636365A363D3
:10327000E28663642364A387E38722681FD0A06C7F
:10328000E38E114D0564114F114EC76300250C32BA
:103290009BB2C6640565FDF7FBFD23681A685206FC
:1032A00003D41A6842F040021A605A6842F02002C1
:1032B0005A605A6842F002025A600020C3E713685D
:1032C00043F480431360DAE7D5320008093300087D
:1032D000E532000808B5806B01F05EFF08BD00BF55
:1032E000704700BF08B5836B19684A6822F0030273
:1032F0004A605A6D012142F010025A65184683F85F
:103300005110FFF7EDFF08BD30B5054685B0846B61
:10331000FDF792FC2B681A6812F4807223D12168A1
:103320004B6823F002034B60009064238021204609
:10333000FFF72EFE38B1636D43F020036365636DC4
:1033400043F020036365A36833B922680393D3680D
:10335000039393680393039B01230022E28684F87E
:103360005130636D23B9204601F024FF05B030BD14
:103370002046FFF7B5FF05B030BD00BFF0B5046AC9
:10338000D1F808E00E68124D24F001040462036ACB
:103390004768826923F0020322F07302A84243EADD
:1033A0000E0342EA060205D0496847608261416324
:1033B0000362F0BDCE684C698D6923F0080327F4E1
:1033C000407733432C4323F004032743ECE700BF4B
:1033D00000000140F0B5046AD1F808E00E68134D12
:1033E00024F480740462036A4768C26923F400739A
:1033F00022F07302A84243EA0E2342EA060205D0F5
:1034000049684760C261C1630362F0BDCE684C6920
:103410008D6923F4006327F4405743EA06232C43C5
:1034200023F4806347EA0417EAE700BF0000014085
:10343000F0B4046A8F680E680E4D24F48054046260
:10344000036A4468C26923F4005322F4E642A842A6
:1034500043EA073342EA062206D049684460C26163
:10346000F0BC0164036270474D6924F4804444EA6F
:103470008514F2E7000001400168022210B480F8D0
:1034800039200A680124034622430A60002083F899
:1034900039405DF8044B704703680122186A02FA4C
:1034A00001F120EA010010B418621A6A084C1143B5
:1034B000A342196207D01A685DF8044B42F001027A
:1034C00000201A6070475A6C42F400425A64F2E7D6
:1034D00000000140264A03689042F0B434D0B0F1B5
:1034E000804F20D0A2F57C4290421CD002F5806231
:1034F000904218D002F58062904214D002F59A32C0
:10350000904214D002F58062904210D002F58062A1
:1035100090420CD08C680A6803600123C462826206
:10352000F0BC436170474A6823F070031343CD68D1
:103530008C680A6823F440732B4303600123C46240
:103540008262F0BC436170474F68CE688D680C683A
:103550000A6923F070033B4323F440733343036051
:103560000123C56284620263F0BC4361704700BFFF
:1035700000000140B8B190F8393010B503F0FF02F7
:1035800004465BB1022384F839302068211DFFF71F
:10359000A1FF012384F83930002010BD80F83820C5
:1035A00002F02AF8EEE70120704700BFF0B5046A88
:1035B000D1F808E00E68134D24F010040462036A89
:1035C0004768826923F0200322F4E642A84243EAD6
:1035D0000E1342EA062205D0496847608261816382
:1035E0000362F0BDCE684C698D6923F0800327F437
:1035F000406743EA06132C4323F0400347EA84075D
:10360000EAE700BF0000014038B590F83830012BE0
:103610002BD00D4602230121044680F8381080F893
:1036200039300C2A1AD8DFE802F0351919190719B0
:10363000191947191919220029460068FFF7B6FF22
:1036400023682869996941F400619961996921F4B5
:10365000806199619A6942EA00229A6101230020FF
:1036600084F8393084F8380038BD022038BD294646
:103670000068FFF7DDFE23682869D96941F400611D
:10368000D961D96921F48061D961DA6942EA0022FD
:10369000DA61E3E729460068FFF770FE23682869CE
:1036A000996941F008019961996921F004019961D2
:1036B0009A6902439A61D1E729460068FFF78AFEBA
:1036C00023682869D96941F00801D961D96921F0D5
:1036D0000401D961DA690243DA61BFE790F8383052
:1036E000012B1ED002460220136870B482F8390004
:1036F0005C6824F0700491E860005C6058682843BE
:103700005860986820F0800098609968002401252E
:1037100031439960204682F8395082F8384070BCB5
:1037200070470220704700BF2DE9F0470468226906
:103730008246C068DAF81C10DAF80830DAF810604F
:10374000DAF8145022F4405202432261E268DAF8B7
:103750001800334322F416422B4322F00C020B4391
:103760001343E360636923F440730343B1F5004FEF
:103770006361AB4B61D09C4200F0018103F5806333
:103780009C4200F0FC80FEF733FCA64FDAF80430D0
:1037900000EB800000EB80009B00B0FBF3F3A7FB85
:1037A00003235B091D01FEF723FCDAF8043000EB6C
:1037B00080009B0000EB8000B0FBF3F6FEF718FCE6
:1037C000DAF8042000EB8000930000EB8000B0FBEF
:1037D000F3F3A7FB03234FF064095B0909FB1363B1
:1037E0001B013233A7FB03235B0903F0F006FEF74E
:1037F000FFFBDAF8042000EB8000930000EB800070
:10380000B0FBF3F8FEF7F4FBDAF8043000EB8000CD
:103810009B0000EB8000B0FBF3F0A7FB00304009F9
:1038200009FB10831B013233A7FB0323C3F34313AC
:1038300033432B44A360BDE8F0879C425DD003F581
:1038400080639C4259D0FEF7D3FB764FDAF8043000
:1038500000EB800000EB80005B00B0FBF3F3A7FB04
:1038600003235B091E01FEF7C3FBDAF8043000EB0B
:1038700080005B0000EB8000B0FBF3F5FEF7B8FBC7
:10388000DAF8042000EB8000530000EB8000B0FB6E
:10389000F3F3A7FB03235B094FF0640909FB135300
:1038A000DB003233A7FB03231B0903F4F875FEF793
:1038B0009FFBDAF8042000EB800000EB800053004F
:1038C000B0FBF3F8FEF794FBDAF8043000EB80006D
:1038D00000EB80005B00B0FBF3F3A7FB03235B0965
:1038E00009FB1383DB003233A7FB0323C3F342132B
:1038F00033442B44A360BDE8F087FEF791FB494FAA
:10390000DAF8043000EB800000EB80005B00B0FBD5
:10391000F3F3A7FB03235B091E01FEF781FBDAF833
:10392000043000EB80005B0000EB8000B0FBF3F59F
:10393000FEF776FBDAF8042000EB8000530000EB82
:103940008000B0FBF3F3A7FB03234FF064095B098E
:1039500009FB1353DB003233A7FB03231B0903F4DA
:10396000F875FEF75DFBDAF8042000EB80005300E9
:1039700000EB8000B0FBF3F8FEF752FBA4E7FEF784
:103980004FFB284FDAF8043000EB800000EB80009A
:103990009B00B0FBF3F3A7FB03235B091D01FEF7BC
:1039A0003FFBDAF8043000EB80009B0000EB800066
:1039B000B0FBF3F6FEF734FBDAF8042000EB8000EE
:1039C000930000EB8000B0FBF3F3A7FB03234FF061
:1039D00064095B0909FB13631B013233A7FB032353
:1039E0005B0903F0F006FEF71BFBDAF8042000EB9E
:1039F0008000930000EB8000B0FBF3F8FEF710FBB3
:103A0000DAF8043000EB800000EB80009B00B0FB94
:103A1000F3F3A7FB03235B0909FB138302E700BF52
:103A2000001001401F85EB512DE9F04107460E467D
:103A300090461D463C6801E06B1C06D1206836EAC2
:103A40000003F9D10020BDE8F08135B1FDF7F4F8AD
:103A5000A0EB08008542EDD23C68E36823F4D07304
:103A6000E3606369202223F00103002163610320E6
:103A700087F8392087F8381087F83A20BDE8F081B8
:103A800060B338B590F83930044603F0FF0203B351
:103A90002268242384F83930D36823F40053D36098
:103AA0002046FFF741FE23681A6922F490421A610A
:103AB0005A6922F02A025A61DA680025202142F46C
:103AC0000052DA602846E56384F8391084F83A1029
:103AD00038BD80F8382001F0C3FDD9E701207047D8
:103AE0002DE9F0430F4690F83910202983B003D018
:103AF000022003B0BDE8F083002F3ED0002A3CD066
:103B0000984690F83830012B0446F1D0002001216E
:103B10002123E06384F8381084F839300192FDF7EE
:103B20008BF8019AA2848146E28406E0FFF77CFFCD
:103B300028BB23683A785A600137E58CADB243461A
:103B40004A4680212046E5B1E58CA668013DADB22C
:103B5000B6F5805FE584E9D143464A468021204698
:103B6000FFF762FF58B93B8821682269C3F3080355
:103B70004B60002AE0D10237DFE70120B9E70320DC
:103B8000B7E74021FFF750FF0028F8D1202384F841
:103B9000380084F83930ACE784B070B404AC84E801
:103BA0000E00059E069A079D089C0B46334313435F
:103BB0002B4342680999234370BC22F4FD420B4316
:103BC00022F07F021343436004B00020704700BF1F
:103BD000D0F88000704700BF0B68C0F8803000202C
:103BE000704700BF0323036000207047006800F0A7
:103BF000030070470B6830B483608D684B68CC68F5
:103C0000C26809692B43234322F47F6222F00F022A
:103C10000B431343C36030BC002070470069C0B23F
:103C2000704700BF044B82B003440022019201930D
:103C3000019B186802B07047142C01400A1D30B473
:103C40002CCA0C6844620C698262C26A49692B43BF
:103C5000234322F0F7020B431343C36230BC00201E
:103C6000704700BFF0B48C88CD88416005FB04F339
:103C70005B000026866002600327086023F00701CE
:103C800010608B4223FA07F04FF0020688BF013024
:103C9000D5809480977216811061F0BC704700BF88
:103CA00043681B6A184700BFF0B5C4888C4223D90B
:103CB0008588954220D90589104F114EDFF844E0E0
:103CC00004FB021205FB02F202F01F015409C56851
:103CD0003C603160CEF80020807A55F8242000EA5C
:103CE000030722FA01F6374206D1884022EA000291
:103CF0008B40134345F82430F0BD00BF406B0020DB
:103D00003C6B0020446B0020F0B40789082696FB2A
:103D1000F7F66EB1837A002219401446134601FA71
:103D200002F501342B43B442DBB23A44F7D11E46CC
:103D300031460269C068F0BC01F008BD2DE9F04FC2
:103D400087B0002BBDF94070DDF844B0C0F2DC80D4
:103D5000B0F806E0734580F28D80002FC0F28F80AE
:103D60008688B74202DB964240F3818022EAE27AFB
:103D70008146701E824527EAE776A8BF8246B04298
:103D8000A8BF3046AAEB0006002E23EAE37521EA1D
:103D9000E1740EF1FF33B8BF76429C42A8BF1C46C7
:103DA00036B29D42A8BF1D46002E6CD1B9F808104E
:103DB000202393FBF1F3002B00F0B58099F80A80E3
:103DC0003246374608EA0B08013208FA06FC9A42E6
:103DD00047EA0C070E44F7D1B4FBF3F203FB12429F
:103DE000D2B1AC4235D886B24FF0200801E0AC42E7
:103DF0002FD8A1B25B46324601344846FFF754FF44
:103E0000B9F8081098FBF1F3B4FBF3F203FB12428C
:103E1000002AECD1B9F806E00EFB0A4E01FB0EF1C8
:103E2000A5424FEA511114D32A1B9A4211D3D9F853
:103E30000C001A19AE1A00EB810103E09E4208D370
:103E400006461A44AA4241F8047B1446A6EB030036
:103E5000F4D9013CAC420AD81FFA8AFAA1B25B46F7
:103E6000524648460134FFF71FFFAC42F6D907B06F
:103E7000BDE8F08F8E45FADD002FBFF671AF002A46
:103E8000BFF66EAFF3E72B1B002B02B20FFA8AFAD4
:103E9000B8BF5B4229B2059224B29245ACBF4FF045
:103EA000FF32012202928C42ACBF4FF0FF3201225E
:103EB000B3420493019100922ADD049B5D10049BA0
:103EC0005B42A7B21FFA8AF803935B464246394623
:103ED0004846FFF7E9FE019A009B94423B441CD000
:103EE000039A9542C8BF1CB2029AC6BFA7B2AB1BC9
:103EF0002B46B542424405DA0FFA82FA049A1FFAB9
:103F00008AF813441D46E0E70029BFF621AFAEE76B
:103F100006EBD6756D106D42D1E7059A9245DFD15B
:103F200007B0BDE8F08F1F4656E700BF2DE9F04F00
:103F30000E46C18885B08E420546BDF8380067DA66
:103F40001746AA8897423C4662DA002E63DB002FB0
:103F500069DB06EB030E714502DC4B1E9B1B9BB21B
:103F600001198A4202DC013AD21B90B2002B4FD0D9
:103F700000284DD01FFA86F909F1FF3213449BB295
:103F80000393BDF90CB00097421E1FFA82F80F9AF6
:103F900001925B463A463146284608EB070AFFF78E
:103FA000CDFE0FFA8AFA0F9A01925B4652463146CD
:103FB0002846CDF800A0FFF7C1FE0F9A01923346C4
:103FC00031463A462846CDF800A0FFF7B7FE0F9AD3
:103FD0000192A044CDF800A001343A465B46594610
:103FE0002846FFF7ABFE444512DA039B09F10109AD
:103FF0005E1E0FFA89F936B2109B22B28DE80C00D2
:104000000134334649462846FFF798FE4445F3D12C
:1040100005B0BDE8F08FC6F1000E9E45F8DC3344D4
:104020009BB2002693E77C428442F1DC38440027AF
:1040300080B23C468DE700BF2DE9F04F91B0CC1A1D
:10404000C3EBC3361F465D181FFA84FB76001B9C2A
:104050000C929146ADB212B207970194C7F10107D5
:1040600034B2089100920FFA8BF12BB20B943CB250
:10407000DDF8688003948246FFF760FE079F4E4696
:10408000DDF82090BA1992B2434649465046FFF7F0
:104090000BFEF21B92B2434649465046FFF704FE20
:1040A0004346324629465046FFF7FEFD3CB24346A2
:1040B0003246594650460294FFF7F6FD002C40F375
:1040C000C980731C0E934946731E0D934B1C00222E
:1040D0000A9309F1FF33049209935BE01FFA82FB14
:1040E0000C9A13465B44A2EB0B079BB20693BFB23C
:1040F000059B079A93420E9B04EB030640F08B80CE
:104100000D9B1D1BB6B2ADB20A9B069A04EB0309C8
:104110001FFA89F9494643465046FFF7C5FD099BFA
:10412000069A1C1BA4B2214643465046FFF7BCFD2D
:104130003A46434649465046FFF7B6FD3A462146C1
:1041400043465046FFF7B0FD089F07EB0B04A4B2AF
:10415000A7EB0B072146434632465046BFB2FFF756
:10416000A3FD3246394643465046FFF79DFD2146A2
:1041700043462A465046FFF797FD049C43462A468D
:104180003946504601340494FFF78EFD029B059A90
:1041900093425FDD039A002A0CDB0B9B02339BB238
:1041A0001A441146029A1BB2013A09B20B9313B298
:1041B00003910293BDF81040039B079903EB44035E
:1041C0000333621C1BB2039313B2029A05938A4213
:1041D00084D00C9FBDF808B0089A3B465B449BB264
:1041E0000693151B16191AB21B9B2DB236B2A7EBFC
:1041F0000B078DE80C00294633465046BFB2FFF747
:104200009DFD1B9801903AB23346294600925046D4
:10421000FFF794FD6CE70A9B1B990191A3EB0B0937
:10422000099BB6B232B20FFA89F95B441BB2009215
:10423000494650460F93FFF781FD0D9A1B98019058
:10424000151BADB22AB20F9B009249465046FFF7AC
:1042500075FD59E711B0BDE8F08F00BF2DE9F04FB3
:1042600083B00C9C0C9DE4682E6834F81140E988FA
:10427000BDF83870264481B3013B8346019302F1B7
:10428000FF3A4FF0000917B3019B002503EB090823
:104290002C461FFA88F83378234113F0010F04F1FC
:1042A000010407D10135AF420FD0072CF3D90136F5
:1042B0000024F0E70AEB050189B20D9B42465846FF
:1042C0000135FFF7F1FCAF42EFD10C9BD98809F122
:1042D0000109494506F10106D5D803B0BDE8F08FC4
:1042E0002DE9F04F814685B008460E4617469A469E
:1042F000FBF756FF0E9CDDF83CB0E0B106EB000882
:10430000218A16F8013B628AA5885B1A93428ABF0C
:10431000002199B20B460DB9A268D55C02955346AF
:10432000BAB28DE810084846FFF798FFA38AB04557
:104330001D442F44E4D105B0BDE8F08F006800F0C3
:1043400031B800BF024B1868421C1A60704700BFAA
:10435000140200208268086182B1C3682BB1002278
:10436000D9608B60CA60C16070471346D268002A6A
:10437000F5D01346D268002AF7D1F0E78160C1601A
:104380000261CA608A607047036933B15B6823B118
:104390009A6983691344836270478269C369826240
:1043A000C362704710B370B584680CB306464068AA
:1043B0000D4668B102291DD0294600F01FF8022DD4
:1043C000B46807D02046294600F018F8E4685CB1CC
:1043D000022DF7D12046FFF7D7FF2046294600F0EF
:1043E0000DF8E468002CF3D1012070BD0320704764
:1043F000032070BDFFF7C8FF7068DDE7012905D015
:10440000022905D0032905D002207047836B184785
:10441000C36B1847036C18470120704700B585B07F
:104420000DF1100E0EE90E0005B05DF804FB00BFA3
:10443000704700BF704700BF70B5456B0368AA6D39
:10444000044684B01868238C02922E6EA58CB4F9B1
:104450002C20B4F928108DE86000FFF767FD236871
:10446000B4F92C201868B4F92810002303258DE82E
:104470002800FFF763FC656B2368A26A696D186802
:10448000ED6DA38D044C0195023292B20094FFF7BA
:1044900027FF012004B070BD30A800082DE9F04FBF
:1044A000044683B008686060A4630846211D9346F3
:1044B0000193DDF830A0DDF83490DDF838800F9FEF
:1044C000109E119DFFF746FF019BDFF864E0144941
:1044D000C4F81CB04FF0000C2362124A1248DFF8F7
:1044E00054B0A1640123C4F824A0C4F82890C4F8EF
:1044F0003CE02064C4F844C0C4F84CB02265237684
:10450000FFF720FF0146A0600848C4F85480A76563
:10451000E665256603B0BDE8F04F01F08BBD00BF36
:104520001D440008354400081944000848A8000844
:104530003944000831440008704700BF014B1B6834
:1045400019647047E06E002000207047F0B44FF40B
:10455000A0714FF4F0520C4B0C4F0D4E0D4D0E4C04
:1045600081804261F0211022C3610023076246620C
:104570008562C462C18041810281828103610383BB
:104580004383F0BC704700BFED460008F14A0008C5
:1045900049450008394500083D4500082DE9F04F20
:1045A0002D4B47681E78B7F81A90002E3BD1B7F80C
:1045B00008800122C844A7F81A801A700068C388CE
:1045C000058905FB03F509FB05F5C1454FEA5515BE
:1045D00040D27B89DFF884C00022F3B13C69D0F877
:1045E0000CE004EB460431465EF8253090F80AB042
:1045F000B0F808A0D34003EA0B0352443CF8133050
:1046000024F8023B01317B891F2AA1EB060A84BFF3
:10461000013500225345E7D80E4609F10109C84586
:10462000DBD1BDE8F08F012E03D0022E07D000268B
:10463000C4E7B7F80880002609EB5808BEE73B89B5
:104640007E694A461A4403EB09087A83B60809EBE7
:104650005309B3E7BDE8F08F1802002000000020E6
:1046600010B5044610210948FCF71AFE628BA38896
:10467000074901209A42087002D22068FFF78EFF96
:1046800002481021FCF70CFE10BD00BF00040240E0
:104690001802002010B582B002AC012204F8010D0E
:1046A00010210548FCF7F8FD21460A2301220348A2
:1046B000FEF7FCFC02B010BD00080240286E00208E
:1046C00010B582B002AC002204F8010D102105489B
:1046D000FCF7E2FD21460A2301220348FEF7E6FC2F
:1046E00002B010BD00080240286E002010B5A84C92
:1046F000012220462021FCF7CFFD0520FCF7A2FA7D
:10470000204600222021FCF7C7FD1420FCF79AFA6E
:10471000012220212046FCF7BFFD9620FCF792FAEB
:104720000120FFF7CDFF0520FCF78CFA2820FFF7CA
:10473000C7FFCF20FFF7C4FF0020FFF7ABFF8320A8
:10474000FFF7A8FF3020FFF7A5FFED20FFF7B8FF28
:104750006420FFF79FFF0320FFF79CFF1220FFF765
:1047600099FF8120FFF796FFE820FFF7A9FF85203A
:10477000FFF790FF0120FFF78DFF7920FFF78AFFF9
:10478000CB20FFF79DFF3920FFF784FF2C20FFF798
:1047900081FF0020FFF77EFF3420FFF77BFF022020
:1047A000FFF778FFF720FFF78BFF2020FFF772FF5E
:1047B000EA20FFF785FF0020FFF76CFF0020FFF7DE
:1047C00069FFC020FFF77CFF2620FFF763FFC120B1
:1047D000FFF776FF1120FFF75DFFC520FFF770FFA1
:1047E0003520FFF757FF3E20FFF754FFC720FFF7A4
:1047F00067FFBE20FFF74EFF3620FFF761FF48201E
:10480000FFF748FF3A20FFF75BFF5520FFF742FF15
:10481000B120FFF755FF0020FFF73CFF1B20FFF7FB
:1048200039FFF220FFF74CFF0820FFF733FF262067
:10483000FFF746FF0220FFF72DFFE020FFF740FFC4
:104840000F20FFF727FF3120FFF724FF2B20FFF772
:1048500021FF0C20FFF71EFF0E20FFF71BFF082093
:10486000FFF718FF4E20FFF715FFF120FFF712FFAB
:104870003720FFF70FFF0720FFF70CFF1020FFF78F
:1048800009FF0320FFF706FF0E20FFF703FF0920B3
:10489000FFF700FF0020FFF7FDFEE120FFF710FF0C
:1048A0000020FFF7F7FE0E20FFF7F4FE1420FFF7BD
:1048B000F1FE0320FFF7EEFE1120FFF7EBFE0720CD
:1048C000FFF7E8FE3120FFF7E5FEC120FFF7E2FE2B
:1048D0004820FFF7DFFE0820FFF7DCFE0F20FFF780
:1048E000D9FE0C20FFF7D6FE3120FFF7D3FE36208D
:1048F000FFF7D0FE0F20FFF7CDFE2A20FFF7E0FEE6
:104900000020FFF7C7FE0020FFF7C4FE0020FFF7DE
:10491000C1FEEF20FFF7BEFE2B20FFF7D1FE0020E7
:10492000FFF7B8FE0020FFF7B5FE0120FFF7B2FE4B
:104930003F20FFF7AFFE3420FFF7C2FE3520FFF720
:10494000BFFE0120FFF7A6FEB720FFF7B9FE072044
:10495000FFF7A0FEB620FFF7B3FE0A20FFF79AFE8E
:104960008220FFF797FE2720FFF794FE0020FFF735
:1049700091FE1120FFF7A4FE6420FCF763F92920C3
:10498000FFF79EFE6420FCF75DF9002010BD00BF1C
:10499000000802402DE9F04782460E46914601216B
:1049A0000022DFF884801D481D4C1E4F1D46FCF779
:1049B00073FC2A20FFF784FE404601221021FCF7F9
:1049C0006BFC4FEA1A234FEA192E2146237004226A
:1049D0000A23384684F802E084F801A084F80390A2
:1049E000FEF764FB2B20FFF76BFE404601221021EF
:1049F000FCF752FC4FEA162E384621462F0A0A23AE
:104A00000422667084F800E0E570A770FEF74EFBA4
:104A10002C20BDE8F047FFF753BE00BF0004024062
:104A2000546B0020286E0020000802402A4A838828
:104A30001288418B9B1A994270B504460BDB274BB9
:104A400042830021197000688368002B41D0984789
:104A50000126618B00E000262389E288204D013B7E
:104A60000B449BB20020FFF795FF2068FFF796FDEF
:104A7000012210211B48FCF70FFC002201211A48DB
:104A8000FCF70AFC2B6893B9A28A21691748FEF744
:104A9000CBFB01232B604EB12068C3680BB1984754
:104AA0002068036913B1BDE87040184770BD0F4D11
:104AB00063692A68A86C21690C32FCF7E9F92B6854
:104AC0005A6842F020025A605A6842F002025A6064
:104AD000E1E711460126BFE71A0200201802002074
:104AE0001C0200200008024000040240286E002042
:104AF00038B5084C05462046FEF7BEFC20460C2182
:104B0000FEF7CAFC236868681F221A64FFF78EFF4D
:104B100038BD00BFE06E002038B50122054B0446C9
:104B20000225114604481D70FCF7B6FB2046FFF72E
:104B30007DFF38BD1802002000040240104B5A7A55
:104B4000012A01D901207047F0B55D7A5F7A5E7A5B
:104B50005A7AEDB20024D2B203EB87075C551E44AB
:104B6000551CEDB2786034725D7230324FF03A0EFF
:104B70002F2720460A70CC7081F801E08F70F0BDBD
:104B80002002002010B5064C0123237000F066F8C7
:104B900018B9237803F0FE032370207810BD00BFFE
:104BA0001000002010B5064C0123237000F09AF885
:104BB00018B9237803F0FE032370207810BD00BFDE
:104BC0001000002010B582B04FF40074019352021F
:104BD00008460094002300F061F8003018BF01205F
:104BE00002B010BD10B582B04FF4007401935202B0
:104BF00008460094002300F063F8003018BF01203D
:104C000002B010BD144B1B78DB0701D503207047A1
:104C100003291ED8DFE801F0020E090400207047C6
:104C20004FF400731360012070474FF4007313803A
:104C30000020704710B596B06846144600F058F84A
:104C4000129B139A5B0A43EAC2530020236016B0FA
:104C500010BD0420704700BF1000002000B583B0D5
:104C600001208DF807009DF80730834202D003B081
:104C70005DF804FB07490848FDF7C8FC0028F6D199
:104C80004FF400610448FDF7CBFE003018BF01204F
:104C9000EDE700BF706D0020C86D002010B582B038
:104CA0000499059C0091019401460448FDF77EFF9C
:104CB000003018BF012002B010BD00BFC86D002039
:104CC00010B582B00499059C0091019401460448F6
:104CD000FEF73EF8003018BF012002B010BD00BF43
:104CE000C86D00200148FEF72FB900BFC86D002035
:104CF00001460148FDF74EBBC86D002000B583B0EA
:104D000000220A4B0192196B41F4800119631B6B5D
:104D100003F48003019311463B20019BFBF7B2FF94
:104D20003B20FBF7E5FF03B05DF804FB00380240D1
:104D300008B503490348FFF701FF034B187008BD8E
:104D40005C6B00205CA80008586B00202DE9F04344
:104D50008BB00024334B00941A6B334D334F42F029
:104D600080021A631A6B02F080020092009A01948A
:104D70001A6B42F004021A631A6B02F004020192E9
:104D8000019A02941A6B42F001021A631A6B02F044
:104D900001020292029A03941A6B42F002021A6311
:104DA0001A6B02F002020392039A04941A6B42F007
:104DB00008021A631B6B069403F008030493284649
:104DC000032305A9049A059301260794FCF776F9B5
:104DD00005A9174806944FF0300907940596FCF78B
:104DE0006DF905A928464FF03908069607940894EE
:104DF000CDF81490FCF762F905A938460696079499
:104E00000894CDF81480FCF759F922464946284603
:104E1000FCF742FA224641463846FCF73DFA0BB011
:104E2000BDE8F08300380240000802400004024060
:104E3000000002400C4B0D4A10B54FF480410C4C61
:104E40001A60184600225C6019619A60DA605A6143
:104E50009A61DA611A62FCF731FB00B910BDBDE856
:104E6000104000F079B900BF606B00200054004092
:104E7000801A06000268124B9A4200D0704770B543
:104E8000042386B003220DEB03014FF44076122574
:104E900001240C4804920593019602950394FCF7B3
:104EA0000DF9094B002200921A6C42F400121A64A8
:104EB0001B6C03F400130093009B06B070BD00BF91
:104EC00000540040000402400038024070B5194D03
:104ED0002B6884B000211868FEF716FF2B681E6847
:104EE000FBF7AAFE144AA2FB003252094FF4FA73F0
:104EF00003FB12025208012403233232304601938D
:104F000092B2009428233221FFF796F82B680222F0
:104F100018680292322300931A460194AA21FFF7DF
:104F200005F8064B1868214604B0BDE87040FFF74D
:104F300005BA00BFB46B0020D34D6210B86B0020DF
:104F400070B50E4C86B064258DF80F000DF10F0280
:104F500020460095002601233A218DF81760FCF7C2
:104F600025FB0095204601230DF117023A21FCF79D
:104F700009FC9DF8170006B070BD00BF606B0020F3
:104F8000F8B50022082107461848194EFCF784F9A5
:104F9000002210211548FCF77FF9002447FA04F598
:104FA00005F001052A4620211048FCF775F9214635
:104FB0002A46304601F03EF8012210210B48FCF74A
:104FC0006BF90120FBF73EFE002210210748FCF799
:104FD00063F901340120FBF735FE082CDED12146B0
:104FE00001220248BDE8F840FCF756B9000402402F
:104FF00070A80008F0B595B00020284B0190196CFE
:10500000274A41F0805119641B6C03F080530193CF
:10501000019B0290136823F4404343F40043136060
:10502000136803F440430424029301264FF48031B3
:1050300002254FF48002602308A8029F0896099178
:105040000E950F921094129413941193FCF71CFD7B
:1050500000B1FEE7034631464FF480520F2603A805
:1050600004950593079303960692FCF703FF054604
:1050700000B1FEE7FCF7B6FF0A4BA3FB0030800946
:10508000FBF742FE2046FBF759FE2A4629464FF021
:10509000FF30FBF7F7FD15B0F0BD00BF0038024050
:1050A00000700040D34D621000B585B0FBF7A2FD43
:1050B0006424FFF79FFFFFF749FEFFF71FFE00F094
:1050C00025F900F067F900F057FAFFF731FE00F01C
:1050D000ABFAFFF7AFFE0020FFF752FF242603AA2A
:1050E0000094702502233A2117488DF80C608DF842
:1050F0000D502526FCF75AFA2025009403AA022316
:105100003A2111488DF80D508DF80C602625FCF7DA
:105110004DFA03AA02233A2100940B488DF80C5053
:1051200000248DF80D40FCF741FA0F20FFF708FF2F
:105130000146064800F07EFF00F04AF8044A054B9D
:1051400010608360FEE700BF606B00207CA8000851
:10515000B46B0020CD4E0008FEE700BF10B40B4C2E
:105160000B49D4F884200B48013281FB0231D3175C
:10517000C3EB2113962101FB1323C4F8843000688C
:105180005DF8044B0221FFF7D9B800BFC06B0020C7
:10519000B5814E1BB86B0020044B834200D0704792
:1051A000034B1B685868FFF75BBA00BF286E0020EE
:1051B000F86C0020044B834200D07047034B1B68FF
:1051C0005868FFF7A9BC00BF286E0020F86C0020CB
:1051D0002DE9F04F384D394F394A3A4B3A4E3B4C56
:1051E000DFF808813A6087B0284613601C60FFF73B
:1051F000ADF9374B69692B61304600F01BFF29463A
:1052000042462046FEF72EFD05462A463148C8F89C
:105210000C00002100F09AFA2946304600F00AFFFF
:105220003B68DFF8CC8019682B4B029301264FF0C6
:1052300000094FF0020B4FF0460A64253223404626
:105240008DE820041A460596CDF810B0CDF80C90E4
:10525000FFF724F93A68214B11680095322508F1CF
:10526000680002932A460596CDF8109003960195A2
:105270009623FFF713F93A68194B1168194F0293F7
:105280002A46DC2308F1D000CDF814900496CDF81E
:105290000CB00195CDF800A0FFF700F920463C6066
:1052A000FFF724FA2046FEF7FBFC38680E4BC3607C
:1052B00007B0BDE8F08F00BF286D0020B86B00205C
:1052C000BC6B0020106D002080A80008586D0020E5
:1052D0002C4D00202C02002014000020180000207B
:1052E0001C000020F86C00205D510008FC6C0020C0
:1052F000C06B002010B50A231446034892B2FEF793
:10530000EFFB204610BD00BF1C6F0020054B064A76
:105310001A600221002299615A609A60DA601A616B
:105320005A617047C86D0020002C01400268164B7E
:105330009A4200D07047F0B587B0002403F5863359
:1053400000945A6C114842F400625A645B6C0394F6
:1053500003F40063009301A94FF4F85302270326D6
:105360000C25009A0193029704960595FBF7A6FE7B
:10537000042301A906480297039404960595019316
:10538000FBF79CFE07B0F0BD002C01400008024076
:10539000000C024038B50E4B0E4A1A604FF482756D
:1053A00000224FF400740A2118465D609C61D962A6
:1053B0009A60DA601A615A61DA611A625A629A6214
:1053C000FDF734FE00B938BDBDE83840FFF7C4BE74
:1053D000286E0020003001401F4B02689A4200D026
:1053E0007047F0B587B0002603F5843300965A6CF9
:1053F0001A4D42F480525A645B6C039603F4805356
:10540000E02100930322052302270191044601A90C
:105410001348029704920593DDF800E0114FFBF763
:105420004DFE4FF0C06140224FF480632846EE608D
:105430006E61AE61EE612E626E622F606960AA607D
:105440002B61FBF78DFC18B9A564AC6307B0F0BD08
:10545000FFF782FEF8E700BF00300140806E0020B9
:10546000000002405864024008B50320FBF7F8FB37
:10547000002211466FF00B00FBF704FC00221146DE
:105480006FF00A00FBF7FEFB002211466FF00900E7
:10549000FBF7F8FB002211466FF00400FBF7F2FB6C
:1054A000002211466FF00300FBF7ECFB00221146CF
:1054B0006FF00100FBF7E6FB002211464FF0FF30D2
:1054C000BDE80840FBF7DEBB704700BFFEE700BF4A
:1054D000FEE700BFFEE700BFFEE700BF704700BF6A
:1054E000704700BF704700BF08B5FBF79DFBBDE8E4
:1054F0000840FBF731BC00BF0148FBF70BBD00BF04
:10550000806E00201049114BD1F8882042F47002BF
:1055100010B4C1F888201A680D4C002042F0010236
:105520001A6098601A6822F0847222F480321A603D
:105530005C601A684FF0006422F480221A60D86020
:105540008C605DF8044B704700ED00E000380240CD
:105550001030002400B587B00223002201A90548BD
:1055600001930293059303920492FBF7A7FD07B002
:105570005DF804FB0004024070B51D4C1D4B236018
:105580008AB000230121102220466160E260A360FE
:105590002361FDF7EFFFD8B9002301A91448019357
:1055A0000293FEF79BF800BB0C22002360260F2518
:1055B0000DEB02010E480396049505930793FEF741
:1055C00023F840B922680B4B9A420AD00AB070BD4A
:1055D000FFF7C2FDE0E7FFF7BFFD2268054B9A42E7
:1055E000F4D1FFF7B7FF0AB070BDFFF7B5FDDBE7F9
:1055F000E06E00200004004002680A4B9A4200D08E
:10560000704782B003F50D33002201921A6C42F00C
:1056100002021A641B6C03F002030193019B02B0A7
:10562000704700BF000400400B4B0C4A10B50C2122
:105630001A604FF4E134002218465C6059619A60A8
:10564000DA601A619A61DA61FEF71AFA00B910BDE0
:10565000BDE81040FFF780BD1C6F00200014014022
:105660000268114B9A4200D07047F0B587B003F53D
:105670009233002200925A6C0C4842F020025A6485
:105680005B6C03F02003009303220823C02602254D
:10569000012401A9009F01960295039404920593A9
:1056A000FBF70CFD07B0F0BD0014014000080240FC
:1056B000DFF834D0002103E00C4B5B584350043139
:1056C0000B480C4B42189A42F6D30B4A02E00023D7
:1056D00042F8043B094B9A42F9D3FFF713FF00F05D
:1056E00011F8FFF7E1FC70470080012050AB000883
:1056F00000000020F4010020F8010020606F00206D
:10570000FEE7000070B50D4E0D4CA41BA410002543
:10571000A54209D10B4E0C4C02F0A0FBA41BA41017
:105720000025A54205D170BD56F8253098470135B2
:10573000EEE756F8253098470135F2E748AB000808
:1057400048AB000848AB00084CAB000802440346D5
:10575000934200D1704703F8011BF9E72DE9FF4799
:1057600055EC104B0D9FDDF830A0002D0E469146F4
:105770001946B8BF22462B4627F02007BBBF05F1CC
:1057800000431D4600232D23B8BF1446462F0B703F
:1057900004D0452F00D10136022100E0032103ABE4
:1057A000019302AB00933246534645EC104B00F098
:1057B000E7FC472F804602D119F0010F26D0462F73
:1057C00008EB060911D198F80030302B0AD10022DD
:1057D000002320462946FBF75BF918B9C6F10106FC
:1057E000CAF80060DAF8003099440022002320460D
:1057F0002946FBF74DF938B93022039B994505D965
:10580000591C03911A70F8E7CDF80C90039B0E9A7F
:10581000A3EB08034046136004B0BDE8F087F7B57A
:1058200003460029B8BF494203F8022BB4BF2D221A
:105830002B220929427020DD0DF1070217460A26A6
:1058400091FBF6F506FB15113031092D02F8011C0C
:1058500002F1FF34294609DC3031023A04F8011C18
:10586000BA421C4604D3201A03B0F0BD2246E7E733
:1058700012F8011B03F8011BF2E730221C46114409
:1058800004F8022B5970EEE72DE9F04F8DB00C466D
:10589000DDF8588016461F46054601F009FB0368EF
:1058A00004931846FAF77CFC00230A93D8F80030DA
:1058B0000590073323F0070303F1080294F818A0BA
:1058C000D4F800B0C8F80020D3E90023C4E91223BB
:1058D000D4E9128929F000430793CDF818804FF0DE
:1058E000FF32A54BDDE90601FBF704F9002840F083
:1058F000FB814FF0FF32A04BDDE90601FBF7DCF83E
:10590000002840F0F1810022002340464946FBF781
:10591000C9F810B12D2384F84330984B984ABAF156
:10592000470F8CBF9046984603232BF00402236157
:1059300022604FF00009009733460BAA2146284603
:1059400000F0E2F9013040F093804FF0FF300DB0ED
:10595000BDE8F08F61684B1C4BF480623FD1062399
:105960006360002303930AAB029309AB009349ECF5
:10597000108B0DF123032260CDF804A06168284646
:10598000FFF7ECFE0AF0DF03472B804609D1099BA5
:10599000D81C02DB6268934257DDAAF1020A5FFA63
:1059A0008AFABAF1650F099934D80139524604F1DF
:1059B00050000991FFF733FF0A9A8318012A8146A4
:1059C000236102DC2268D10701D5013323619DF8F0
:1059D0002330002BAFD02D2384F84330ABE7BAF14E
:1059E000670F02D0BAF1470FBBD189B100230393EF
:1059F0000AAB029309AB009349EC108B2260CDF8FF
:105A000004A00DF123032846FFF7A8FE8046BEE759
:105A10000123A5E7BAF1660F19D1002963680CDDEF
:105A2000216113B92268D20702D501330B442361E7
:105A3000099BA3654FF00009C9E713B92268D00795
:105A400001D50233F3E70123F1E74FF0670A099B21
:105A50000A9A934205DB22682361D107E8D5013316
:105A6000E5E7002BD4BFC3F1020301231344DEE7B3
:105A700023685A0507D42369424631462846B84769
:105A800001302BD161E7BAF1650F40F2E2800022CC
:105A90000023D4E91201FAF7FBFF00283CD00123D0
:105AA000384A31462846B84701303FF44EAF0A9B8A
:105AB000099A9A4202DB2368D8070FD5059B049AFE
:105AC00031462846B84701303FF43FAF4FF0000859
:105AD00004F11A090A9B013B984512DB23689B07D6
