:020000040800F2
:1000000000800120B5570008DF550008E1550008C1
:10001000E3550008E5550008E7550008000000001A
:10002000000000000000000000000000E95500088A
:10003000EB55000800000000ED550008EF550008E2
:10004000055800080558000805580008055800081C
:10005000055800080558000805580008055800080C
:1000600005580008055800080558000805580008FC
:1000700005580008055800080558000805580008EC
:100080000558000805580008055800080000000041
:1000900000000000000000000000000005580008FB
:1000A00005580008055800080558000805580008BC
:1000B00005580008055800080558000805580008AC
:1000C000055800080558000805580008055800089C
:1000D00005580008055800080558000800000000F1
:1000E00005580008055800080558000800000000E1
:1000F000000000000000000000000000055800089B
:1001000000000000055800080558000805580008C0
:1001100000000000000000000000000000000000DF
:10012000055800080558000805580008FD55000846
:10013000055800080000000000000000000000005A
:10014000000000000000000000000000055800084A
:10015000055800080558000805580008055800080B
:1001600005580008055800080000000000000000C5
:10017000000000000000000000000000000000007F
:10018000000000000558000800000000000000000A
:040190000558000806
:1001A000034613F8012B002AFBD1181A01387047B7
:1001B00001F0FF01102A2BDB10F0070F08D010F818
:1001C000013B013A8B422DD010F0070F42B3F6D11C
:1001D000F0B441EA012141EA014122F007047FF035
:1001E00000070023F0E80256083C85EA010586EA8C
:1001F000010685FA47F5A3FA87F586FA47F6A5FAC8
:1002000087F68EB9EED1F0BC01F0FF0102F00702D3
:1002100032B110F8013B013A83EA010313B1F8D17E
:100220000020704701387047002D06BF354603385F
:10023000073815F0010F07D1013015F4807F02BF98
:10024000013015F4C03F0130F0BC0138704700BFE9
:1002500081F0004102E000BF83F0004330B54FEA77
:1002600041044FEA430594EA050F08BF90EA020FE4
:100270001FBF54EA000C55EA020C7FEA645C7FEA77
:10028000655C00F0E2804FEA5454D4EB5555B8BF9A
:100290006D420CDD2C4480EA020281EA030382EA0B
:1002A000000083EA010180EA020281EA0303362D9D
:1002B00088BF30BD11F0004F4FEA01314FF4801C70
:1002C0004CEA113102D0404261EB410113F0004F82
:1002D0004FEA03334CEA133302D0524263EB430339
:1002E00094EA050F00F0A780A4F10104D5F1200ED7
:1002F0000DDB02FA0EFC22FA05F2801841F1000132
:1003000003FA0EF2801843FA05F359410EE0A5F105
:1003100020050EF1200E012A03FA0EFC28BF4CF036
:10032000020C43FA05F3C01851EBE37101F00045EC
:1003300007D54FF0000EDCF1000C7EEB00006EEBF9
:100340000101B1F5801F1BD3B1F5001F0CD3490883
:100350005FEA30004FEA3C0C04F101044FEA4452DA
:1003600012F5800F80F09A80BCF1004F08BF5FEA61
:10037000500C50F1000041EB045141EA050130BD41
:100380005FEA4C0C404141EB010111F4801FA4F1E4
:100390000104E9D191F0000F04BF01460020B1FA39
:1003A00081F308BF2033A3F10B03B3F120020CDA71
:1003B0000C3208DD02F1140CC2F10C0201FA0CF04F
:1003C00021FA02F10CE002F11402D8BFC2F1200CB4
:1003D00001FA02F120FA0CFCDCBF41EA0C0190406A
:1003E000E41AA2BF01EB0451294330BD6FEA0404B3
:1003F0001F3C1CDA0C340EDC04F11404C4F120029E
:1004000020FA04F001FA02F340EA030021FA04F3AF
:1004100045EA030130BDC4F10C04C4F1200220FA06
:1004200002F001FA04F340EA0300294630BD21FA44
:1004300004F0294630BD94F0000F83F4801306BF0A
:1004400081F480110134013D4EE77FEA645C18BFFE
:100450007FEA655C29D094EA050F08BF90EA020F95
:1004600005D054EA000C04BF1946104630BD91EA8D
:10047000030F1EBF0021002030BD5FEA545C05D190
:100480004000494128BF41F0004130BD14F58004CF
:100490003CBF01F5801130BD01F0004545F0FE4143
:1004A00041F470014FF0000030BD7FEA645C1ABF78
:1004B000194610467FEA655C1CBF0B46024650EAAF
:1004C000013406BF52EA033591EA030F41F40021DB
:1004D00030BD00BF90F0000F04BF0021704730B561
:1004E0004FF4806404F132044FF000054FF0000136
:1004F00050E700BF90F0000F04BF0021704730B5F7
:100500004FF4806404F1320410F0004548BF4042CB
:100510004FF000013EE700BF42004FEAE2014FEA20
:1005200031014FEA02701FBF12F07F4393F07F4FFB
:1005300081F06051704792F0000F14BF93F07F4F2D
:10054000704730B54FF4607401F0004521F0004170
:1005500020E700BF50EA010208BF704730B54FF0F6
:1005600000050AE050EA010208BF704730B511F0FB
:10057000004502D5404261EB41014FF4806404F133
:1005800032045FEA915C3FF4DCAE4FF003025FEAB5
:10059000DC0C18BF03325FEADC0C18BF033202EB3D
:1005A000DC02C2F1200300FA03FC20FA02F001FA97
:1005B00003FE40EA0E0021FA02F11444C1E600BF36
:1005C00070B54FF0FF0C4CF4E06C1CEA11541DBFE9
:1005D0001CEA135594EA0C0F95EA0C0F00F0DEF8B4
:1005E0002C4481EA030621EA4C5123EA4C5350EA99
:1005F000013518BF52EA033541F4801143F48013EA
:1006000038D0A0FB02CE4FF00005E1FB02E506F07A
:100610000042E0FB03E54FF00006E1FB03569CF0CF
:10062000000F18BF4EF0010EA4F1FF04B6F5007FD5
:1006300064F5407404D25FEA4E0E6D4146EB060647
:1006400042EAC62141EA55514FEAC52040EA5E50D0
:100650004FEACE2EB4F1FD0C88BFBCF5E06F1ED87A
:10066000BEF1004F08BF5FEA500E50F1000041EBB1
:10067000045170BD06F0004646EA010140EA02005E
:1006800081EA0301B4EB5C04C2BFD4EB0C0541EA80
:10069000045170BD41F480114FF0000E013C00F395
:1006A000AB8014F1360FDEBF002001F0004170BDB9
:1006B000C4F10004203C35DA0C341BDC04F11404D2
:1006C000C4F1200500FA05F320FA04F001FA05F25E
:1006D00040EA020001F0004221F0004110EBD3702B
:1006E00021FA04F642EB06015EEA430E08BF20EA57
:1006F000D37070BDC4F10C04C4F1200500FA04F3FA
:1007000020FA05F001FA04F240EA020001F000418B
:1007100010EBD37041F100015EEA430E08BF20EAFE
:10072000D37070BDC4F1200500FA05F24EEA020E46
:1007300020FA04F301FA05F243EA020321FA04F075
:1007400001F0004121FA04F220EA020000EBD3702C
:100750005EEA430E08BF20EAD37070BD94F0000F2C
:100760000FD101F00046400041EB010111F4801F60
:1007700008BF013CF7D041EA060195F0000F18BF11
:10078000704703F00046520043EB030313F4801F4D
:1007900008BF013DF7D043EA0603704794EA0C0F07
:1007A0000CEA135518BF95EA0C0F0CD050EA41061D
:1007B00018BF52EA4306D1D181EA030101F000419A
:1007C0004FF0000070BD50EA410606BF10461946C2
:1007D00052EA430619D094EA0C0F02D150EA0136CE
:1007E00013D195EA0C0F05D152EA03361CBF10460F
:1007F00019460AD181EA030101F0004141F0FE41AE
:1008000041F470014FF0000070BD41F0FE4141F431
:10081000780170BD70B54FF0FF0C4CF4E06C1CEA31
:1008200011541DBF1CEA135594EA0C0F95EA0C0FE6
:1008300000F0A7F8A4EB050481EA030E52EA0335A1
:100840004FEA013100F088804FEA03334FF08055C2
:1008500045EA131343EA12634FEA022245EA1115EF
:1008600045EA10654FEA00260EF000419D4208BFA0
:10087000964244F1FD0404F5407402D25B084FEA4D
:100880003202B61A65EB03055B084FEA32024FF4F9
:1008900080104FF4002CB6EB020E75EB030E22BF56
:1008A000B61A754640EA0C005B084FEA3202B6EB16
:1008B000020E75EB030E22BFB61A754640EA5C00C5
:1008C0005B084FEA3202B6EB020E75EB030E22BF55
:1008D000B61A754640EA9C005B084FEA3202B6EB56
:1008E000020E75EB030E22BFB61A754640EADC0015
:1008F00055EA060E18D04FEA051545EA16754FEA77
:1009000006164FEAC30343EA52734FEAC2025FEA94
:100910001C1CC0D111F4801F0BD141EA00014FF023
:1009200000004FF0004CB6E711F4801F04BF0143F4
:100930000020B4F1FD0C88BFBCF5E06F3FF6AFAE10
:10094000B5EB030C04BFB6EB020C5FEA500C50F1A0
:10095000000041EB045170BD0EF0004E4EEA113123
:1009600014EB5C04C2BFD4EB0C0541EA045170BD2A
:1009700041F480114FF0000E013C90E645EA060E6E
:100980008DE60CEA135594EA0C0F08BF95EA0C0F9C
:100990003FF43BAF94EA0C0F0AD150EA01347FF4E4
:1009A00034AF95EA0C0F7FF425AF104619462CE7BB
:1009B00095EA0C0F06D152EA03353FF4FDAE10461E
:1009C000194622E750EA410618BF52EA43067FF46F
:1009D000C5AE50EA41047FF40DAF52EA43057FF4FF
:1009E000EBAE12E74FF0FF3C06E000BF4FF0010C0A
:1009F00002E000BF4FF0010C4DF804CD4FEA410C6E
:100A00007FEA6C5C4FEA430C18BF7FEA6C5C1BD03A
:100A100001B050EA410C0CBF52EA430C91EA030FBB
:100A200002BF90EA020F0020704710F1000F91EA18
:100A3000030F58BF994208BF90422CBFD8176FEAE6
:100A4000E37040F0010070474FEA410C7FEA6C5CB4
:100A500002D150EA013C07D14FEA430C7FEA6C5CBB
:100A6000D6D152EA033CD3D05DF8040B704700BFE7
:100A70008446104662468C461946634600E000BF35
:100A800001B5FFF7B7FF002848BF10F1000F01BD07
:100A90004DF808EDFFF7F4FF0CBF012000205DF8D2
:100AA00008FB00BF4DF808EDFFF7EAFF34BF012057
:100AB00000205DF808FB00BF4DF808EDFFF7E0FFF0
:100AC00094BF012000205DF808FB00BF4DF808ED41
:100AD000FFF7CEFF94BF012000205DF808FB00BFA8
:100AE0004DF808EDFFF7C4FF34BF012000205DF88A
:100AF00008FB00BF4FEA410C7FEA6C5C02D150EA70
:100B0000013C0AD14FEA430C7FEA6C5C02D152EA05
:100B1000033C02D14FF0000070474FF001007047D6
:100B20004FEA410212F5001215D211D56FF4787315
:100B3000B3EB625212D94FEAC12343F0004343EAB8
:100B4000505311F0004F23FA02F018BF4042704793
:100B50004FF00000704750EA013005D111F000401D
:100B600008BF6FF0004070474FF00000704700BFB3
:100B700010B5054C227832B9044B13B10448AFF3D9
:100B800000800123237010BDF80100200000000048
:100B90005C7F0008074B10B51BB107490748AFF34E
:100BA00000800748036823B1064B13B1BDE810402D
:100BB000184710BD00000000FC0100205C7F000809
:100BC000F40100200000000010B50446074B18682F
:100BD000074BA3FB0030800900F090F8002221466B
:100BE0004FF0FF3000F04EF8002010BD2000002034
:100BF000D34D621008B50B4B1A6842F400721A60AC
:100C00001A6842F480621A601A6842F480721A60AC
:100C1000032000F025F80020FFF7D6FF04F0B0FC19
:100C2000002008BD003C0240024A136801331360F3
:100C3000704700BF38020020014B1868704700BFA2
:100C40003802002010B582B00190FFF7F5FF04468E
:100C5000FFF7F2FF019B001B9842F9D302B010BDD1
:100C6000074AD36823F4E0631B041B0C43F0BF6303
:100C700043F40033000200F4E0600343D3607047A4
:100C800000ED00E030B4154BDC68C4F30224C4F17D
:100C90000703042B28BF0423251D062D8CBFE51E4A
:100CA0000025012404FA03F3013B1940A940AC409C
:100CB000013C22401143002809DB0901C9B200F1BF
:100CC000604000F5614080F8001330BC704700F0D0
:100CD0000F000901C9B2024B1954F6E700ED00E01C
:100CE00014ED00E0420900F01F00012303FA00F0B8
:100CF000014B43F82200704700E100E00138B0F1F9
:100D0000807F0AD2064B5860F021064A82F82310F1
:100D10000020986007221A6070470120704700BFCA
:100D200010E000E000ED00E00428044A13680CBF66
:100D300043F0040323F004031360704710E000E065
:100D4000704708B5FFF7FCFF08BD00000268D3B28A
:100D5000103B0849A1FB03131B090749C95CC16586
:100D6000032B22F47F7222F0030288BF04328265D3
:100D7000806D7047ABAAAAAA787F000838B50446F0
:100D8000FFF75AFF002C00F094800546002384F8FA
:100D90003430022384F835302268136823F00103CD
:100DA000136023681A6812F0010F0AD0FFF744FF9E
:100DB000401B0528F5D920236365032084F83500FE
:100DC00038BD1A683C4810406168A2680A43E1686F
:100DD0000A4321690A4361690A43A1690A43E16937
:100DE0000A43216A0A430243616A042916D01A6041
:100DF00021684B6923F00703626A1343042A12D067
:100E00004B612046FFF7A2FFE26D3F2393408360D2
:100E100000206065012384F8353038BDE16A206B1D
:100E200001430A43E3E7A26AA069D0B9012A0CD0C2
:100E300032B1022A10D00020002834D11343DFE75A
:100E400094F82F0000F00100F6E7E06AB0F1C07FEF
:100E500014BF00200120EFE794F82F0000F00100FC
:100E6000EAE7B0F5005F08D0022A1CD9032A18D19E
:100E700094F82F0000F00100DEE7032A0FD8DFE826
:100E800002F01202120794F82F0000F00100D3E7DD
:100E9000E06AB0F1C07F14BF00200120CCE7002041
:100EA000CAE70020C8E740236365012084F83500C5
:100EB00038BD012038BD00BF3F8010F070B490F8FD
:100EC0003440012C42D0856D012480F8344090F8E4
:100ED0003540E4B2012C05D0002380F834300220E4
:100EE00070BC7047022480F83540002444650668D1
:100EF000346824F480243460046863608368402B81
:100F00001FD0036899600368DA60C26D3F23934085
:100F1000AB600268136843F01603136002685369FC
:100F200043F080035361036C23B10268136843F0FC
:100F3000080313600268136843F001031360002084
:100F4000CEE703689A600368D960DEE70220C7E74E
:100F5000F0B583B0044600230193724B1E68876D81
:100F60003D68C26D082393402B4210D003681A6875
:100F700012F0040F0BD01A6822F004021A60C26D3E
:100F800008239340BB60436D43F001034365E26D6A
:100F9000654B93401D4209D02268526912F0800FC0
:100FA00004D0BB60636D43F002036365E26D5F4B89
:100FB00093401D4209D02268126812F0020F04D03B
:100FC000BB60636D43F004036365E26D10239340DF
:100FD0001D4224D02268126812F0080F1FD0BB6097
:100FE00023681A6812F4802F0DD01B6813F4002FA9
:100FF00004D1236C9BB12046984710E0A36C73B1D9
:10100000204698470BE01A6812F4807F03D11A68D3
:1010100022F008021A60236C0BB120469847E26D5B
:10102000202393401D4255D02268126812F0100F01
:1010300050D0BB6094F83530DBB2052B0ED023685E
:101040001A6812F4802F33D01B6813F4002F2AD1B2
:10105000636C002B3ED0204698473BE02268136823
:1010600023F0160313602268536923F08003536151
:10107000236CA3B12268136823F008031360E26DA8
:101080003F239340BB60002384F83430012384F86D
:101090003530236D002B43D02046984740E0A36CA9
:1010A000002BE7D1EBE7E36BA3B12046984711E0B3
:1010B0001A6812F4807F09D11A6822F010021A60AF
:1010C000002384F83430012384F83530E36B0BB10E
:1010D00020469847636D1BB3636D13F0010F1BD05F
:1010E000052384F835302268136823F00103136068
:1010F0000F4AA2FB0632920A019B013301939A42E6
:1011000004D323681B6813F0010FF5D1002384F882
:101110003430012384F83530E36C0BB12046984716
:1011200003B0F0BD2000002001008000040080001A
:10113000B5814E1B2DE9F04F83B000264FF0010E14
:101140004FF00309DFF880C1DFF880A15C4F52E067
:10115000F40800EB8404256A06F007024FEA820BCC
:101160000F2202FA0BF225EA02050A6902FA0BF2D3
:101170002A4322624BE0826804EA020BCA68AA4052
:1011800042EA0B028260426822EA030B4A68C2F319
:101190000013B34043EA0B0343604CE00022A2403B
:1011A0002A439A603B686FEA08044A6812F4803F59
:1011B0000CBF234048EA03033B607A684B6813F492
:1011C000003F0CBF224048EA02027A60BA684B68CE
:1011D00013F4801F0CBF224048EA0202BA60FB6889
:1011E0004A6812F4001F0CBF234048EA0303FB6067
:1011F0000136102E60D00EFA06F30A6803EA0208E0
:101200004345F5D14A6822F01002022AA0D00268B4
:10121000750009FA05F4E44302EA040B4A6802F097
:101220000302AA4042EA0B0202604A6822F010025E
:10123000013A012A9FD9C3681C408B6803FA05F55F
:101240002543C5604B6813F0805FD1D00023019324
:10125000DCF8443043F48043CCF84430DCF84430CC
:1012600003F480430193019B26F0030303F18043C1
:1012700003F59C339D6806F0030294000F22A24000
:1012800025EA0205504589D00E4A90420ED002F55B
:10129000806290420CD002F5806290420AD002F542
:1012A000806290420CBF0422072278E7724676E7FC
:1012B000022274E74A4672E703B0BDE8F08F00BF30
:1012C000003C01400004024000380240000002409F
:1012D00012B90904816170478161704743695940BF
:1012E0004161704703685A6912F4806F0DD06FF442
:1012F00080625A610423036400230363202280F880
:101300003D2080F83C3001207047002070472DE9D7
:10131000F041064690461D46C1F307478CB2012FA7
:1013200033680CBF5B699B6934EA03030CBF01237C
:101330000023434515D1B5F1FF3FF0D02DB1FFF7A4
:101340007BFC069BC01A8542E9D20023336320222E
:1013500086F83D2086F83E3086F83C300320BDE814
:10136000F0810020BDE8F0812DE9F04104461746E8
:101370009846C1F307468DB2012E23680CBF5B6906
:101380009B6935EA030314BF0123002363B3236879
:101390005A6912F4806F13D1B7F1FF3FECD02FB12F
:1013A000FFF74AFCA0EB08008742E5D20023236345
:1013B000202284F83D2084F83C300320BDE8F081F1
:1013C0001A6842F400721A6023686FF480625A61EE
:1013D0000423236400232363202284F83D2084F81F
:1013E0003C300120BDE8F0810020BDE8F08170B5FF
:1013F00004460D46164623685B6913F0800F19D129
:101400002046FFF76FFFB8B9B5F1FF3FF3D025B124
:10141000FFF712FC801B8542EDD2236C43F02003C2
:10142000236400232363202284F83D2084F83C3089
:10143000032070BD002070BD012070BD70B5044652
:101440000D46164623685B6913F0040F19D1204638
:10145000FFF748FFB8B9B5F1FF3FF3D025B1FFF76B
:10146000EBFB801B8542EDD2236C43F02003236409
:1014700000232363202284F83D2084F83C3003209D
:1014800070BD002070BD012070BD70B505460C46D2
:1014900016462B685A6912F0400F22D15A6912F091
:1014A000100F11D124B1FFF7C7FB801B8442F0D28B
:1014B0002B6C43F020032B64202385F83D30002360
:1014C00085F83C30032070BD6FF010025A61002394
:1014D0002B642B63202285F83D2085F83C300120C9
:1014E00070BD002070BD0000002872D038B50446E1
:1014F00090F83D30002B41D0242384F83D30226801
:10150000136823F00103136000F03EFE324BA3FB8F
:1015100000239B0C22685360216865682F4A95421E
:1015200031D801330B62226863682C498B4234D86E
:101530005B00B0FBF3F0C0F30B03032B98BF042058
:10154000D0612268E369216A0B4313602268236932
:10155000E1680B43936022686369A1690B43D36020
:101560002268136843F001031360002020642023E5
:1015700084F83D30206384F83E0038BD80F83C306C
:1015800003F01EFDB8E74FF4967202FB03F3144A12
:10159000A2FB03239B090133C4E7A16849B903EB0C
:1015A0004303B0FBF3F0C0F30B0373B140F400400E
:1015B000C6E703EB830303EB8303B0FBF3F0C0F355
:1015C0000B0323B140F44040BAE70120B8E7012003
:1015D000B6E70120704700BF83DE1B43A0860100F1
:1015E000D34D62102DE9F04184B00446884615467B
:1015F0001F46FFF721FB94F83D30DBB2202B18BFCC
:10160000022503D0284604B0BDE8F08106460090CC
:101610001923012271492046FFF779FE08B10225FE
:10162000F0E794F83C30012B00F0CD80012384F8E2
:101630003C3023681A6812F0010F03D11A6842F097
:1016400001021A602268136823F4006313602123E7
:1016500084F83D30102384F83E3000232364656213
:101660006785A3F58033E362638D2385E36A042BEA
:101670000DD0012B0BD013F5803F08D0236B122B1C
:101680000AD12268136843F48073136004E022686F
:10169000136843F48073136000960A9B00224FF096
:1016A00001112046FFF733FE38B1236C042B2DD0F7
:1016B000002384F83C300325A4E72369B3F5804F69
:1016C00010D022684FEAE81303F0060343F0F0035A
:1016D000136133460A9A42492046FFF745FE80B11E
:1016E000236CE2E7236808F0FE021A6133460A9A87
:1016F0003C492046FFF738FE0546002865D0236C9C
:10170000D3E722685FFA88F31361EFE7002384F8D8
:101710003C30012576E7236C042B01D0032571E7CB
:101720002268136843F40073136001256AE73246A8
:101730000A992046FFF782FE00282AD1238D002B2C
:1017400033D032460A992046FFF751FE0028E2D1F5
:101750002268636A591C61621B781361638D013BC7
:101760009BB26385238D013B238523685A6912F060
:10177000040FDCD0002FDAD0626A511C616212784B
:101780001A61638D013B9BB26385238D013B2385E9
:10179000CDE7236C042B01D0032533E722681368BF
:1017A00043F40073136001252CE72268136843F4A7
:1017B00000731360202384F83D30002384F83E300A
:1017C00084F83C301EE702251CE7002303932368BE
:1017D0005A6903929B690393039BAFE702001000D1
:1017E00008000100020001002DE9F04188B0044624
:1017F0000D4690461F46FFF71FFA94F83D30DBB2C6
:10180000202B18BF022503D0284608B0BDE8F08180
:1018100006460090192301227B492046FFF777FDF9
:1018200008B10225F0E794F83C30012B00F09E81CE
:10183000012384F83C3023681A6812F0010F03D1A9
:101840001A6842F001021A602268136823F40063E8
:101850001360222384F83D30102384F83E300023A7
:101860002364C4F824806785A3F58033E362638D25
:101870002385E26A21680B6843F480630B60042AC5
:101880000DD0012A0BD012F5803F08D0236B112B0D
:101890000AD12268136843F48073136004E022685D
:1018A000136843F48073136000960E9B00224FF080
:1018B00001112046FFF72BFD38B1236C042B4FD0CC
:1018C000002384F83C3003259EE72369B3F5804F5D
:1018D0000FD02368EF1107F0060747F0F0021A61F6
:1018E00033460E9A49492046FFF73EFD90B1236CDE
:1018F000E3E7226845F00103DBB2136133460E9A39
:1019000043492046FFF730FD0546002800F03681A8
:10191000236CD2E72368EDB21D6133460E9A3C4931
:101920002046FFF721FD08B1236CC6E7002207928D
:10193000236859690791996907910799196841F4D2
:101940008071196000960E9B4FF001112046FFF741
:10195000DEFC0028B1D1236847F0F1071F61CDE715
:10196000002384F83C3001254EE7002303932368CD
:101970005A6903929A690392039A1A6842F40072B0
:101980001A60DFF8908000276FE02268136823F464
:10199000806313600023049323685A6904929A6950
:1019A0000492049A1A6842F400721A60E9E7226805
:1019B000136823F4806313602268136843F40063A0
:1019C00013600023059323685A6905929B69059368
:1019D000059BD6E732460E992046FFF756FD68B9BB
:1019E000636A5A1C6262226812691A70238D013B75
:1019F0002385638D013B9BB2638536E0236C202BEE
:101A00000CBF03250125FFE60200100008000100BD
:101A1000020001000400010000960E9B3A46414678
:101A20002046FFF774FC002840F0A280226813686B
:101A300043F400731360636A5A1C6262226812697D
:101A40001A70238D013B2385638D013B9BB2638517
:101A5000636A5A1C6262226812691A70238D013B04
:101A60002385638D013B9BB26385238D002B74D04E
:101A7000032B47D8012BADD0022BCDD000960E9B67
:101A80003A4641462046FFF742FC002872D12268C0
:101A9000136823F480631360636A5A1C62622268CD
:101AA00012691A70238D013B2385638D013B9BB224
:101AB000638500960E9B3A4641462046FFF727FC79
:101AC000002859D12268136843F400731360636AD5
:101AD0005A1C6262226812691A70238D013B2385A9
:101AE000638D013B9BB26385636A5A1C6262226804
:101AF00012691A70238D013B2385638D013B9BB2D4
:101B00006385B2E732460E992046FFF7BEFCF0B976
:101B1000636A5A1C6262226812691A70238D013B43
:101B20002385638D013B9BB2638523685A6912F05C
:101B3000040F9AD0626A511C61621B691370238D75
:101B4000013B2385638D013B9BB263858DE7236C4D
:101B5000202B0CBF0325012556E6202384F83D30B9
:101B6000002384F83E3084F83C304DE602254BE6F5
:101B7000032549E6032547E6032545E6238D002B8B
:101B80003FF4F3AE012B3FF400AF022B3FF40FAF55
:101B90002268136843F4806313600023069323686C
:101BA0005A6906929B690693069BEAE6F0B583B0F4
:101BB0000446036813F0010F3BD0A84B9B6803F069
:101BC0000C03042B2CD0A54B9B6803F00C03082BB3
:101BD00021D06368B3F5803F4FD0B3F5A02F52D02A
:101BE0009E4B1A6822F480321A601A6822F480220E
:101BF0001A606368002B50D0FFF71EF80646974D19
:101C00002B6813F4003F14D1FFF716F8801B6428EB
:101C1000F6D9032096E1914B5B6813F4800FD8D07E
:101C20008E4B1B6813F4003F03D06368002B00F059
:101C30008681236813F0020F5AD0884B9B6813F0FB
:101C40000C0F3ED0854B9B6803F00C03082B33D060
:101C5000E368002B72D00122814B1A60FEF7ECFF83
:101C600006467E4D2B6813F0020F59D1FEF7E4FFB4
:101C7000801B0228F6D9032064E1784A136843F4F4
:101C800080331360B5E7754B1A6842F480221A60FE
:101C90001A6842F480321A60ABE7FEF7CDFF0646C1
:101CA0006E4D2B6813F4003FC3D0FEF7C5FF801BB9
:101CB0006428F6D9032045E1684B5B6813F4800F74
:101CC000C6D1664B1B6813F0020F04D0E368012BEA
:101CD00001D0012036E161480168F82393FAA3F3AB
:101CE000B3FA83F22369934021F0F80213430360AF
:101CF000236813F0080F45D063698BB30122594B59
:101D00001A60FEF799FF0646544D6B6F13F0020FF1
:101D100038D1FEF791FF801B0228F6D9032011E18C
:101D20004E480168F82393FAA3F3B3FA83F22369C8
:101D3000934021F0F80213430360D9E70022484B97
:101D40001A60FEF779FF0646444D2B6813F0020F28
:101D5000CED0FEF771FF801B0228F6D90320F1E0F8
:101D60000022404B1A60FEF767FF06463B4D6B6F43
:101D700013F0020F06D0FEF75FFF801B0228F6D992
:101D80000320DFE0236813F0040F20D1A369002BA8
:101D900000F0D780314A926802F00C02082A00F065
:101DA000D380022B00F0808000222F4B1A60FEF7B8
:101DB00043FF0546294C236813F0007F00F0BD80E7
:101DC000FEF73AFF401B0228F5D90320BAE00023B2
:101DD0000193224B1A6C42F080521A641B6C03F080
:101DE00080530193019B214A136843F4807313606D
:101DF000FEF722FF06461D4D2B6813F4807F06D1A7
:101E0000FEF71AFF801B0228F6D903209AE0A36888
:101E1000012B1DD0052B2BD0104B1A6F22F0010285
:101E20001A671A6F22F004021A67A36853B3FEF709
:101E300003FF0746094D41F288362B6F13F0020F5E
:101E4000A4D1FEF7F9FEC01BB042F6D9032079E019
:101E5000024A136F43F001031367E6E700380240BC
:101E600000004742800E4742600047420070004039
:101E7000364B1A6F42F004021A671A6F42F00102E1
:101E80001A67D2E7FEF7D8FE0746304D41F2883692
:101E90002B6F13F0020F3FF479AFFEF7CDFEC01B9E
:101EA000B042F5D903204DE00022294B1A60FEF71D
:101EB000C3FE0646254D2B6813F0007F06D0FEF7C3
:101EC000BBFE801B0228F6D903203BE047F6C07515
:101ED00095FAA5F5B5FA85F54FF4403292FAA2F2DB
:101EE000B2FA82F04FF0706191FAA1F1B1FA81F18A
:101EF000E369226A1343626AAA401343A26A520842
:101F0000013A82401343E26A02FA01F10B430F4A9D
:101F1000536001220E4B1A60FEF78EFE05460B4CF5
:101F2000236813F0007F06D1FEF786FE401B0228CF
:101F3000F6D9032006E0002004E0002002E00120A2
:101F400000E0002003B0F0BD0120FBE700380240B4
:101F5000600047421A4B9B6803F00C03042B03D02C
:101F6000082B03D01748704717487047144B5A681E
:101F700002F03F025B6813F4800F114B5B6847F679
:101F8000C07191FAA1F0B0FA80F003EA010323FADC
:101F900000F314BF0C480B48B0FBF2F000FB03F059
:101FA000074B5B684FF4403292FAA2F2B2FA82F227
:101FB00003F44033D34001335B00B0FBF3F07047D0
:101FC000003802400024F40000127A00674B1B68BE
:101FD00003F00F038B4209D2CBB2644A137013682B
:101FE00003F00F03994201D0012070472DE9F04121
:101FF000036813F0020F06D05D4A936823F0F003E4
:102000008468234393600D460446036813F0010F70
:102010006AD04268012A27D0931E012B2CD9544B39
:102020001B6813F0020F00F09E8051498B6823F06B
:10203000030313438B60FEF7FFFD06466368012B25
:1020400022D0022B30D0032B3ED0494F41F28838AA
:10205000BB6813F00C0F47D0FEF7EEFD801B404528
:10206000F6D90320BDE8F081414B1B6813F4003F13
:10207000DBD10120BDE8F0813D4B1B6813F0007FF0
:10208000D3D10120BDE8F081394F41F28838BB68D7
:1020900003F00C03042B27D0FEF7CEFD801B404538
:1020A000F5D90320BDE8F081314F41F28838BB6893
:1020B00003F00C03082B17D0FEF7BEFD801B404534
:1020C000F5D90320BDE8F081294F41F28838BB687B
:1020D00003F00C030C2B07D0FEF7AEFD801B404530
:1020E000F5D90320BDE8F081204B1B6803F00F03F6
:1020F0009D420AD2EAB21D4B1A701B6803F00F030F
:102100009D4202D00120BDE8F081236813F0040F46
:1021100006D0174A936823F4E053E1680B439360B9
:10212000236813F0080F07D0114A9368216923F43C
:10213000604343EAC1039360FFF70CFF0C4B9B68BD
:10214000F02292FAA2F2B2FA82F203F0F003D34044
:10215000084AD35CD840084B18600020FEF734FDD5
:102160000020BDE8F0810120BDE8F081003C024084
:1021700000380240807F000820000020014B1868D2
:10218000704700BF20000020084B9B684FF4E052CE
:1021900092FAA2F2B2FA82F203F4E053D340044A74
:1021A000D35C044A1068D840704700BF0038024032
:1021B000807F000820000020084B9B684FF460429D
:1021C00092FAA2F2B2FA82F203F46043D340044AD4
:1021D000D35C044A1068D840704700BF0038024002
:1021E000807F0008200000200268536B13F0450F29
:1021F000FBD0536B13F0040F03D00423936303202D
:102200007047536B13F0010F04D140F2FF539363F7
:1022100000207047012090637047000038B50268C5
:10222000536B13F0450FFBD0536B13F0040F03D027
:1022300004239363032038BD536B13F0010F02D0C6
:102240000120906338BD0D460446104601F096FE0D
:10225000A84201D0102038BD236840F2FF529A6393
:10226000002001F08FFE334B0340002B3FD00028AD
:102270003FDB10F0804F01D0092038BD10F0005F27
:1022800001D00A2038BD10F0805F34D110F0006F0B
:1022900033D110F0806F32D110F0807F31D110F443
:1022A000000F30D110F4800F2FD110F4001F2ED169
:1022B00010F4801F2DD110F4002F2CD110F4802F9A
:1022C0002BD110F4003F2AD110F4803F29D110F413
:1022D000004F28D110F4804F27D110F4005F26D191
:1022E00000F00800002814BF1A20002038BD00208C
:1022F00038BD1C2038BD0B2038BD0C2038BD0D204A
:1023000038BD0E2038BD0F2038BD102038BD11203B
:1023100038BD122038BD132038BD142038BD15201B
:1023200038BD162038BD172038BD182038BD1920FB
:1023300038BD00BF08E0FFFD30B587B004460D464C
:1023400000220092436A1B0401930D230293402351
:10235000039304924FF48063059301A9006801F090
:10236000F8FD2068436B13F0450FFBD0436B13F06F
:10237000040F04D004238363032007B030BD436BF4
:1023800013F0010F03D0012383631846F5E701F032
:10239000F5FD0D2818BF1020EFD1236840F2FF5241
:1023A0009A63002001F0EEFD0090009BC3F34323ED
:1023B0002B70009A3C4B1340002B52D0009B002BFB
:1023C00051DB009B13F0804F01D00920D5E7009B23
:1023D00013F0005F01D00A20CFE7009B13F0805F6D
:1023E00043D1009B13F0006F41D1009B13F0806F2D
:1023F0003FD1009B13F0807F3DD1009B13F4000F71
:102400003BD1009B13F4800F39D1009B13F4001FC4
:1024100037D1009B13F4801F35D1009B13F4002F9C
:1024200033D1009B13F4802F31D1009B13F4003F74
:102430002FD1009B13F4803F2DD1009B13F4004F4C
:102440002BD1009B13F4804F29D1009B13F4005F24
:1024500027D1009B03F00803002B14BF1A20002093
:102460008BE7002089E71C2087E70B2085E70C20FD
:1024700083E70D2081E70E207FE70F207DE7102006
:102480007BE7112079E7122077E7132075E7142006
:1024900073E7152071E716206FE717206DE7182006
:1024A0006BE7192069E700BF08E0FFFD2DE9F04167
:1024B0008EB004460E46002301930293082209922F
:1024C00010250A9540220B920C934FF480630D93D4
:1024D00009A9006801F03DFD29462046FFF79EFE50
:1024E000054618B128460EB0BDE8F081636A1B04AA
:1024F000099337250A9509A9206801F02AFD294684
:102500002046FFF78BFE05460028EBD14FF0FF3346
:102510000393082304933023059302230693002595
:1025200007950123089303A9206801F037FD099559
:1025300033250A9509A9206801F00BFD294620469C
:10254000FFF76CFE05460028CCD10DF1040840F2DF
:102550002A672068436B3B4208D1436B13F4001F8A
:10256000F8D001F0E6FC48F8040BF2E7436B13F0F7
:10257000080F03D0082383630425B3E7436B13F0EC
:10258000020F02D002258563ACE7436B13F0200FE6
:1025900003D0202383630625A4E7436B13F4007F55
:1025A00004D04FF40073836307259BE740F2FF5389
:1025B0008363019B1A0E42EA0362190201F47F0150
:1025C0000A431B0A03F47F4313437360029B1A0EF2
:1025D00042EA0362190201F47F010A431B0A03F471
:1025E0007F43134333607DE7F0B40346026A81F80A
:1025F0005620426AA1F85420826A900F0870C2F3F4
:1026000083604870C2F301628A7093F82A20CA700E
:1026100093F829200A7193F828204A7193F82F2003
:102620001201CA80D86ACA8892B2C0F30354224306
:10263000CA80C0F30340087293F82D20D009487275
:10264000C2F380108872C2F34010C872C2F3001047
:10265000087300204873186A012840F2AE800228EF
:1026600000F0EA802920C2F380144C76520002F078
:102670007E028A761A6B8C7EC2F3C0152C438C7650
:1026800002F07F02CA765A6BD40F0C77C2F3417402
:102690004C77C2F382648C77920D02F00C02CA77F9
:1026A0005A6BCC7FC2F381552C43CC77C2F3405494
:1026B00081F82040002481F82140C2F3004281F8D3
:1026C00022205A6BC2F3C03481F82340C2F3803415
:1026D00081F82440C2F3403481F82540C2F300342D
:1026E00081F82640C2F3812481F82740C2F30122F9
:1026F00081F828205A6BC2F3460281F82920012470
:1027000081F82A4093F83B2081F82C2093F83A2056
:102710001202CA85CA8D92B293F839502A43CA85EB
:102720009A6B12060A630A6B93F83F5042EA05421D
:102730000A630D6BDA8F120292B22A430A630D6BA1
:1027400093F83D202A430A6393F83C2081F8342013
:1027500093F8432081F83520B3F8422012068A63AB
:102760008D6B1A6C120202F47F022A438A638D6B0E
:102770001A6C120292B22A438A638D6B93F8472037
:102780002A438A635A6C91F83C50C2F3035635438E
:1027900081F83C50120A02F47062CA87CA8F92B262
:1027A00093F845502A43CA875B6CC3F3460381F80C
:1027B000403081F84140F0BC7047920202F4406220
:1027C0000A610869DA6A920002F47F7202430A61C0
:1027D0001A6B086940EA92700861C2F3C26008751A
:1027E000C2F302624A751A6BC2F342508875C2F393
:1027F0008240C875D20B02F006020A76186BC0F34D
:1028000007220C7EC0F3C030204308760C690F7E8F
:10281000087AC0B2012606FA00F008653444A4FB29
:102820000045B81C06FA00F0A4FB006700FB057722
:10283000C1E91267002016E7DA6A120402F47C127A
:102840000A610A6993F8330042EA00220A610869C2
:1028500093F8322002430A6193F831200C69002575
:10286000013445F10005E80440EA5430E4048C6486
:10287000C8644FF4007008650020F4E62DE9F043C9
:1028800093B00446894600268DF84760067702F02B
:10289000DBFD0B960C960D960E960F9676231093F5
:1028A0000EAB93E807008DE807000BAB0ECB20685A
:1028B00001F023FB8DF81760AB4F3E60206801F0FC
:1028C00040FB0120FEF7BEF901233B600696079608
:1028D000089609964FF480630A9306A9206801F0D0
:1028E00038FB21684B6B13F0800F40F099814B6BE4
:1028F000C3F3C0134FF6FF72002B40F091814B6B76
:10290000C3F3C013013AF7D103238DE14FF4D5731C
:102910000693082307934023089306A9206801F033
:1029200018FB21684B6B13F0450F40F094814FF476
:1029300080334A6B013B12F0450F03D1002BF8D1D5
:102940004B6B01E04A6B2BBB04238B6303238DF895
:1029500017309DF8173053BB012323624FF0804599
:10296000002306933726079606A9206801F0F1FA9E
:1029700031462046FFF752FC8DF817009DF81730BE
:10298000002B6DD14FF00008464645F0004545F458
:10299000801527E002F00402002AD5D14B6B13F01A
:1029A000400F1DBF40238B6300232923CFE7002561
:1029B000D6E79DF81730DBB240E140F2FF53936356
:1029C00033468DF817309DF81730002B3BD1304639
:1029D00001F0D8FA08F10108002838DB4FF6FF7340
:1029E000984541D0069637270797402308930996C4
:1029F0004FF480630A9306A9206801F0AAFA3946C9
:102A00002046FFF70BFC8DF817009DF81730002BC0
:102A1000CFD10695292307934023089309964FF4B5
:102A200080630A9306A9206801F093FA2268536B29
:102A300013F0450FFBD0536B13F0040FBDD00423EC
:102A400093630323BDE79DF81730DBB2F6E04FF642
:102A5000FE73984508D810F0804F1CBF02232362F4
:102A60009DF81730DBB2E9E01B238DF817309DF895
:102A70001730DBB2E2E0206801F067FA58B925268A
:102A80008DF847609DF84730002B00F097809DF847
:102A90004700C0B2DCE0236A042B00F08D800023E5
:102AA000069302220792C022089209934FF4806392
:102AB0000A9306A9206801F04CFA2046FFF794FB20
:102AC00006460028DCD101F05DFAA063042001F085
:102AD00059FAE063082001F055FA20640C2001F057
:102AE00051FA6064236A022B01D9062B3ED10323DD
:102AF00007934023089306A9206801F02AFA20686A
:102B0000436B13F0450FFBD0436B13F0040F03D05E
:102B1000042383630326B3E7436B13F0010F02D052
:102B200001268663ACE701F029FA032818BF1026B6
:102B3000A6D1236840F2FF529A63002001F022FAE6
:102B400010F4604F01D1000C11E010F4005F40F070
:102B5000868010F4804F40F0848010F4004F40F0E5
:102B60008280012003E000BFA08025420120236A6B
:102B7000042B85D060620004069009230793C023CC
:102B8000089306A9206801F0E4F92046FFF72CFB22
:102B9000064600287FF474AF01F0F4F9A062042027
:102BA00001F0F0F9E062082001F0ECF920630C205C
:102BB00001F0E8F9606363E7002661E749462046D3
:102BC000FFF712FD8DF847009DF8473083B123468B
:102BD00053F8105B93E807008DE80700043494E88D
:102BE0000E00284601F089F99DF84700C0B22FE099
:102BF000B9F854301B040693072507954023089322
:102C0000002309934FF480630A9306A9206801F01A
:102C1000A0F929462046FFF701FB8DF84700D6E7CB
:102C200040F2FF538B6300238DF817309DF8173067
:102C3000002B3FF46BAE9DF81730DBB28DF84730B8
:102C40009DF84730002B3FF416AF9DF84700C0B207
:102C500013B0BDE8F0834A6B02F004029CE6132631
:102C60000EE710260CE70F260AE700BF70B592B0FA
:102C7000036A032B00F09F80022B00F2A080B1F5C5
:102C8000805F00F09E800D460446B1F5006F03D0D2
:102C900000293CD026268FE000200590069001F008
:102CA00071F910F0007F01D00E2639E005A9204609
:102CB000FFF7FCFB0646002832D1069B13F4802F59
:102CC00001D125262CE0636A1B040793372608965A
:102CD0004023099300230A934FF480630B9307A9C1
:102CE000206801F036F931462046FFF797FA06468C
:102CF000B0B9022307930626089607A9206801F0B9
:102D000028F931462046FFF789FA064608E00020F8
:102D10000590069001F036F910F0007F19D00E26CC
:102D2000002E49D163680C93A3680D93E3680E935A
:102D30000F9563691093A3691193246812AB13E98B
:102D400007008DE807000CAB0ECB204601F0D5F84C
:102D500032E005A92046FFF7A9FB06460028DFD18F
:102D6000069B13F4803F01D12526D9E7636A1B0433
:102D70000793372608964023099300230A934FF4BC
:102D800080630B9307A9206801F0E3F831462046E1
:102D9000FFF744FA06460028C2D10023079306260F
:102DA000089607A9206801F0D4F831462046FFF7BD
:102DB00035FA0646B4E72726304612B070BD002625
:102DC000FAE72726F8E730B587B0044600230193D9
:102DD0000C2502954022039204934FF480630593DF
:102DE00001A9006801F0B5F829462046FFF716FA58
:102DF00007B030BD2DE9F0438DB0044688469146BA
:102E0000149D02680021D162026A022A17D0079538
:102E1000102608964023099300230A934FF48063F9
:102E20000B9307A9206801F094F831462046FFF77C
:102E3000F5F9074650B138460DB0BDE8F0834FEACA
:102E4000592949EAC3594FF40075E0E74FF0FF33C1
:102E50000193159B03FB05F5029590230393022331
:102E60000493002305930123069301A9206801F030
:102E700095F8159B012B26D9122508950CA941F828
:102E8000149D206801F065F829462046FFF7C6F931
:102E900007460028CFD140F22A3623685A6B3242C7
:102EA00070D15A6B12F4004FF8D0A8F1040508F164
:102EB0001C09206801F03DF845F8040FA945F8D138
:102EC00008F12008E9E7112508950CA941F8149D9F
:102ED000206801F03EF829462046FFF79FF9074693
:102EE0000028A8D140F22A6623685A6B32423FD1AB
:102EF0005A6B12F4004FF8D0A8F1040508F11C0930
:102F0000206801F016F845F8040F4D45F8D108F196
:102F10002008E9E7436B13F0020F02D00227876312
:102F200089E7436B13F0200F03D020238363062728
:102F300081E7436B13F4007F04D04FF40073836385
:102F4000072778E7436B13F4001F18BF4FF0FF35D6
:102F50000AD000F0EEFF48F8040B2068436B13F42E
:102F6000001F01D0013DF4D140F2FF53836362E7BB
:102F70005B6B2068436B13F0080FCBD0082383638F
:102F8000042758E75B6B13F4807FF2D0236A022B8F
:102F9000EFD82046FFF717FF0746EAE72DE9F04F85
:102FA0008DB004460F461646169D00228DF803206C
:102FB0000168CA62026A022A2ED007954FF01008F3
:102FC000CDF820804023099300230A934FF48063B7
:102FD0000B9307A9206800F0BCFF41462046FFF78D
:102FE0001DF90346A0B9179B012B8CBF4FF01908A0
:102FF0004FF01808CDF820800CA941F8146D206816
:1030000000F0A7FF41462046FFF708F9034650B1FC
:1030100018460DB0BDE8F08F4FEA562949EAC3566D
:103020004FF40075C9E7179B03FB05F84FF0FF331A
:103030000193CDF808809023039300230493059314
:103040000123069301A9206800F0A8FF179B012B1C
:103050002CD9002640F21A3523685A6B2A4240F0D8
:10306000AE805A6B12F4804FF7D0A8EB060BBBF181
:103070001F0F48D81BF0030F4FEA9B0B18BF0BF133
:10308000010BBBF1000FE7D0BA464FF000095146E3
:10309000206800F051FF0AF1040A09F10109CB454B
:1030A000F5D14FEA89094F444E44D5E7002640F256
:1030B0001A6523685A6B2A4240F08E805A6B12F4CC
:1030C000804FF7D0A8EB060BBBF11F0F28D81BF0E1
:1030D000030F4FEA9B0B18BF0BF1010BBBF1000F65
:1030E000E7D0BA464FF000095146206800F024FFAF
:1030F0000AF1040A09F10109CB45F5D14FEA890922
:103100004F444E44D5E7B9462037BA464946206871
:1031100000F012FF09F10409D145F7D120369BE7F1
:10312000B9462037BA464946206800F005FF09F144
:103130000409D145F7D12036BBE7236A022B42D8D8
:103140002046FFF740FE3EE0536B13F0020F02D023
:10315000022393635CE7536B13F0100F03D010232B
:103160009363052354E7536B13F4007F04D04FF4AB
:103170000073936307234BE740F2FF5393630DF112
:1031800003012046FFF7D8F8034600287FF440AF3C
:103190009DF80320063AD2B2012A3FF639AF0DF16D
:1031A00003012046FFF7C8F8034600287FF430AF3C
:1031B0009DF80320063AD2B2012AF0D928E75B6BCA
:1031C00013F4807FB9D12268536B13F0080FBBD082
:1031D0000823936304231BE75B6BF4E730B587B0E8
:1031E0000446436A1B0401930D2502954023039373
:1031F000002304934FF48063059301A9006800F055
:10320000A8FE29462046FFF709F810B1022007B0B2
:1032100030BD00F0B7FEC0F34320043818BF0120D2
:10322000F5E7F8B507460E4615461C463A6893681A
:1032300036EA03030CBF012300239D4238D0B4F1CA
:10324000FF3FF4D02CB1FDF7F7FC069BC01A844277
:10325000ECD83A68536823F0E00353607B68B3F519
:10326000827F0BD0BB6AB3F5005F14D0012387F8CF
:103270005130002387F850300320F8BDBB68B3F508
:10328000004F02D0B3F5806FECD13A68136823F099
:1032900040031360E6E73A68136823F400531B0405
:1032A0001B0C13603A68136843F400531360DDE7A6
:1032B0000020F8BD10B582B0044600920B460022F3
:1032C0008021FFF7AEFF034620B1636D43F020037A
:1032D00063650323184602B010BD00283BD010B52B
:1032E00004460023836290F85130002B2ED0022335
:1032F00084F851302268136823F040031360226879
:103300006368A1680B43E1680B4321690B43616962
:103310000B43E1690B43216A0B43A16A0B43A1698B
:1033200001F400710B4313602268638B03F0040304
:10333000616A0B4353602268D36923F40063D3614D
:1033400000206065012384F8513010BD80F85030B2
:1033500002F0D0F8CBE7012070472DE9F04184B0AE
:103360001D4690F85030012B03D1022004B0BDE877
:10337000F08104460E469046012380F85030FDF758
:103380005BFC074694F85130DBB2012B07D00220DA
:10339000012384F85130002384F85030E6E7002EF2
:1033A00000F09E80B8F1000F00F09C80032384F8A9
:1033B0005130002363652663A4F83480A4F8368076
:1033C000A363A387E38763642364A368B3F5004F13
:1033D0001BD023681A6812F0400F03D11A6842F01C
:1033E00040021A60E368B3F5006F14D063681BB144
:1033F000E38E9BB2012B41D1236816F8012B1A737F
:10340000E38E013B9BB2E38638E02268136843F405
:1034100080431360DDE763681BB1E38E9BB2012B31
:1034200012D1236836F8022BDA60E38E013B9BB29F
:10343000E38609E0002D57D0B5F1FF3F04D0FDF73A
:10344000FBFBC01B854251D9E38E9BB233B323688B
:103450009A6812F0020FEDD036F8022BDA60E38E94
:10346000013B9BB2E386EFE7002D41D0B5F1FF3F72
:1034700004D0FDF7E1FBC01B85423BD9E38E9BB234
:1034800063B123689A6812F0020FEDD016F8012B91
:103490001A73E38E013B9BB2E386EFE700972B465E
:1034A000012202212046FFF7BCFE08B103206FE78E
:1034B0003A4629462046FFF7FDFE18B120236365F2
:1034C000012065E7A36833B903932368DA680392A0
:1034D0009B680393039B606D003018BF012057E782
:1034E000012055E7012053E7032051E703204FE770
:1034F00003204DE703204BE790F85030012B56D0C6
:1035000010B50446012380F8503090F85130DBB2FA
:10351000012B04D00220002384F8503010BD002974
:1035200041D0002A41D0032380F851300023436565
:1035300001638286C2868363436403648387C3878F
:103540008368B3F5004F28D0A36C1A4A1A64A36CA1
:10355000194ADA63A36C194ADA64A36C00221A656B
:10356000E38E22689BB20C32216BA06CFDF7A6FCA7
:1035700023681A6812F0400F03D11A6842F0400223
:103580001A602268536843F020035360226853682E
:1035900043F0020353600020BDE70268136843F460
:1035A00080431360D0E70120B5E70120B3E7022094
:1035B000704700BFC1350008EF350008CD35000861
:1035C00008B5806B01F06CFE08BD704708B5806BD4
:1035D0000268536823F003035360436D43F0100304
:1035E0004365012380F85130FFF7EFFF08BD30B588
:1035F00083B00546846BFDF71FFB2B681B6813F433
:10360000807F1ED12268536823F002035360024674
:1036100064212046FFF74EFE18B1636D43F020038E
:103620006365A36833B901932368DA6801929B68E4
:103630000193019B0023E386012384F85130636DDD
:1036400023B9204601F03CFE03B030BD2046FFF711
:10365000BCFFF9E770B4036A23F001030362036A55
:103660004468826922F073020D682A4323F0020342
:103670008D682B430B4DA84206D0446082614A6896
:103680004263036270BC704723F00803CD682B438C
:1036900023F0040324F440744D698E6935432C43B0
:1036A000EBE700BF0000014070B4036A23F48073AD
:1036B0000362036A4468C26922F073020D682A43F8
:1036C00023F400738D6843EA05230C4DA84206D00D
:1036D0004460C2614A68C263036270BC704723F4ED
:1036E0000063CD6843EA052323F4806324F4405447
:1036F0004D698E69354344EA0514E9E7000001404D
:1037000030B4036A23F480530362036A4468C269D5
:1037100022F4E6420D6842EA052223F400538D6844
:1037200043EA0533074DA84206D04460C2614A68A7
:103730000264036230BC704724F480444D6944EA5B
:103740008514F2E700000140022380F83930026856
:10375000136843F001031360012380F8393000201F
:10376000704700000368294A90421FD0B0F1804F93
:103770001CD0A2F57C42904218D002F580629042A3
:1037800014D002F58062904210D0214A90421FD09E
:1037900002F5806290421BD002F58062904217D001
:1037A00003608B68C3620B6883621AE023F07003C6
:1037B0004A681343154A90421BD0B0F1804F07D09E
:1037C000A2F57C42904203D002F5806290420BD178
:1037D00023F44073CA68134303608B68C3620B68A9
:1037E000836201234361704702F580629042EFD00B
:1037F000CBE723F44073CA68134303608B68C3624A
:103800000B6883620A69014B1A63EAE70000014012
:1038100000400140A8B110B5044690F839305BB1C2
:10382000022384F83930211D2068FFF79BFF012314
:1038300084F83930002010BD80F8383001F00CFFDA
:10384000EEE701207047000070B4036A23F0100314
:103850000362036A4468826922F4E6420D6842EA20
:10386000052223F020038D6843EA05130C4DA8427E
:1038700006D0446082614A688263036270BC70470C
:1038800023F08003CD6843EA051323F0400324F4BA
:1038900040644D698E69354344EA8504E9E700BF19
:1038A0000000014038B590F83830012B66D00D4645
:1038B0000446012380F83830022380F839300C2A7E
:1038C0001AD8DFE802F00719191920191919341943
:1038D000191947000068FFF7BDFE2268936943F09D
:1038E000080393612268936923F0040393612268BB
:1038F000936929690B439361012384F839300020CF
:1039000084F8380038BD0068FFF79EFF226893698D
:1039100043F4006393612268936923F480639361A5
:1039200022689369296943EA01239361E4E7006807
:10393000FFF7BAFE2268D36943F00803D361226817
:10394000D36923F00403D3612268D36929690B4347
:10395000D361D1E70068FFF7D3FE2268D36943F44F
:103960000063D3612268D36923F48063D361226842
:10397000D369296943EA0123D361BDE7022038BD39
:1039800010B4036A01248C4023EA04030362036A2F
:103990008A401A4302625DF8044B704710B5044632
:1039A00001220068FFF7ECFF2268084B9A4206D01C
:1039B0002268136843F001031360002010BD1A460B
:1039C0005B6C43F400435364F2E700BF0000014026
:1039D00090F83830012B22D030B4012280F8382002
:1039E000022380F839300468636823F07003636051
:1039F000046863680D682B4363600468A36823F060
:103A00008003A3600468A36849680B43A36080F83F
:103A10003920002380F83830184630BC7047022027
:103A2000704700002DE9F04704460268136923F44B
:103A30004053C1680B4313610168CA6822F41642FF
:103A400022F00C0283680069034360690343E06964
:103A500003431343CB602268536923F44073A16985
:103A60000B435361E369B3F5004F5FD02568B64B54
:103A70009D4200F0128103F580639D4200F00D81AC
:103A8000FEF782FB00EB800000EB800063689B0088
:103A9000B0FBF3F3DFF8B482A8FB03235B091E013C
:103AA000FEF772FB00EB800000EB800063689B0078
:103AB000B0FBF3F7FEF768FB00EB800000EB800043
:103AC00063689B00B0FBF3F3A8FB03235B094FF093
:103AD000640A0AFB13731B013233A8FB03235B093F
:103AE00003F0F007FEF750FB00EB800000EB8000D6
:103AF00063689B00B0FBF3F9FEF746FB00EB800028
:103B000000EB800063689B00B0FBF3F3A8FB03238A
:103B10005B090AFB13931B013233A8FB0323C3F396
:103B200043133B433344AB60BDE8F087256803F1A2
:103B3000804303F510439D4259D003F580639D42B5
:103B400055D0FEF721FB00EB800000EB800063689E
:103B50005B00B0FBF3F3DFF8F481A8FB03235B0900
:103B60001F01FEF711FB00EB800000EB8000636893
:103B70005B00B0FBF3F6FEF707FB00EB800000EB09
:103B8000800063685B00B0FBF3F3A8FB03235B09D1
:103B90004FF0640A0AFB1363DB003233A8FB0323F4
:103BA0001B0903F4F876FEF7EFFA00EB800000EB58
:103BB000800063685B00B0FBF3F9FEF7E5FA00EB09
:103BC000800000EB800063685B00B0FBF3F3A8FBB0
:103BD00003235B090AFB1393DB003233A8FB0323A7
:103BE000C3F342133B443344AB60BDE8F087FEF7B8
:103BF000E3FA00EB800000EB800063685B00B0FB41
:103C0000F3F3DFF84881A8FB03235B091F01FEF7EC
:103C1000D3FA00EB800000EB800063685B00B0FB30
:103C2000F3F6FEF7C9FA00EB800000EB8000636852
:103C30005B00B0FBF3F3A8FB03235B094FF0640ABE
:103C40000AFB1363DB003233A8FB03231B0903F4D5
:103C5000F876FEF7B1FA00EB800000EB80006368B5
:103C60005B00B0FBF3F9FEF7A7FA00EB800000EB76
:103C7000800063685B00B0FBF3F3A8FB03235B09E0
:103C80000AFB1393DB003233A8FB0323C3F3421375
:103C90003B443344AB60BDE8F087FEF78DFA00EBA0
:103CA000800000EB800063689B00B0FBF3F3DFF85B
:103CB0009C80A8FB03235B091E01FEF77DFA00EB45
:103CC000800000EB800063689B00B0FBF3F7FEF719
:103CD00073FA00EB800000EB800063689B00B0FB90
:103CE000F3F3A8FB03235B094FF0640A0AFB137389
:103CF0001B013233A8FB03235B0903F0F007FEF737
:103D00005BFA00EB800000EB800063689B00B0FB77
:103D1000F3F9FEF751FA00EB800000EB80006368D6
:103D20009B00B0FBF3F3A8FB03235B090AFB13938F
:103D30001B013233A8FB0323C3F343133B43334438
:103D4000AB60BDE8F08700BF001001401F85EB515C
:103D50002DE9F04107460E4615469846069C3A68FE
:103D6000136836EA03030CBF01230023AB421ED1C4
:103D7000B4F1FF3FF4D02CB1FCF75EFFA0EB0800DC
:103D80008442ECD23A68D36823F4D073D3603A68A3
:103D9000536923F001035361202387F8393087F8F2
:103DA0003A30002387F838300320BDE8F081002046
:103DB000BDE8F08158B310B5044690F839300BB324
:103DC000242384F839302268D36823F40053D36065
:103DD0002046FFF727FE2268136923F490431361FE
:103DE0002268536923F02A0353612268D36843F49D
:103DF0000053D3600020E063202384F8393084F836
:103E00003A3010BD80F8383001F0AAFCD8E7012024
:103E100070472DE9F04383B01E4690F83930DBB28D
:103E2000202B04D00223184603B0BDE8F0830446DB
:103E30000D469046002958D0002A58D090F83830C6
:103E4000012B01D10223EEE7012380F83830002353
:103E5000C363212380F83930FCF7EEFE0746A4F84F
:103E60002480A4F826804FF000094FF0800810E06D
:103E700000963B464A4641462046FFF769FF002828
:103E800037D122682B88C3F3080353602369C3B971
:103E90000235E38C9BB2B3B1E38C013B9BB2E3846C
:103EA000A368B3F5805FE3D000963B464A4641469F
:103EB0002046FFF74DFFF0B923682A785A60013594
:103EC000E7E70135E5E700963B4600224021204622
:103ED000FFF73EFF034608B10323A4E7202284F83E
:103EE0003920002284F838209DE701239BE7012335
:103EF00099E7032397E7032395E784B010B402AC56
:103F000084E80E0042680399029B0B4304990B431B
:103F100005990B4306990B4307990B4322F4FD4285
:103F200022F07F021343436000205DF8044B04B08D
:103F30007047D0F8800070470B68C0F880300020D0
:103F400070470323036000207047006800F00300FF
:103F5000704710B40B688360C2684B688C68234359
:103F6000CC68234309690B4322F47F6222F00F02DD
:103F70001343C36000205DF8044B70470069C0B272
:103F80007047000082B000230193034B0344019368
:103F9000019B186802B07047142C014010B40B68E4
:103FA00043624B688362C26A8B68CC6823430C69A6
:103FB000234349690B4322F0F7021343C3620020F5
:103FC0005DF8044B704741600260002383608B887A
:103FD0009380CB88D3800860106003239372022300
:103FE0001381CB88D3808988918003FB01F35B0028
:103FF000D80823F007018B4288BF01301061704759
:1040000008B543681B6A984708BD0000F0B4C4882F
:104010008C4221D9858895421ED904FB0211028960
:1040200002FB01F20D490A6055090D490D6002F0CD
:104030001F020C490A60847AC06850F8251004EA0F
:10404000030721FA02F6374206D1944021EA04011F
:1040500093400B4340F82530F0BC704744020020E9
:10406000400200203C020020F8B50689082595FB97
:10407000F6F5002D11DD877A0F4000231A46194608
:1040800007FA03F42143C9B201323344AA42F7D1FB
:104090000269C06801F0E4FBF8BD0021F8E72DE9F2
:1040A000F04F87B0BDF94060002B7ADBC588AB428A
:1040B00002DB8D4240F3E880002E75DBB0F804E0AF
:1040C000764502DB964540F3DF808146013D21EADB
:1040D000E174AC42A8BF2C4624B223EAE3739D42AC
:1040E000A8BF1D460FFA85FB0EF1FF3322EAE278E6
:1040F0009845A8BF98460FFA88F2154626EAE67E4C
:104100009E45A8BF9E460FFA8EF305930192D31ADF
:10411000002BB8BF5B421BB2002B6FD10389202656
:1041200096FBF3F6002E42DD857A119A15409C46E7
:1041300000221146174605FA02F007430131624496
:10414000B142F8D12546B4FBF6F206FB124686B31F
:104150005E465C4515D81FFA8EF44FF0200A119B7D
:104160002246A9B24846FFF751FF0135B9F8083099
:104170009AFBF3F1B5FBF1F201FB1252CAB1B54261
:10418000EDD9013DB5427FD81FFA88F8119C23462E
:104190004246A9B24846FFF739FF0135B542F6D984
:1041A00072E0002982DA6FE0002A87DA6CE00027EB
:1041B000C8E7B9F80620019901FB025203FB02F39C
:1041C0005B095E46AB45DCD3ABEB0501B9F80800F3
:1041D000202292FBF0F29142D3D39B002020D9F809
:1041E0000C20D750B9F8082090FBF2F21544B542E4
:1041F000C7D80433711B9142F1D2C2E7ABEB040282
:10420000002AB8BF524202925C45B4BF01214FF070
:10421000FF31039105988542B4BF01214FF0FF3172
:1042200004919A469A420ADC5B4203EBD3734FEA4D
:104230006308029B5F42CDF80490A94606E0029B0A
:1042400003EBD3784FEA6808F3E79846A6B21FFA63
:1042500089F5119B2A4631460198FFF7D7FE5C4548
:104260000FD0B84513DDA8EB0A03039A164434B205
:10427000D045EADA029A1344049A15440FFA85F9F4
:10428000E3E7059B9945ECD107B0BDE8F08F4346C5
:10429000EEE72DE9F04F85B00C461746BDF8381013
:1042A000C288944270DA0546BE46808887426BDA3F
:1042B000002C6CDB002F71DBE618B24202DC531ECF
:1042C0001B1B9BB2BB46CA19904202DC411EC91B94
:1042D00089B2002B58D0002956D02A89082090FB9B
:1042E000F2F0002803DD002201328242FCD101F10C
:1042F000FF381FFA88F81FFA84F909F1FF363344B2
:104300009EB233B20F9A0192009703933A46214628
:104310002846FFF7C4FE08EB070A0FFA8AFA0F9A3D
:104320000192CDF800A0039B524621462846FFF794
:10433000B6FE0F9A0192CDF800A023463A462146D8
:104340002846FFF7ACFE0F9A0192CDF800A0039922
:104350000B463A462846FFF7A2FE0BF10104D8446B
:10436000444511DA013E36B209F101090FFA89F923
:10437000109F22B201970092334649462846FFF724
:104380008EFE01344445F4DB05B0BDE8F08F664293
:104390009E42F9DC23449BB200248BE7CEF1000E51
:1043A0008E45F1DC394489B2002785E72DE9F04FCD
:1043B00085B0DDF838B0BDF840400294DBF80C4021
:1043C00034F81110DBF800600E44BBF8061081B31E
:1043D000924601904FF00009029F013B039310E0C9
:1043E0000AF1FF3129440F9B424689B20198FFF739
:1043F0000DFE15E0013609F10109BBF806304B4509
:1044000017D9029B002BF5D000252C46039B03EB0C
:1044100009081FFA88F83378234113F0010FDFD120
:1044200001340135BD42E5D0072CF4D90136002412
:10443000F1E705B0BDE8F08F2DE9F04F85B081467A
:10444000884616469A460E9DDDF83CB00846FBF7B6
:10445000A7FE08B3474680440FE0A4B20294CDF80B
:1044600004B00095534632464846FFF79FFFAB8A9B
:104470001C442644B6B247450ED017F8011B2B8AC0
:10448000C91A89B26B8A8B4238BF0021AC88002CD4
:10449000E3D1AB685C5CE0E705B0BDE8F08F08B540
:1044A000006800F036F808BD024B1868421C1A601C
:1044B000704700BF14020020086182683AB1C368E7
:1044C00063B1D9608B600023CB60C16070478160AD
:1044D000C16000230361CB608B607047D36823B158
:1044E000DA68002AEDD01346FAE71346E9E70369D4
:1044F00053B15A6842B1816992690A4482625B6829
:104500009B690B448362704783698362C369C3629A
:104510007047F8B138B504468268EAB10D46406884
:1045200028B1022905D02946606800F017F8A46870
:1045300008E0FFF7DCFFF6E72946204600F00EF81A
:10454000E4682CB1022DF7D12046FFF7D0FFF3E746
:10455000012038BD03207047032038BD08B501296C
:1045600005D0022906D0032907D0022008BD836B9D
:10457000984708BDC36B984708BD036C984708BDB2
:104580000120704784B004A800E90E0004B0704711
:104590007047704770B584B00446456B038CB0F922
:1045A0002C20B0F9281000680068AE6D02962D6EC0
:1045B0000195A58C0095FFF76CFEB4F92C20B4F999
:1045C0002810236818680323019300230093FFF742
:1045D00066FD656BA38DA26A0232696D2068006872
:1045E000EC6D0194034C009492B2FFF725FF01207B
:1045F00004B070BD3C85000870B5044608461646F8
:104600001D460B686360A463211DFFF755FF124B25
:10461000E363124B236400236364114BA364114BC7
:10462000E364114B2365E6612562049B6362059B8D
:10463000A36201232376FFF737FF0146A060069BA4
:104640006365079BA365089BE365099B2366074891
:1046500001F026FE70BD00BF9545000881450008A9
:1046600085450008914500089345000854850008D9
:1046700070477047014B1B6819647047680500203C
:104680004FF4A0738380F022C28010230381428103
:104690008381002303614FF4F0524261038343831B
:1046A000054BC361054B0362054B4362054B8362B7
:1046B000054BC362704700BF25480008194C00082D
:1046C0007146000873460008754600082DE9F0475A
:1046D00045686B8B98462E4A1278B2B9B5F808C077
:1046E0009C44A5F81AC00122294B1A7000260368C1
:1046F000DA881F8907FB02F708FB07F77F09E04507
:104700001AD20022DFF88CE039E0012A03D0022A15
:1047100007D00026EBE7B5F808C003EB5C0C0026D9
:10472000E5E7B5F8088008EB030C03EB58086E6961
:10473000B608A5F81AC0DAE7BDE8F087D0F800900F
:10474000D9F80C3053F82730D34099F80AA003EA7F
:104750000A033EF813A0B9F808301A441F2A84BF90
:10476000013700222B6923F804A0013601310234FD
:104770006B898B42E2D808F10108C44505D06B89EA
:10478000002BF8D074000021D8E7BDE8F08700BF07
:10479000180200200000002010B50446102109482E
:1047A000FCF79CFD0122084B1A70628BA3889A4289
:1047B00004D310210348FCF791FD10BD2068FFF7DA
:1047C00085FFF6E7000402401802002010B582B011
:1047D00002AC04F8010D012210210548FCF778FD18
:1047E0000A23012221460348FEF7B7FD02B010BD9F
:1047F00000080240B004002010B582B002AC04F8FA
:10480000010D002210210548FCF762FD0A23012258
:1048100021460348FEF7A1FD02B010BD000802408A
:10482000B004002010B5A84C012220212046FCF73E
:104830004FFD0520FCF706FA002220212046FCF758
:1048400047FD1420FCF7FEF9012220212046FCF749
:104850003FFD9620FCF7F6F90120FFF7CDFF05207C
:10486000FCF7F0F92820FFF7C7FFCF20FFF7C4FFC0
:104870000020FFF7ABFF8320FFF7A8FF3020FFF7F2
:10488000A5FFED20FFF7B8FF6420FFF79FFF03208F
:10489000FFF79CFF1220FFF799FF8120FFF796FF9B
:1048A000E820FFF7A9FF8520FFF790FF0120FFF721
:1048B0008DFF7920FFF78AFFCB20FFF79DFF39207E
:1048C000FFF784FF2C20FFF781FF0020FFF77EFF1A
:1048D0003420FFF77BFF0220FFF778FFF720FFF778
:1048E0008BFF2020FFF772FFEA20FFF785FF0020F3
:1048F000FFF76CFF0020FFF769FFC020FFF77CFF88
:104900002620FFF763FFC120FFF776FF1120FFF796
:104910005DFFC520FFF770FF3520FFF757FF3E20F2
:10492000FFF754FFC720FFF767FFBE20FFF74EFFDA
:104930003620FFF761FF4820FFF748FF3A20FFF7D6
:104940005BFF5520FFF742FFB120FFF755FF002026
:10495000FFF73CFF1B20FFF739FFF220FFF74CFF6A
:104960000820FFF733FF2620FFF746FF0220FFF75E
:104970002DFFE020FFF740FF0F20FFF727FF31203A
:10498000FFF724FF2B20FFF721FF0C20FFF71EFF6E
:104990000E20FFF71BFF0820FFF718FF4E20FFF740
:1049A00015FFF120FFF712FF3720FFF70FFF072059
:1049B000FFF70CFF1020FFF709FF0320FFF706FFAA
:1049C0000E20FFF703FF0920FFF700FF0020FFF78D
:1049D000FDFEE120FFF710FF0020FFF7F7FE0E209D
:1049E000FFF7F4FE1420FFF7F1FE0320FFF7EEFEC1
:1049F0001120FFF7EBFE0720FFF7E8FE3120FFF75D
:104A0000E5FEC120FFF7E2FE4820FFF7DFFE0820A9
:104A1000FFF7DCFE0F20FFF7D9FE0C20FFF7D6FED4
:104A20003120FFF7D3FE3620FFF7D0FE0F20FFF72F
:104A3000CDFE2A20FFF7E0FE0020FFF7C7FE002092
:104A4000FFF7C4FE0020FFF7C1FEEF20FFF7BEFE18
:104A50002B20FFF7D1FE0020FFF7B8FE0020FFF764
:104A6000B5FE0120FFF7B2FE3F20FFF7AFFE342076
:104A7000FFF7C2FE3520FFF7BFFE0120FFF7A6FEBD
:104A8000B720FFF7B9FE0720FFF7A0FEB620FFF71B
:104A9000B3FE0A20FFF79AFE8220FFF797FE272039
:104AA000FFF794FE0020FFF791FE1120FFF7A4FE10
:104AB0006420FCF7C7F82920FFF79EFE6420FCF76E
:104AC000C1F8002010BD00BF000802402DE9F843E6
:104AD00081460F4615461E46002201211A48FCF762
:104AE000F7FB2A20FFF788FEDFF8688001221021FB
:104AF0004046FCF7EDFB154C4FEA1923237084F870
:104B000001902B0AA370E570114D0A23042221465F
:104B10002846FEF722FC2B20FFF76EFE0122102113
:104B20004046FCF7D5FB3B0A23706770330AA3703D
:104B3000E6700A23042221462846FEF70EFC2C20AC
:104B4000FFF75AFEBDE8F88300040240540200203B
:104B5000B00400200008024070B50446284B1A88B3
:104B6000418B83889B1A99420ADB0021254B1970DF
:104B7000428300688368002B2ED09847012500E00F
:104B80000025618B23890B44013B9BB2E288002006
:104B9000FFF79CFF2068FFF799FD012210211A48BA
:104BA000FCF796FB002201211848FCF791FB184BFB
:104BB0001B689BB9A28A21691648FEF79DFC012259
:104BC000134B1A603DB12068C36803B19847206851
:104BD000036903B1984770BD0125D2E70D4E3268D5
:104BE00063690C322169B06CFCF768F933685A6864
:104BF00042F020025A605A6842F002025A60E1E72D
:104C00001A0200201802002000080240000402409E
:104C10001C020020B004002038B50546074C204691
:104C2000FEF792FD0C212046FEF7B8FE23681F22F6
:104C30001A646868FFF790FF38BD00BF6805002060
:104C400010B504460222054B1A7001221146044891
:104C5000FCF73EFB2046FFF77FFF10BD1802002047
:104C600000040240114B5B7ADBB2012B01D9012019
:104C7000704730B40D4C657AEDB200236355657A08
:104C800004EB85056860607A20440272627AD2B2D1
:104C9000501CC0B2607230320A703A224A702F2221
:104CA0008A70CB70184630BC704700BF20020020CD
:104CB00008B50022FFF7D6FF08BD000008B50122A5
:104CC000064B1A7000F06CF820B9044A137803F010
:104CD000FE031370014B187808BD00BF10000020C0
:104CE00008B50122064B1A7000F0A2F820B9044A58
:104CF000137803F0FE031370014B187808BD00BF52
:104D00001000002000B583B001934FF400730093AE
:104D100052020023084600F067F8003018BF012057
:104D200003B05DF804FB00B583B001934FF400734A
:104D3000009352020023084600F068F8003018BFC4
:104D4000012003B05DF804FB144B1B7813F0010F36
:104D500001D003207047032903D8DFE801F01D04C8
:104D600013180420704710B596B01446684600F03A
:104D700067F8129B5B0A139A43EAC2532360002030
:104D800016B010BD4FF400731380002070474FF42D
:104D9000007313600120704700207047100000204E
:104DA00000B583B001238DF807309DF80730DBB2E2
:104DB000012B04D00123184603B05DF804FB084919
:104DC0000848FDF75BFD03460028F4D14FF400616D
:104DD0000448FDF74BFF031C18BF0123EBE700BF9E
:104DE000F80300205004002000B583B0059901911C
:104DF0000499009101460448FDF7FCFF003018BFFC
:104E0000012003B05DF804FB5004002000B583B01E
:104E1000059901910499009101460448FEF7BEF8F6
:104E2000003018BF012003B05DF804FB50040020DF
:104E300008B50248FEF7D2F908BD00BF50040020B3
:104E400008B501460148FDF7CFFB08BD500400201E
:104E500000B583B000210191094B1A6B42F4800226
:104E60001A631B6B03F480030193019B0A463B20EA
:104E7000FBF708FF3B20FBF735FF03B05DF804FBB1
:104E80000038024008B503490348FFF711FF034B00
:104E9000187008BD5C0200206885000858020020D8
:104EA0002DE9F0418AB000240094324B1A6B42F095
:104EB00080021A631A6B02F080020092009A019439
:104EC0001A6B42F004021A631A6B02F00402019298
:104ED000019A02941A6B42F001021A631A6B02F0F3
:104EE00001020292029A03941A6B42F002021A63C0
:104EF0001A6B02F002020392039A04941A6B42F0B6
:104F000008021A631B6B03F008030493049B03233A
:104F1000059306940794184D05A92846FCF70AF94D
:104F2000012605960694079405A91448FCF702F992
:104F30004FF03008CDF8148006960794089405A920
:104F40002846FCF7F7F83927059706960794089442
:104F50000B4E05A93046FCF7EDF82246414628469F
:104F6000FCF7B6F9224639463046FCF7B1F90AB0EB
:104F7000BDE8F08100380240000802400000024015
:104F80000004024008B50B480B4B03600B4B436019
:104F900000238360C3604FF48042026143618361F8
:104FA000C3610362FCF7A0FA00B908BD00F05AF92A
:104FB000FBE700BF6002002000540040801A06009A
:104FC0000268124B9A4200D0704700B587B04FF488
:104FD0004073019312230293012303930323049349
:104FE000042305930DEB03010948FCF7A3F8002304
:104FF0000093084B1A6C42F400121A641B6C03F401
:1050000000130093009B07B05DF804FB00540040C0
:10501000000402400038024010B584B00C4C2368F4
:1050200000211868FFF720F823681868022302930C
:1050300001240194322200921346AA21FFF729F994
:105040002146044B1868FFF72AFA04B010BD00BFD0
:10505000B4020020B802002030B587B08DF80F00F0
:1050600000238DF817300B4C6425009501230DF1BA
:105070000F023A212046FCF7B5FA009501230DF105
:1050800017023A212046FCF7AFFB9DF8170007B046
:1050900030BD00BF6002002000B585B08DF80C0067
:1050A0008DF80D1064230093022303AA3A210348CC
:1050B000FCF798FA05B05DF804FB00BF6002002021
:1050C0002DE9F84381461C4C002208212046FCF7BC
:1050D000FFF8002210212046FCF7FAF80024164FB2
:1050E000DFF85880012649FA04F505F001052A4643
:1050F00020213846FCF7ECF82A462146404601F0CC
:10510000CFF8324610213846FCF7E2F83046FBF77C
:1051100099FD002210213846FCF7DAF83046FBF7FB
:1051200091FD0134082CDED1012208210248FCF750
:10513000CFF8BDE8F88300BF000402407C8500087A
:1051400000B595B000210191274B1A6C42F08052B6
:105150001A641B6C03F080530193019B0291234A54
:10516000136823F4404343F400431360136803F4CB
:1051700040430293029B012308934FF48033099329
:1051800002230E934FF480030F93042310936022A5
:1051900011921293139308A8FCF708FD10BB0F237C
:1051A000039302230493002305934FF48052069245
:1051B0000793012103A8FCF709FFA0B9FCF7DEFF64
:1051C0000B4BA3FB00308009FBF798FD0420FBF795
:1051D000ABFD002211464FF0FF30FBF753FD15B039
:1051E0005DF804FBFEE7FEE7003802400070004077
:1051F000D34D621008B5FBF7FDFCFFF7A1FFFFF7E9
:105200004FFEFFF725FE00F00FF900F053F900F014
:1052100055FAFFF737FE00F089FAFFF7B3FE0020DA
:10522000FFF74EFF70212420FFF736FF20212520B5
:10523000FFF732FF00212620FFF72EFF0F20FFF798
:105240000BFF0146044801F02BF800F049F8034B2E
:105250001860034B8360FEE788850008B4020020D5
:1052600019500008FEE7000008B50A48D0F884305D
:105270005A1C094981FB0231D317C3EB2113962134
:1052800001FB1323C0F884300221044B1868FFF798
:1052900006F908BDBC020020B5814E1BB8020020F3
:1052A00008B5054B834200D008BD044B1B68586805
:1052B000FFF772FAF8E700BFB0040020F403002003
:1052C00008B5054B834200D008BD044B1B685868E5
:1052D000FFF7B6FCF8E700BFB0040020F40300209D
:1052E0002DE9F04F89B0142000F0B2FA04461420E2
:1052F00000F0AEFA8046302000F0AAFA05460420FD
:1053000000F0A6FA06463A4F3860182000F0A0FADE
:10531000306004602846FFF7B3F9686900F098FA36
:1053200001462861334E304600F0BAFF4246294616
:1053300007942046FEF747FE814600F089FA0546AD
:10534000C8F80C004A46002100F08AFA2946304687
:1053500000F0A6FF3B681968DFF8B08001260596CB
:105360004FF0020ACDF810A04FF00009CDF80C90D4
:10537000214B0293462401944FF0640BCDF800B00A
:1053800032231A464046FFF737F93B6819680596FD
:10539000CDF810900396194B029332250195CDF864
:1053A00000B096232A4608F16800FFF725F93B680C
:1053B0001968CDF814900496CDF80CA0104B029308
:1053C00001950094DC232A4608F1D000FFF714F978
:1053D0000C4D079C2C602046FFF724FA2046FEF770
:1053E0000FFE2868084BC36009B0BDE8F08F00BF0E
:1053F000B80200209085000814000020180000204A
:105400001C000020F403002069520008BC020020A8
:1054100010B514460A2392B20248FEF7FAFC204661
:1054200010BD00BFA4050020054B064A1A600022EB
:105430005A609A60DA601A615A6102229A61704772
:1054400050040020002C01400268174B9A4200D003
:105450007047F0B587B00024009403F586335A6C8A
:1054600042F400625A645B6C03F400630093009B97
:105470004FF4F853019302270297039403260496EE
:105480000C25059501A90948FBF754FE0423019357
:1054900002970394049605950DEB03010448FBF76E
:1054A00049FE07B0F0BD00BF002C014000080240DB
:1054B000000C024008B50D480D4B03604FF4827399
:1054C000436000238360C360036143614FF4007253
:1054D0008261C3610362436283620A23C362FDF790
:1054E000FCFE00B908BDFFF7BDFEFBE7B0040020DD
:1054F0000030014002681E4B9A4200D0704730B520
:1055000087B004460025009503F584335A6C42F4B5
:1055100080525A645B6C03F480530093009BE02339
:105520000193022302930395032304930523059318
:1055300001A91048FBF7FEFD0F48104B03604FF028
:10554000C063436040238360C5604FF480630361A0
:1055500045618561C56105624562FBF70FFC20B9B5
:10556000054BA3649C6307B030BDFFF77BFEF7E7F4
:10557000003001400000024008050020586402404D
:1055800008B50320FBF76CFB002211466FF00B00FF
:10559000FBF778FB002211466FF00A00FBF772FB65
:1055A000002211466FF00900FBF76CFB0022114648
:1055B0006FF00400FBF766FB002211466FF003005A
:1055C000FBF760FB002211466FF00100FBF75AFB6E
:1055D000002211464FF0FF30FBF754FB08BD704727
:1055E000FEE7FEE7FEE7FEE770477047704708B545
:1055F000FBF71AFBFBF7A5FB08BD000008B5024846
:10560000FBF7A6FC08BD00BF080500200F49D1F834
:10561000883043F47003C1F888300D4B1A6842F0AB
:1056200001021A60002098601A6822F0847222F445
:1056300080321A60074A5A601A6822F480221A607F
:10564000D8604FF000638B60704700BF00ED00E052
:1056500000380240103000240268094B9A4200D002
:10566000704782B000230193064B1A6C42F002028D
:105670001A641B6C03F002030193019B02B0EFE775
:10568000000400400038024002680A4B9A4200D0F1
:10569000704700B587B00223019302930022039262
:1056A0000492059301A90448FBF744FD07B05DF897
:1056B00004FB00BF000400400004024000B58BB0B2
:1056C0001848194B036001234360002383601022B4
:1056D000C2600361FEF79EF8D0B9002308930993D6
:1056E00008A91048FEF774F9A8B9602301930F23A5
:1056F00002930023039305930C2201A90948FEF7A6
:10570000D1F858B90748FFF7BFFF0BB05DF804FBAD
:10571000FFF7A8FDE1E7FFF7A5FDE6E7FFF7A2FD2C
:10572000F0E700BF680500200004004008B50A4803
:105730000A4B03604FF4E133436000238360C3608E
:1057400003610C2242618361C361FEF733FB00B940
:1057500008BDFFF787FDFBE7A4050020001401400A
:105760000268114B9A4200D0704700B587B0002301
:1057700000930E4B5A6C42F020025A645B6C03F0AB
:1057800020030093009BC023019302230293012373
:105790000393032304930823059301A90448FBF70B
:1057A000C9FC07B05DF804FB00140140003802405A
:1057B00000080240DFF834D0002103E00C4B5B58B6
:1057C000435004310B480C4B42189A42F6D30B4A13
:1057D00002E0002342F8043B094B9A42F9D3FFF759
:1057E00015FF00F011F8FFF705FD7047008001205C
:1057F0006088000800000020F4010020F80100206B
:10580000E8050020FEE7000070B50D4E0D4CA41B0E
:10581000A4100025A54209D10B4E0C4C02F09EFBB2
:10582000A41BA4100025A54205D170BD56F8253053
:1058300098470135EEE756F8253098470135F2E7ED
:105840005888000858880008588800085C880008B4
:10585000024B0146186800F059B800BF2400002030
:1058600002440346934200D1704703F8011BF9E755
:1058700038B50546002945D051F8043C0C1F002BD3
:10588000B8BFE41801F071FC1F4A1368104633B921
:10589000636014602846BDE8384001F067BCA3424D
:1058A0000CD921686218934204BF1A685B68636070
:1058B00004BF521822600460ECE713465A680AB12C
:1058C000A242FAD919685818A0420BD120680144A5
:1058D000581882421960DDD1106852685A6001443C
:1058E0001960D7E702D90C232B60D3E72068211871
:1058F0008A4204BF11685268626004BF09182160BF
:105900005C60C7E738BD00BF2C02002070B5CD1C1D
:1059100025F0030508350C2D38BF0C25002D064653
:1059200001DBA94203D90C233360002070BD01F0D4
:105930001CFC234A1468214691B9224C23681BB9E8
:10594000304600F0C5FC20602946304600F0C0FC1F
:10595000431C26D10C233360304601F007FCE4E7FA
:105960000B685B1B1AD40B2B0FD90B60CD50CC18D6
:10597000304601F0FBFB04F10B00231D20F0070073
:10598000C31A1BD05A42E25070BD8C420DBF6368EF
:105990004B686360136018BF0C46E9E70C46496822
:1059A000CAE7C41C24F00304A04205D0211A3046E3
:1059B00000F08EFC0130CDD02560D9E770BD00BF6E
:1059C0002C020020300200202DE9FF4755EC104B3F
:1059D0000D9FDDF830A0002D0E4691461946B8BF48
:1059E00022462B4627F02007BBBF05F100431D468A
:1059F00000232D23B8BF1446462F0B7004D0452F2B
:105A000000D10136022100E0032103AB019302AB78
:105A100000933246534645EC104B00F0F5FC472FFF
:105A2000804602D119F0010F26D0462F08EB060957
:105A300011D198F80030302B0AD1002200232046E3
:105A40002946FBF725F818B9C6F10106CAF8006027
:105A5000DAF8003099440022002320462946FBF75B
:105A600017F838B93022039B994505D9591C039181
:105A70001A70F8E7CDF80C90039B0E9AA3EB08037D
:105A80004046136004B0BDE8F087F7B5034600292F
:105A9000B8BF494203F8022BB4BF2D222B2209299B
:105AA000427020DD0DF1070217460A2691FBF6F53C
:105AB00006FB15113031092D02F8011C02F1FF34EB
:105AC000294609DC3031023A04F8011CBA421C466E
:105AD00004D3201A03B0F0BD2246E7E712F8011BF9
